{
  "contractName": "AssetsAccountantState",
  "abi": [
    {
      "inputs": [],
      "name": "BURNER_ROLE",
      "outputs": [
        {
          "internalType": "bytes32",
          "name": "",
          "type": "bytes32"
        }
      ],
      "stateMutability": "view",
      "type": "function"
    },
    {
      "inputs": [],
      "name": "MINTER_ROLE",
      "outputs": [
        {
          "internalType": "bytes32",
          "name": "",
          "type": "bytes32"
        }
      ],
      "stateMutability": "view",
      "type": "function"
    },
    {
      "inputs": [],
      "name": "URI_SETTER_ROLE",
      "outputs": [
        {
          "internalType": "bytes32",
          "name": "",
          "type": "bytes32"
        }
      ],
      "stateMutability": "view",
      "type": "function"
    },
    {
      "inputs": [
        {
          "internalType": "address",
          "name": "",
          "type": "address"
        }
      ],
      "name": "houseOfCoins",
      "outputs": [
        {
          "internalType": "address",
          "name": "",
          "type": "address"
        }
      ],
      "stateMutability": "view",
      "type": "function"
    },
    {
      "inputs": [
        {
          "internalType": "uint256",
          "name": "",
          "type": "uint256"
        }
      ],
      "name": "houseOfReserves",
      "outputs": [
        {
          "internalType": "address",
          "name": "",
          "type": "address"
        }
      ],
      "stateMutability": "view",
      "type": "function"
    },
    {
      "inputs": [
        {
          "internalType": "address",
          "name": "",
          "type": "address"
        },
        {
          "internalType": "address",
          "name": "",
          "type": "address"
        }
      ],
      "name": "reservesIds",
      "outputs": [
        {
          "internalType": "uint256",
          "name": "",
          "type": "uint256"
        }
      ],
      "stateMutability": "view",
      "type": "function"
    }
  ],
  "bytecode": "0x608060405234801561001057600080fd5b50610428806100206000396000f3fe608060405234801561001057600080fd5b50600436106100625760003560e01c806308b4951714610067578063282c51f3146100975780637f345710146100b5578063a0d31bf6146100d3578063a77a2c8014610103578063d539139314610133575b600080fd5b610081600480360381019061007c91906102d7565b610151565b60405161008e919061032d565b60405180910390f35b61009f610184565b6040516100ac9190610348565b60405180910390f35b6100bd6101a8565b6040516100ca9190610348565b60405180910390f35b6100ed60048036038101906100e8919061029b565b6101cc565b6040516100fa9190610363565b60405180910390f35b61011d60048036038101906101189190610272565b6101f1565b60405161012a919061032d565b60405180910390f35b61013b610224565b6040516101489190610348565b60405180910390f35b60006020528060005260406000206000915054906101000a900473ffffffffffffffffffffffffffffffffffffffff1681565b7f3c11d16cbaffd01df69ce1c404f6340ee057498f5f00246190ea54220576a84881565b7f7804d923f43a17d325d77e781528e0793b2edd9890ab45fc64efd7b4b427744c81565b6001602052816000526040600020602052806000526040600020600091509150505481565b60026020528060005260406000206000915054906101000a900473ffffffffffffffffffffffffffffffffffffffff1681565b7f9f2df0fed2c77648de5860a4cc508cd0818c85b8b8a1ab4ceeef8d981c8956a681565b600081359050610257816103c4565b92915050565b60008135905061026c816103db565b92915050565b60006020828403121561028457600080fd5b600061029284828501610248565b91505092915050565b600080604083850312156102ae57600080fd5b60006102bc85828601610248565b92505060206102cd85828601610248565b9150509250929050565b6000602082840312156102e957600080fd5b60006102f78482850161025d565b91505092915050565b6103098161037e565b82525050565b61031881610390565b82525050565b610327816103ba565b82525050565b60006020820190506103426000830184610300565b92915050565b600060208201905061035d600083018461030f565b92915050565b6000602082019050610378600083018461031e565b92915050565b60006103898261039a565b9050919050565b6000819050919050565b600073ffffffffffffffffffffffffffffffffffffffff82169050919050565b6000819050919050565b6103cd8161037e565b81146103d857600080fd5b50565b6103e4816103ba565b81146103ef57600080fd5b5056fea2646970667358221220e01e0f902180496b19345e17de536a72531ad1e1e32e0fdd7b1c2228243f0fb264736f6c63430008020033",
  "immutableReferences": {},
  "source": "// SPDX-License-Identifier: MIT\r\npragma solidity 0.8.2;\r\n\r\n/**\r\n* @title Assets accountant contract.\r\n* @author daigaro.eth\r\n* @notice Keeps records of all deposits, withdrawals, and minted assets by users using ERC1155 tokens.\r\n* @dev Contracts are split into state and functionality.\r\n* @dev At time of deployment, deployer is DEFAULT_ADMIN, however, this role should be transferred to a governance system.\r\n* @dev Users do not interact directly with this contract. \r\n*/\r\n\r\nimport \"@openzeppelin/contracts/token/ERC1155/ERC1155.sol\";\r\nimport \"@openzeppelin/contracts/access/AccessControl.sol\";\r\nimport \"./interfaces/IHouseOfReserveState.sol\";\r\nimport \"./interfaces/IHouseOfCoinState.sol\";\r\n\r\ncontract AssetsAccountantState {\r\n\r\n    // reserveTokenID => houseOfReserve \r\n    mapping(uint => address) public houseOfReserves;\r\n\r\n    // reserveAsset => backAsset => reserveTokenID\r\n    mapping(address => mapping(address => uint)) public reservesIds;\r\n\r\n    // backedAsset  => houseOfCoin\r\n    mapping(address => address) public houseOfCoins;\r\n\r\n    mapping(address => bool) internal _isARegisteredHouse;\r\n\r\n    // Contract Token name\r\n    string internal constant _name = 'eFIAT AssetAccountant';\r\n\r\n    bytes32 public constant URI_SETTER_ROLE = keccak256(\"URI_SETTER_ROLE\");\r\n\r\n    bytes32 public constant MINTER_ROLE = keccak256(\"MINTER_ROLE\");\r\n\r\n    bytes32 public constant BURNER_ROLE = keccak256(\"BURNER_ROLE\");\r\n\r\n}\r\n\r\ncontract AssetsAccountant is ERC1155, AccessControl, AssetsAccountantState {\r\n\r\n    // AssetsAccountant Events\r\n\r\n    /**  \r\n    * @dev Emit when a HouseOfReserve is registered with AssetsAccountant\r\n    * @param house Address of house registered.\r\n    * @param typeOfHouse Either HouseOfReserve or HouseOfCoin.\r\n    * @param asset ERC20 address of either reserve asset or backed asset.\r\n    */\r\n    event HouseRegistered(address house, bytes32 indexed typeOfHouse, address indexed asset);\r\n\r\n    constructor() ERC1155(\"http://efiat.world/token-ids/\") {\r\n        _setupRole(DEFAULT_ADMIN_ROLE, msg.sender);\r\n        _setupRole(URI_SETTER_ROLE, msg.sender);\r\n        _setupRole(MINTER_ROLE, msg.sender);\r\n        _setupRole(BURNER_ROLE, msg.sender);\r\n    }\r\n\r\n    /**  \r\n    * @dev Register a house address in this contract.\r\n    * @dev Requires caller to have DEFAULT_ADMIN_ROLE.\r\n    * @param houseAddress Address of house registered.\r\n    * @param asset ERC20 address of either reserve asset or backed asset.\r\n    */\r\n    function registerHouse(address houseAddress, address asset) \r\n        external\r\n        onlyRole(DEFAULT_ADMIN_ROLE)\r\n    {\r\n        // Check if House has been previously registered.\r\n        require(!_isARegisteredHouse[houseAddress], \"House already registered!\");\r\n\r\n        // Check type of House being registered and proceed accordingly\r\n\r\n        if(IHouseOfReserveState(houseAddress).HOUSE_TYPE() == keccak256(\"RESERVE_HOUSE\")) {\r\n\r\n            IHouseOfReserveState hOfReserve = IHouseOfReserveState(houseAddress);\r\n            uint reserveTokenID = hOfReserve.reserveTokenID();\r\n            address bAsset = hOfReserve.backedAsset();\r\n\r\n            // Check that asset has NOT a house address assigned\r\n            require(houseOfReserves[reserveTokenID] == address(0), \"ReserveAsset already registered!\");\r\n\r\n            // Check intended asset matches House\r\n            require(\r\n                hOfReserve.reserveAsset() == asset,\r\n                \"Asset input does not matche reserveAsset in houseAddress!\"\r\n            );\r\n\r\n            // Register mappings\r\n            houseOfReserves[reserveTokenID] = houseAddress;\r\n            _isARegisteredHouse[houseAddress] = true;\r\n            reservesIds[asset][bAsset] = reserveTokenID;\r\n\r\n            // Assign Roles\r\n            _setupRole(MINTER_ROLE, houseAddress);\r\n            _setupRole(BURNER_ROLE, houseAddress);\r\n\r\n            emit HouseRegistered(houseAddress, hOfReserve.HOUSE_TYPE(), asset);\r\n            \r\n        } else if (IHouseOfCoinState(houseAddress).HOUSE_TYPE() == keccak256(\"COIN_HOUSE\")) {\r\n\r\n            IHouseOfCoinState hOfCoin = IHouseOfCoinState(houseAddress);\r\n\r\n            // Check that asset has NOT a house address assigned\r\n            require(houseOfCoins[asset] == address(0), \"backedAsset already registered!\");\r\n\r\n            // Check intended asset matches House\r\n            require(\r\n                hOfCoin.backedAsset() == asset,\r\n                \"Asset input does not matche backedAsset in houseAddress!\"\r\n            );\r\n\r\n            // Register mappings\r\n            houseOfCoins[asset] = houseAddress;\r\n            _isARegisteredHouse[houseAddress] = true;\r\n\r\n            // Assign Roles\r\n            _setupRole(MINTER_ROLE, houseAddress);\r\n            _setupRole(BURNER_ROLE, houseAddress);\r\n\r\n            emit HouseRegistered(houseAddress, hOfCoin.HOUSE_TYPE(), asset);\r\n\r\n        } else {\r\n            revert(\"house address type invalid!\");\r\n        }\r\n    }\r\n\r\n    /**\r\n     * @dev Returns _name.\r\n     */\r\n    function name() public pure returns (string memory) {\r\n        return _name;\r\n    }\r\n\r\n    /**  \r\n    * @dev Sets the URI for this contract.\r\n    * @dev Requires caller to have URI_SETTER_ROLE.\r\n    * @dev Since URI is not specified per Token Id this function does not emit {URI} event.\r\n    * @param newuri String of the new URI.\r\n    */\r\n    function setURI(string memory newuri) public onlyRole(URI_SETTER_ROLE) {\r\n        _setURI(newuri);\r\n    }\r\n\r\n    /**  \r\n    * @notice Mints 'amount' of token Id for specified 'account' address.\r\n    * @dev Requires caller to have MINTER_ROLE.\r\n    * @param account User address\r\n    * @param id Token Id\r\n    * @param amount to mint\r\n    * @param data Not use in this implementation, pass empty string \"\".\r\n    */\r\n    function mint(address account, uint256 id, uint256 amount, bytes memory data)\r\n        external\r\n        onlyRole(MINTER_ROLE)\r\n    {\r\n        _mint(account, id, amount, data);\r\n    }\r\n\r\n    /**\r\n    * @dev Batch implementation of {mint} function. Refer to {mint}.\r\n    */\r\n    function mintBatch(address to, uint256[] memory ids, uint256[] memory amounts, bytes memory data)\r\n        external\r\n        onlyRole(MINTER_ROLE)\r\n    {\r\n        _mintBatch(to, ids, amounts, data);\r\n    }\r\n\r\n    /**  \r\n    * @notice Burns 'amount' of token Id for specified 'account' address.\r\n    * @dev Requires caller to have BURNER_ROLE.\r\n    * @param account User address\r\n    * @param id Token Id\r\n    * @param amount to burn\r\n    */\r\n    function burn(\r\n        address account,\r\n        uint256 id,\r\n        uint256 amount\r\n    ) public onlyRole(BURNER_ROLE) {\r\n        _burn(account, id, amount);\r\n    }\r\n\r\n    /**\r\n    * @dev Batch implementation of {burn} function. Refer to {burn}.\r\n    */\r\n    function burnBatch(\r\n        address account,\r\n        uint256[] memory ids,\r\n        uint256[] memory amounts\r\n    ) public onlyRole(BURNER_ROLE) {\r\n        _burnBatch(account, ids, amounts);\r\n    }\r\n\r\n    /**\r\n    * @dev Function override added to restrict transferability of tokens in this contract.\r\n    * @dev Accounting assets are not meant to be transferable. \r\n    */\r\n    function safeTransferFrom(\r\n        address from,\r\n        address to,\r\n        uint256 id,\r\n        uint256 amount,\r\n        bytes calldata data\r\n    ) public pure override {\r\n        from;\r\n        to;\r\n        id;\r\n        amount;\r\n        data;\r\n        revert(\"Non-transferable!\");\r\n    }\r\n\r\n    /**\r\n    * @dev See {safeTransferFrom}.\r\n    */\r\n    function safeBatchTransferFrom(\r\n        address from,\r\n        address to,\r\n        uint256[] calldata ids,\r\n        uint256[] calldata amounts,\r\n        bytes calldata data\r\n    ) public pure override {\r\n        from;\r\n        to;\r\n        ids;\r\n        amounts;\r\n        data;\r\n        revert(\"Non-transferable!\");\r\n    }\r\n\r\n    /**\r\n    * @dev Function override required by Solidity.\r\n    */\r\n    function supportsInterface(bytes4 interfaceId)\r\n        public\r\n        view\r\n        override(ERC1155, AccessControl)\r\n        returns (bool)\r\n    {\r\n        return super.supportsInterface(interfaceId);\r\n    }\r\n}",
  "sourcePath": "C:\\Users\\DCota\\Documents\\Crypto\\Consensys Blockchain Developer\\blockchain-developer-bootcamp-final-project\\contracts\\AssetsAccountant.sol",
  "compiler": {
    "name": "solc",
    "version": "0.8.2+commit.661d1103.Emscripten.clang"
  },
  "schemaVersion": "3.4.3",
  "updatedAt": "2021-11-24T20:06:54.677Z",
  "devdoc": {
    "kind": "dev",
    "methods": {},
    "version": 1
  },
  "userdoc": {
    "kind": "user",
    "methods": {},
    "version": 1
  }
}