{
  "contractName": "AssetsAccountant",
  "abi": [
    {
      "inputs": [],
      "stateMutability": "nonpayable",
      "type": "constructor"
    },
    {
      "anonymous": false,
      "inputs": [
        {
          "indexed": true,
          "internalType": "address",
          "name": "account",
          "type": "address"
        },
        {
          "indexed": true,
          "internalType": "address",
          "name": "operator",
          "type": "address"
        },
        {
          "indexed": false,
          "internalType": "bool",
          "name": "approved",
          "type": "bool"
        }
      ],
      "name": "ApprovalForAll",
      "type": "event"
    },
    {
      "anonymous": false,
      "inputs": [
        {
          "indexed": false,
          "internalType": "address",
          "name": "house",
          "type": "address"
        },
        {
          "indexed": true,
          "internalType": "bytes32",
          "name": "typeOfHouse",
          "type": "bytes32"
        },
        {
          "indexed": true,
          "internalType": "address",
          "name": "asset",
          "type": "address"
        }
      ],
      "name": "HouseRegistered",
      "type": "event"
    },
    {
      "anonymous": false,
      "inputs": [
        {
          "indexed": true,
          "internalType": "bytes32",
          "name": "role",
          "type": "bytes32"
        },
        {
          "indexed": true,
          "internalType": "bytes32",
          "name": "previousAdminRole",
          "type": "bytes32"
        },
        {
          "indexed": true,
          "internalType": "bytes32",
          "name": "newAdminRole",
          "type": "bytes32"
        }
      ],
      "name": "RoleAdminChanged",
      "type": "event"
    },
    {
      "anonymous": false,
      "inputs": [
        {
          "indexed": true,
          "internalType": "bytes32",
          "name": "role",
          "type": "bytes32"
        },
        {
          "indexed": true,
          "internalType": "address",
          "name": "account",
          "type": "address"
        },
        {
          "indexed": true,
          "internalType": "address",
          "name": "sender",
          "type": "address"
        }
      ],
      "name": "RoleGranted",
      "type": "event"
    },
    {
      "anonymous": false,
      "inputs": [
        {
          "indexed": true,
          "internalType": "bytes32",
          "name": "role",
          "type": "bytes32"
        },
        {
          "indexed": true,
          "internalType": "address",
          "name": "account",
          "type": "address"
        },
        {
          "indexed": true,
          "internalType": "address",
          "name": "sender",
          "type": "address"
        }
      ],
      "name": "RoleRevoked",
      "type": "event"
    },
    {
      "anonymous": false,
      "inputs": [
        {
          "indexed": true,
          "internalType": "address",
          "name": "operator",
          "type": "address"
        },
        {
          "indexed": true,
          "internalType": "address",
          "name": "from",
          "type": "address"
        },
        {
          "indexed": true,
          "internalType": "address",
          "name": "to",
          "type": "address"
        },
        {
          "indexed": false,
          "internalType": "uint256[]",
          "name": "ids",
          "type": "uint256[]"
        },
        {
          "indexed": false,
          "internalType": "uint256[]",
          "name": "values",
          "type": "uint256[]"
        }
      ],
      "name": "TransferBatch",
      "type": "event"
    },
    {
      "anonymous": false,
      "inputs": [
        {
          "indexed": true,
          "internalType": "address",
          "name": "operator",
          "type": "address"
        },
        {
          "indexed": true,
          "internalType": "address",
          "name": "from",
          "type": "address"
        },
        {
          "indexed": true,
          "internalType": "address",
          "name": "to",
          "type": "address"
        },
        {
          "indexed": false,
          "internalType": "uint256",
          "name": "id",
          "type": "uint256"
        },
        {
          "indexed": false,
          "internalType": "uint256",
          "name": "value",
          "type": "uint256"
        }
      ],
      "name": "TransferSingle",
      "type": "event"
    },
    {
      "anonymous": false,
      "inputs": [
        {
          "indexed": false,
          "internalType": "string",
          "name": "value",
          "type": "string"
        },
        {
          "indexed": true,
          "internalType": "uint256",
          "name": "id",
          "type": "uint256"
        }
      ],
      "name": "URI",
      "type": "event"
    },
    {
      "inputs": [],
      "name": "BURNER_ROLE",
      "outputs": [
        {
          "internalType": "bytes32",
          "name": "",
          "type": "bytes32"
        }
      ],
      "stateMutability": "view",
      "type": "function",
      "constant": true
    },
    {
      "inputs": [],
      "name": "DEFAULT_ADMIN_ROLE",
      "outputs": [
        {
          "internalType": "bytes32",
          "name": "",
          "type": "bytes32"
        }
      ],
      "stateMutability": "view",
      "type": "function",
      "constant": true
    },
    {
      "inputs": [],
      "name": "MINTER_ROLE",
      "outputs": [
        {
          "internalType": "bytes32",
          "name": "",
          "type": "bytes32"
        }
      ],
      "stateMutability": "view",
      "type": "function",
      "constant": true
    },
    {
      "inputs": [],
      "name": "URI_SETTER_ROLE",
      "outputs": [
        {
          "internalType": "bytes32",
          "name": "",
          "type": "bytes32"
        }
      ],
      "stateMutability": "view",
      "type": "function",
      "constant": true
    },
    {
      "inputs": [
        {
          "internalType": "address",
          "name": "account",
          "type": "address"
        },
        {
          "internalType": "uint256",
          "name": "id",
          "type": "uint256"
        }
      ],
      "name": "balanceOf",
      "outputs": [
        {
          "internalType": "uint256",
          "name": "",
          "type": "uint256"
        }
      ],
      "stateMutability": "view",
      "type": "function",
      "constant": true
    },
    {
      "inputs": [
        {
          "internalType": "address[]",
          "name": "accounts",
          "type": "address[]"
        },
        {
          "internalType": "uint256[]",
          "name": "ids",
          "type": "uint256[]"
        }
      ],
      "name": "balanceOfBatch",
      "outputs": [
        {
          "internalType": "uint256[]",
          "name": "",
          "type": "uint256[]"
        }
      ],
      "stateMutability": "view",
      "type": "function",
      "constant": true
    },
    {
      "inputs": [
        {
          "internalType": "bytes32",
          "name": "role",
          "type": "bytes32"
        }
      ],
      "name": "getRoleAdmin",
      "outputs": [
        {
          "internalType": "bytes32",
          "name": "",
          "type": "bytes32"
        }
      ],
      "stateMutability": "view",
      "type": "function",
      "constant": true
    },
    {
      "inputs": [
        {
          "internalType": "bytes32",
          "name": "role",
          "type": "bytes32"
        },
        {
          "internalType": "address",
          "name": "account",
          "type": "address"
        }
      ],
      "name": "grantRole",
      "outputs": [],
      "stateMutability": "nonpayable",
      "type": "function"
    },
    {
      "inputs": [
        {
          "internalType": "bytes32",
          "name": "role",
          "type": "bytes32"
        },
        {
          "internalType": "address",
          "name": "account",
          "type": "address"
        }
      ],
      "name": "hasRole",
      "outputs": [
        {
          "internalType": "bool",
          "name": "",
          "type": "bool"
        }
      ],
      "stateMutability": "view",
      "type": "function",
      "constant": true
    },
    {
      "inputs": [
        {
          "internalType": "address",
          "name": "",
          "type": "address"
        }
      ],
      "name": "houseOfCoins",
      "outputs": [
        {
          "internalType": "address",
          "name": "",
          "type": "address"
        }
      ],
      "stateMutability": "view",
      "type": "function",
      "constant": true
    },
    {
      "inputs": [
        {
          "internalType": "uint256",
          "name": "",
          "type": "uint256"
        }
      ],
      "name": "houseOfReserves",
      "outputs": [
        {
          "internalType": "address",
          "name": "",
          "type": "address"
        }
      ],
      "stateMutability": "view",
      "type": "function",
      "constant": true
    },
    {
      "inputs": [
        {
          "internalType": "address",
          "name": "account",
          "type": "address"
        },
        {
          "internalType": "address",
          "name": "operator",
          "type": "address"
        }
      ],
      "name": "isApprovedForAll",
      "outputs": [
        {
          "internalType": "bool",
          "name": "",
          "type": "bool"
        }
      ],
      "stateMutability": "view",
      "type": "function",
      "constant": true
    },
    {
      "inputs": [
        {
          "internalType": "bytes32",
          "name": "role",
          "type": "bytes32"
        },
        {
          "internalType": "address",
          "name": "account",
          "type": "address"
        }
      ],
      "name": "renounceRole",
      "outputs": [],
      "stateMutability": "nonpayable",
      "type": "function"
    },
    {
      "inputs": [
        {
          "internalType": "address",
          "name": "",
          "type": "address"
        },
        {
          "internalType": "address",
          "name": "",
          "type": "address"
        }
      ],
      "name": "reservesIds",
      "outputs": [
        {
          "internalType": "uint256",
          "name": "",
          "type": "uint256"
        }
      ],
      "stateMutability": "view",
      "type": "function",
      "constant": true
    },
    {
      "inputs": [
        {
          "internalType": "bytes32",
          "name": "role",
          "type": "bytes32"
        },
        {
          "internalType": "address",
          "name": "account",
          "type": "address"
        }
      ],
      "name": "revokeRole",
      "outputs": [],
      "stateMutability": "nonpayable",
      "type": "function"
    },
    {
      "inputs": [
        {
          "internalType": "address",
          "name": "operator",
          "type": "address"
        },
        {
          "internalType": "bool",
          "name": "approved",
          "type": "bool"
        }
      ],
      "name": "setApprovalForAll",
      "outputs": [],
      "stateMutability": "nonpayable",
      "type": "function"
    },
    {
      "inputs": [
        {
          "internalType": "uint256",
          "name": "",
          "type": "uint256"
        }
      ],
      "name": "uri",
      "outputs": [
        {
          "internalType": "string",
          "name": "",
          "type": "string"
        }
      ],
      "stateMutability": "view",
      "type": "function",
      "constant": true
    },
    {
      "inputs": [
        {
          "internalType": "address",
          "name": "houseAddress",
          "type": "address"
        },
        {
          "internalType": "address",
          "name": "asset",
          "type": "address"
        }
      ],
      "name": "registerHouse",
      "outputs": [],
      "stateMutability": "nonpayable",
      "type": "function"
    },
    {
      "inputs": [],
      "name": "name",
      "outputs": [
        {
          "internalType": "string",
          "name": "",
          "type": "string"
        }
      ],
      "stateMutability": "pure",
      "type": "function",
      "constant": true
    },
    {
      "inputs": [
        {
          "internalType": "string",
          "name": "newuri",
          "type": "string"
        }
      ],
      "name": "setURI",
      "outputs": [],
      "stateMutability": "nonpayable",
      "type": "function"
    },
    {
      "inputs": [
        {
          "internalType": "address",
          "name": "account",
          "type": "address"
        },
        {
          "internalType": "uint256",
          "name": "id",
          "type": "uint256"
        },
        {
          "internalType": "uint256",
          "name": "amount",
          "type": "uint256"
        },
        {
          "internalType": "bytes",
          "name": "data",
          "type": "bytes"
        }
      ],
      "name": "mint",
      "outputs": [],
      "stateMutability": "nonpayable",
      "type": "function"
    },
    {
      "inputs": [
        {
          "internalType": "address",
          "name": "to",
          "type": "address"
        },
        {
          "internalType": "uint256[]",
          "name": "ids",
          "type": "uint256[]"
        },
        {
          "internalType": "uint256[]",
          "name": "amounts",
          "type": "uint256[]"
        },
        {
          "internalType": "bytes",
          "name": "data",
          "type": "bytes"
        }
      ],
      "name": "mintBatch",
      "outputs": [],
      "stateMutability": "nonpayable",
      "type": "function"
    },
    {
      "inputs": [
        {
          "internalType": "address",
          "name": "account",
          "type": "address"
        },
        {
          "internalType": "uint256",
          "name": "id",
          "type": "uint256"
        },
        {
          "internalType": "uint256",
          "name": "amount",
          "type": "uint256"
        }
      ],
      "name": "burn",
      "outputs": [],
      "stateMutability": "nonpayable",
      "type": "function"
    },
    {
      "inputs": [
        {
          "internalType": "address",
          "name": "account",
          "type": "address"
        },
        {
          "internalType": "uint256[]",
          "name": "ids",
          "type": "uint256[]"
        },
        {
          "internalType": "uint256[]",
          "name": "amounts",
          "type": "uint256[]"
        }
      ],
      "name": "burnBatch",
      "outputs": [],
      "stateMutability": "nonpayable",
      "type": "function"
    },
    {
      "inputs": [
        {
          "internalType": "address",
          "name": "from",
          "type": "address"
        },
        {
          "internalType": "address",
          "name": "to",
          "type": "address"
        },
        {
          "internalType": "uint256",
          "name": "id",
          "type": "uint256"
        },
        {
          "internalType": "uint256",
          "name": "amount",
          "type": "uint256"
        },
        {
          "internalType": "bytes",
          "name": "data",
          "type": "bytes"
        }
      ],
      "name": "safeTransferFrom",
      "outputs": [],
      "stateMutability": "pure",
      "type": "function",
      "constant": true
    },
    {
      "inputs": [
        {
          "internalType": "address",
          "name": "from",
          "type": "address"
        },
        {
          "internalType": "address",
          "name": "to",
          "type": "address"
        },
        {
          "internalType": "uint256[]",
          "name": "ids",
          "type": "uint256[]"
        },
        {
          "internalType": "uint256[]",
          "name": "amounts",
          "type": "uint256[]"
        },
        {
          "internalType": "bytes",
          "name": "data",
          "type": "bytes"
        }
      ],
      "name": "safeBatchTransferFrom",
      "outputs": [],
      "stateMutability": "pure",
      "type": "function",
      "constant": true
    },
    {
      "inputs": [
        {
          "internalType": "bytes4",
          "name": "interfaceId",
          "type": "bytes4"
        }
      ],
      "name": "supportsInterface",
      "outputs": [
        {
          "internalType": "bool",
          "name": "",
          "type": "bool"
        }
      ],
      "stateMutability": "view",
      "type": "function",
      "constant": true
    }
  ],
  "bytecode": "0x60806040523480156200001157600080fd5b506040518060400160405280601d81526020017f687474703a2f2f65666961742e776f726c642f746f6b656e2d6964732f00000081525062000059816200010b60201b60201c565b506200006f6000801b336200012760201b60201c565b620000a17f7804d923f43a17d325d77e781528e0793b2edd9890ab45fc64efd7b4b427744c336200012760201b60201c565b620000d37f9f2df0fed2c77648de5860a4cc508cd0818c85b8b8a1ab4ceeef8d981c8956a6336200012760201b60201c565b620001057f3c11d16cbaffd01df69ce1c404f6340ee057498f5f00246190ea54220576a848336200012760201b60201c565b620003b7565b806002908051906020019062000123929190620002a2565b5050565b6200013982826200013d60201b60201c565b5050565b6200014f82826200022f60201b60201c565b6200022b5760016003600084815260200190815260200160002060000160008373ffffffffffffffffffffffffffffffffffffffff1673ffffffffffffffffffffffffffffffffffffffff16815260200190815260200160002060006101000a81548160ff021916908315150217905550620001d06200029a60201b60201c565b73ffffffffffffffffffffffffffffffffffffffff168173ffffffffffffffffffffffffffffffffffffffff16837f2f8788117e7eff1d82e926ec794901d17c78024a50270940304540a733656f0d60405160405180910390a45b5050565b60006003600084815260200190815260200160002060000160008373ffffffffffffffffffffffffffffffffffffffff1673ffffffffffffffffffffffffffffffffffffffff16815260200190815260200160002060009054906101000a900460ff16905092915050565b600033905090565b828054620002b09062000352565b90600052602060002090601f016020900481019282620002d4576000855562000320565b82601f10620002ef57805160ff191683800117855562000320565b8280016001018555821562000320579182015b828111156200031f57825182559160200191906001019062000302565b5b5090506200032f919062000333565b5090565b5b808211156200034e57600081600090555060010162000334565b5090565b600060028204905060018216806200036b57607f821691505b6020821081141562000382576200038162000388565b5b50919050565b7f4e487b7100000000000000000000000000000000000000000000000000000000600052602260045260246000fd5b614c3580620003c76000396000f3fe608060405234801561001057600080fd5b50600436106101a85760003560e01c80636b20c454116100f9578063a77a2c8011610097578063e985e9c511610071578063e985e9c5146104ef578063f242432a1461051f578063f5298aca1461053b578063f6f9b54914610557576101a8565b8063a77a2c8014610485578063d5391393146104b5578063d547741f146104d3576101a8565b806391d14854116100d357806391d14854146103eb578063a0d31bf61461041b578063a217fddf1461044b578063a22cb46514610469576101a8565b80636b20c45414610395578063731133e9146103b15780637f345710146103cd576101a8565b80631f7fdffa116101665780632eb2c2d6116101405780632eb2c2d6146103115780632f2ff15d1461032d57806336568abe146103495780634e1273f414610365576101a8565b80631f7fdffa146102a7578063248a9ca3146102c3578063282c51f3146102f3576101a8565b8062fdd58e146101ad57806301ffc9a7146101dd57806302fe53051461020d57806306fdde031461022957806308b49517146102475780630e89341c14610277575b600080fd5b6101c760048036038101906101c2919061363b565b610573565b6040516101d49190614148565b60405180910390f35b6101f760048036038101906101f2919061383b565b61063c565b6040516102049190613eb0565b60405180910390f35b6102276004803603810190610222919061388d565b61064e565b005b61023161068d565b60405161023e9190613ee6565b60405180910390f35b610261600480360381019061025c91906138ce565b6106ca565b60405161026e9190613d7a565b60405180910390f35b610291600480360381019061028c91906138ce565b6106fd565b60405161029e9190613ee6565b60405180910390f35b6102c160048036038101906102bc9190613554565b610791565b005b6102dd60048036038101906102d891906137ad565b6107d6565b6040516102ea9190613ecb565b60405180910390f35b6102fb6107f6565b6040516103089190613ecb565b60405180910390f35b61032b60048036038101906103269190613377565b61081a565b005b610347600480360381019061034291906137ff565b610855565b005b610363600480360381019061035e91906137ff565b61087e565b005b61037f600480360381019061037a9190613741565b610901565b60405161038c9190613e57565b60405180910390f35b6103af60048036038101906103aa91906134d5565b610ab2565b005b6103cb60048036038101906103c691906136c6565b610af5565b005b6103d5610b3a565b6040516103e29190613ecb565b60405180910390f35b610405600480360381019061040091906137ff565b610b5e565b6040516104129190613eb0565b60405180910390f35b6104356004803603810190610430919061333b565b610bc9565b6040516104429190614148565b60405180910390f35b610453610bee565b6040516104609190613ecb565b60405180910390f35b610483600480360381019061047e91906135ff565b610bf5565b005b61049f600480360381019061049a91906132e9565b610d76565b6040516104ac9190613d7a565b60405180910390f35b6104bd610da9565b6040516104ca9190613ecb565b60405180910390f35b6104ed60048036038101906104e891906137ff565b610dcd565b005b6105096004803603810190610504919061333b565b610df6565b6040516105169190613eb0565b60405180910390f35b61053960048036038101906105349190613443565b610e8a565b005b61055560048036038101906105509190613677565b610ec5565b005b610571600480360381019061056c919061333b565b610f08565b005b60008073ffffffffffffffffffffffffffffffffffffffff168373ffffffffffffffffffffffffffffffffffffffff1614156105e4576040517f08c379a00000000000000000000000000000000000000000000000000000000081526004016105db90613f68565b60405180910390fd5b60008083815260200190815260200160002060008473ffffffffffffffffffffffffffffffffffffffff1673ffffffffffffffffffffffffffffffffffffffff16815260200190815260200160002054905092915050565b6000610647826119e0565b9050919050565b7f7804d923f43a17d325d77e781528e0793b2edd9890ab45fc64efd7b4b427744c6106808161067b611a5a565b611a62565b61068982611aff565b5050565b60606040518060400160405280601581526020017f65464941542041737365744163636f756e74616e740000000000000000000000815250905090565b60046020528060005260406000206000915054906101000a900473ffffffffffffffffffffffffffffffffffffffff1681565b60606002805461070c90614481565b80601f016020809104026020016040519081016040528092919081815260200182805461073890614481565b80156107855780601f1061075a57610100808354040283529160200191610785565b820191906000526020600020905b81548152906001019060200180831161076857829003601f168201915b50505050509050919050565b7f9f2df0fed2c77648de5860a4cc508cd0818c85b8b8a1ab4ceeef8d981c8956a66107c3816107be611a5a565b611a62565b6107cf85858585611b19565b5050505050565b600060036000838152602001908152602001600020600101549050919050565b7f3c11d16cbaffd01df69ce1c404f6340ee057498f5f00246190ea54220576a84881565b6040517f08c379a000000000000000000000000000000000000000000000000000000000815260040161084c90613fa8565b60405180910390fd5b61085e826107d6565b61086f8161086a611a5a565b611a62565b6108798383611d83565b505050565b610886611a5a565b73ffffffffffffffffffffffffffffffffffffffff168173ffffffffffffffffffffffffffffffffffffffff16146108f3576040517f08c379a00000000000000000000000000000000000000000000000000000000081526004016108ea90614128565b60405180910390fd5b6108fd8282611e64565b5050565b60608151835114610947576040517f08c379a000000000000000000000000000000000000000000000000000000000815260040161093e906140a8565b60405180910390fd5b6000835167ffffffffffffffff81111561098a577f4e487b7100000000000000000000000000000000000000000000000000000000600052604160045260246000fd5b6040519080825280602002602001820160405280156109b85781602001602082028036833780820191505090505b50905060005b8451811015610aa757610a51858281518110610a03577f4e487b7100000000000000000000000000000000000000000000000000000000600052603260045260246000fd5b6020026020010151858381518110610a44577f4e487b7100000000000000000000000000000000000000000000000000000000600052603260045260246000fd5b6020026020010151610573565b828281518110610a8a577f4e487b7100000000000000000000000000000000000000000000000000000000600052603260045260246000fd5b60200260200101818152505080610aa0906144e4565b90506109be565b508091505092915050565b7f3c11d16cbaffd01df69ce1c404f6340ee057498f5f00246190ea54220576a848610ae481610adf611a5a565b611a62565b610aef848484611f46565b50505050565b7f9f2df0fed2c77648de5860a4cc508cd0818c85b8b8a1ab4ceeef8d981c8956a6610b2781610b22611a5a565b611a62565b610b3385858585612243565b5050505050565b7f7804d923f43a17d325d77e781528e0793b2edd9890ab45fc64efd7b4b427744c81565b60006003600084815260200190815260200160002060000160008373ffffffffffffffffffffffffffffffffffffffff1673ffffffffffffffffffffffffffffffffffffffff16815260200190815260200160002060009054906101000a900460ff16905092915050565b6005602052816000526040600020602052806000526040600020600091509150505481565b6000801b81565b8173ffffffffffffffffffffffffffffffffffffffff16610c14611a5a565b73ffffffffffffffffffffffffffffffffffffffff161415610c6b576040517f08c379a0000000000000000000000000000000000000000000000000000000008152600401610c6290614088565b60405180910390fd5b8060016000610c78611a5a565b73ffffffffffffffffffffffffffffffffffffffff1673ffffffffffffffffffffffffffffffffffffffff16815260200190815260200160002060008473ffffffffffffffffffffffffffffffffffffffff1673ffffffffffffffffffffffffffffffffffffffff16815260200190815260200160002060006101000a81548160ff0219169083151502179055508173ffffffffffffffffffffffffffffffffffffffff16610d25611a5a565b73ffffffffffffffffffffffffffffffffffffffff167f17307eab39ab6107e8899845ad3d59bd9653f200f220920489ca2b5937696c3183604051610d6a9190613eb0565b60405180910390a35050565b60066020528060005260406000206000915054906101000a900473ffffffffffffffffffffffffffffffffffffffff1681565b7f9f2df0fed2c77648de5860a4cc508cd0818c85b8b8a1ab4ceeef8d981c8956a681565b610dd6826107d6565b610de781610de2611a5a565b611a62565b610df18383611e64565b505050565b6000600160008473ffffffffffffffffffffffffffffffffffffffff1673ffffffffffffffffffffffffffffffffffffffff16815260200190815260200160002060008373ffffffffffffffffffffffffffffffffffffffff1673ffffffffffffffffffffffffffffffffffffffff16815260200190815260200160002060009054906101000a900460ff16905092915050565b6040517f08c379a0000000000000000000000000000000000000000000000000000000008152600401610ebc90613fa8565b60405180910390fd5b7f3c11d16cbaffd01df69ce1c404f6340ee057498f5f00246190ea54220576a848610ef781610ef2611a5a565b611a62565b610f028484846123d9565b50505050565b6000801b610f1d81610f18611a5a565b611a62565b600760008473ffffffffffffffffffffffffffffffffffffffff1673ffffffffffffffffffffffffffffffffffffffff16815260200190815260200160002060009054906101000a900460ff1615610faa576040517f08c379a0000000000000000000000000000000000000000000000000000000008152600401610fa190613fe8565b60405180910390fd5b7f9b79543f18cc25b898fc91fdd01b1c5ceb8646ecccfabdf25ea8858b797a1bc38373ffffffffffffffffffffffffffffffffffffffff166320a2fe2c6040518163ffffffff1660e01b8152600401602060405180830381600087803b15801561101357600080fd5b505af1158015611027573d6000803e3d6000fd5b505050506040513d601f19601f8201168201806040525081019061104b91906137d6565b141561153c57600083905060008173ffffffffffffffffffffffffffffffffffffffff16638f429cd06040518163ffffffff1660e01b815260040160206040518083038186803b15801561109e57600080fd5b505afa1580156110b2573d6000803e3d6000fd5b505050506040513d601f19601f820116820180604052508101906110d691906138f7565b905060008273ffffffffffffffffffffffffffffffffffffffff1663a52e7d706040518163ffffffff1660e01b815260040160206040518083038186803b15801561112057600080fd5b505afa158015611134573d6000803e3d6000fd5b505050506040513d601f19601f820116820180604052508101906111589190613312565b9050600073ffffffffffffffffffffffffffffffffffffffff166004600084815260200190815260200160002060009054906101000a900473ffffffffffffffffffffffffffffffffffffffff1673ffffffffffffffffffffffffffffffffffffffff16146111fc576040517f08c379a00000000000000000000000000000000000000000000000000000000081526004016111f390614068565b60405180910390fd5b8473ffffffffffffffffffffffffffffffffffffffff168373ffffffffffffffffffffffffffffffffffffffff1663f85cb5c86040518163ffffffff1660e01b815260040160206040518083038186803b15801561125957600080fd5b505afa15801561126d573d6000803e3d6000fd5b505050506040513d601f19601f820116820180604052508101906112919190613312565b73ffffffffffffffffffffffffffffffffffffffff16146112e7576040517f08c379a00000000000000000000000000000000000000000000000000000000081526004016112de90614028565b60405180910390fd5b856004600084815260200190815260200160002060006101000a81548173ffffffffffffffffffffffffffffffffffffffff021916908373ffffffffffffffffffffffffffffffffffffffff1602179055506001600760008873ffffffffffffffffffffffffffffffffffffffff1673ffffffffffffffffffffffffffffffffffffffff16815260200190815260200160002060006101000a81548160ff02191690831515021790555081600560008773ffffffffffffffffffffffffffffffffffffffff1673ffffffffffffffffffffffffffffffffffffffff16815260200190815260200160002060008373ffffffffffffffffffffffffffffffffffffffff1673ffffffffffffffffffffffffffffffffffffffff1681526020019081526020016000208190555061143c7f9f2df0fed2c77648de5860a4cc508cd0818c85b8b8a1ab4ceeef8d981c8956a6876125f6565b6114667f3c11d16cbaffd01df69ce1c404f6340ee057498f5f00246190ea54220576a848876125f6565b8473ffffffffffffffffffffffffffffffffffffffff168373ffffffffffffffffffffffffffffffffffffffff166320a2fe2c6040518163ffffffff1660e01b8152600401602060405180830381600087803b1580156114c557600080fd5b505af11580156114d9573d6000803e3d6000fd5b505050506040513d601f19601f820116820180604052508101906114fd91906137d6565b7f990662691791c613a202c565d44a43168958d670ea815bc0f1df48a500fd98e78860405161152c9190613d7a565b60405180910390a35050506119db565b7f0e8d57385c93a5e38777996badb732bccd842bb4d3c5896e296a53db92c724d38373ffffffffffffffffffffffffffffffffffffffff166320a2fe2c6040518163ffffffff1660e01b8152600401602060405180830381600087803b1580156115a557600080fd5b505af11580156115b9573d6000803e3d6000fd5b505050506040513d601f19601f820116820180604052508101906115dd91906137d6565b141561199f576000839050600073ffffffffffffffffffffffffffffffffffffffff16600660008573ffffffffffffffffffffffffffffffffffffffff1673ffffffffffffffffffffffffffffffffffffffff16815260200190815260200160002060009054906101000a900473ffffffffffffffffffffffffffffffffffffffff1673ffffffffffffffffffffffffffffffffffffffff16146116b6576040517f08c379a00000000000000000000000000000000000000000000000000000000081526004016116ad90614048565b60405180910390fd5b8273ffffffffffffffffffffffffffffffffffffffff168173ffffffffffffffffffffffffffffffffffffffff1663a52e7d706040518163ffffffff1660e01b815260040160206040518083038186803b15801561171357600080fd5b505afa158015611727573d6000803e3d6000fd5b505050506040513d601f19601f8201168201806040525081019061174b9190613312565b73ffffffffffffffffffffffffffffffffffffffff16146117a1576040517f08c379a000000000000000000000000000000000000000000000000000000000815260040161179890613fc8565b60405180910390fd5b83600660008573ffffffffffffffffffffffffffffffffffffffff1673ffffffffffffffffffffffffffffffffffffffff16815260200190815260200160002060006101000a81548173ffffffffffffffffffffffffffffffffffffffff021916908373ffffffffffffffffffffffffffffffffffffffff1602179055506001600760008673ffffffffffffffffffffffffffffffffffffffff1673ffffffffffffffffffffffffffffffffffffffff16815260200190815260200160002060006101000a81548160ff0219169083151502179055506118a17f9f2df0fed2c77648de5860a4cc508cd0818c85b8b8a1ab4ceeef8d981c8956a6856125f6565b6118cb7f3c11d16cbaffd01df69ce1c404f6340ee057498f5f00246190ea54220576a848856125f6565b8273ffffffffffffffffffffffffffffffffffffffff168173ffffffffffffffffffffffffffffffffffffffff166320a2fe2c6040518163ffffffff1660e01b8152600401602060405180830381600087803b15801561192a57600080fd5b505af115801561193e573d6000803e3d6000fd5b505050506040513d601f19601f8201168201806040525081019061196291906137d6565b7f990662691791c613a202c565d44a43168958d670ea815bc0f1df48a500fd98e7866040516119919190613d7a565b60405180910390a3506119da565b6040517f08c379a00000000000000000000000000000000000000000000000000000000081526004016119d1906140c8565b60405180910390fd5b5b505050565b60007f7965db0b000000000000000000000000000000000000000000000000000000007bffffffffffffffffffffffffffffffffffffffffffffffffffffffff1916827bffffffffffffffffffffffffffffffffffffffffffffffffffffffff19161480611a535750611a5282612604565b5b9050919050565b600033905090565b611a6c8282610b5e565b611afb57611a918173ffffffffffffffffffffffffffffffffffffffff1660146126e6565b611a9f8360001c60206126e6565b604051602001611ab0929190613d40565b6040516020818303038152906040526040517f08c379a0000000000000000000000000000000000000000000000000000000008152600401611af29190613ee6565b60405180910390fd5b5050565b8060029080519060200190611b15929190612ef9565b5050565b600073ffffffffffffffffffffffffffffffffffffffff168473ffffffffffffffffffffffffffffffffffffffff161415611b89576040517f08c379a0000000000000000000000000000000000000000000000000000000008152600401611b8090614108565b60405180910390fd5b8151835114611bcd576040517f08c379a0000000000000000000000000000000000000000000000000000000008152600401611bc4906140e8565b60405180910390fd5b6000611bd7611a5a565b9050611be8816000878787876129e0565b60005b8451811015611ced57838181518110611c2d577f4e487b7100000000000000000000000000000000000000000000000000000000600052603260045260246000fd5b6020026020010151600080878481518110611c71577f4e487b7100000000000000000000000000000000000000000000000000000000600052603260045260246000fd5b6020026020010151815260200190815260200160002060008873ffffffffffffffffffffffffffffffffffffffff1673ffffffffffffffffffffffffffffffffffffffff1681526020019081526020016000206000828254611cd391906142e7565b925050819055508080611ce5906144e4565b915050611beb565b508473ffffffffffffffffffffffffffffffffffffffff16600073ffffffffffffffffffffffffffffffffffffffff168273ffffffffffffffffffffffffffffffffffffffff167f4a39dc06d4c0dbc64b70af90fd698a233a518aa5d07e595d983b8c0526c8f7fb8787604051611d65929190613e79565b60405180910390a4611d7c816000878787876129e8565b5050505050565b611d8d8282610b5e565b611e605760016003600084815260200190815260200160002060000160008373ffffffffffffffffffffffffffffffffffffffff1673ffffffffffffffffffffffffffffffffffffffff16815260200190815260200160002060006101000a81548160ff021916908315150217905550611e05611a5a565b73ffffffffffffffffffffffffffffffffffffffff168173ffffffffffffffffffffffffffffffffffffffff16837f2f8788117e7eff1d82e926ec794901d17c78024a50270940304540a733656f0d60405160405180910390a45b5050565b611e6e8282610b5e565b15611f425760006003600084815260200190815260200160002060000160008373ffffffffffffffffffffffffffffffffffffffff1673ffffffffffffffffffffffffffffffffffffffff16815260200190815260200160002060006101000a81548160ff021916908315150217905550611ee7611a5a565b73ffffffffffffffffffffffffffffffffffffffff168173ffffffffffffffffffffffffffffffffffffffff16837ff6391f5c32d9c69d2a47ea670b442974b53935d1edc7fd64eb21e047a839171b60405160405180910390a45b5050565b600073ffffffffffffffffffffffffffffffffffffffff168373ffffffffffffffffffffffffffffffffffffffff161415611fb6576040517f08c379a0000000000000000000000000000000000000000000000000000000008152600401611fad90614008565b60405180910390fd5b8051825114611ffa576040517f08c379a0000000000000000000000000000000000000000000000000000000008152600401611ff1906140e8565b60405180910390fd5b6000612004611a5a565b9050612024818560008686604051806020016040528060008152506129e0565b60005b83518110156121bd57600084828151811061206b577f4e487b7100000000000000000000000000000000000000000000000000000000600052603260045260246000fd5b6020026020010151905060008483815181106120b0577f4e487b7100000000000000000000000000000000000000000000000000000000600052603260045260246000fd5b60200260200101519050600080600084815260200190815260200160002060008973ffffffffffffffffffffffffffffffffffffffff1673ffffffffffffffffffffffffffffffffffffffff16815260200190815260200160002054905081811015612151576040517f08c379a000000000000000000000000000000000000000000000000000000000815260040161214890613f88565b60405180910390fd5b81810360008085815260200190815260200160002060008a73ffffffffffffffffffffffffffffffffffffffff1673ffffffffffffffffffffffffffffffffffffffff1681526020019081526020016000208190555050505080806121b5906144e4565b915050612027565b50600073ffffffffffffffffffffffffffffffffffffffff168473ffffffffffffffffffffffffffffffffffffffff168273ffffffffffffffffffffffffffffffffffffffff167f4a39dc06d4c0dbc64b70af90fd698a233a518aa5d07e595d983b8c0526c8f7fb8686604051612235929190613e79565b60405180910390a450505050565b600073ffffffffffffffffffffffffffffffffffffffff168473ffffffffffffffffffffffffffffffffffffffff1614156122b3576040517f08c379a00000000000000000000000000000000000000000000000000000000081526004016122aa90614108565b60405180910390fd5b60006122bd611a5a565b90506122de816000876122cf88612bcf565b6122d888612bcf565b876129e0565b8260008086815260200190815260200160002060008773ffffffffffffffffffffffffffffffffffffffff1673ffffffffffffffffffffffffffffffffffffffff168152602001908152602001600020600082825461233d91906142e7565b925050819055508473ffffffffffffffffffffffffffffffffffffffff16600073ffffffffffffffffffffffffffffffffffffffff168273ffffffffffffffffffffffffffffffffffffffff167fc3d58168c5ae7397731d063d5bbf3d657854427343f4c083240f7aacaa2d0f6287876040516123bb929190614163565b60405180910390a46123d281600087878787612c95565b5050505050565b600073ffffffffffffffffffffffffffffffffffffffff168373ffffffffffffffffffffffffffffffffffffffff161415612449576040517f08c379a000000000000000000000000000000000000000000000000000000000815260040161244090614008565b60405180910390fd5b6000612453611a5a565b90506124838185600061246587612bcf565b61246e87612bcf565b604051806020016040528060008152506129e0565b600080600085815260200190815260200160002060008673ffffffffffffffffffffffffffffffffffffffff1673ffffffffffffffffffffffffffffffffffffffff1681526020019081526020016000205490508281101561251a576040517f08c379a000000000000000000000000000000000000000000000000000000000815260040161251190613f88565b60405180910390fd5b82810360008086815260200190815260200160002060008773ffffffffffffffffffffffffffffffffffffffff1673ffffffffffffffffffffffffffffffffffffffff16815260200190815260200160002081905550600073ffffffffffffffffffffffffffffffffffffffff168573ffffffffffffffffffffffffffffffffffffffff168373ffffffffffffffffffffffffffffffffffffffff167fc3d58168c5ae7397731d063d5bbf3d657854427343f4c083240f7aacaa2d0f6287876040516125e7929190614163565b60405180910390a45050505050565b6126008282611d83565b5050565b60007fd9b67a26000000000000000000000000000000000000000000000000000000007bffffffffffffffffffffffffffffffffffffffffffffffffffffffff1916827bffffffffffffffffffffffffffffffffffffffffffffffffffffffff191614806126cf57507f0e89341c000000000000000000000000000000000000000000000000000000007bffffffffffffffffffffffffffffffffffffffffffffffffffffffff1916827bffffffffffffffffffffffffffffffffffffffffffffffffffffffff1916145b806126df57506126de82612e7c565b5b9050919050565b6060600060028360026126f9919061433d565b61270391906142e7565b67ffffffffffffffff811115612742577f4e487b7100000000000000000000000000000000000000000000000000000000600052604160045260246000fd5b6040519080825280601f01601f1916602001820160405280156127745781602001600182028036833780820191505090505b5090507f3000000000000000000000000000000000000000000000000000000000000000816000815181106127d2577f4e487b7100000000000000000000000000000000000000000000000000000000600052603260045260246000fd5b60200101907effffffffffffffffffffffffffffffffffffffffffffffffffffffffffffff1916908160001a9053507f78000000000000000000000000000000000000000000000000000000000000008160018151811061285c577f4e487b7100000000000000000000000000000000000000000000000000000000600052603260045260246000fd5b60200101907effffffffffffffffffffffffffffffffffffffffffffffffffffffffffffff1916908160001a9053506000600184600261289c919061433d565b6128a691906142e7565b90505b6001811115612992577f3031323334353637383961626364656600000000000000000000000000000000600f86166010811061290e577f4e487b7100000000000000000000000000000000000000000000000000000000600052603260045260246000fd5b1a60f81b82828151811061294b577f4e487b7100000000000000000000000000000000000000000000000000000000600052603260045260246000fd5b60200101907effffffffffffffffffffffffffffffffffffffffffffffffffffffffffffff1916908160001a905350600485901c94508061298b90614457565b90506128a9565b50600084146129d6576040517f08c379a00000000000000000000000000000000000000000000000000000000081526004016129cd90613f28565b60405180910390fd5b8091505092915050565b505050505050565b612a078473ffffffffffffffffffffffffffffffffffffffff16612ee6565b15612bc7578373ffffffffffffffffffffffffffffffffffffffff1663bc197c8187878686866040518663ffffffff1660e01b8152600401612a4d959493929190613d95565b602060405180830381600087803b158015612a6757600080fd5b505af1925050508015612a9857506040513d601f19601f82011682018060405250810190612a959190613864565b60015b612b3e57612aa46145ba565b806308c379a01415612b015750612ab9614af6565b80612ac45750612b03565b806040517f08c379a0000000000000000000000000000000000000000000000000000000008152600401612af89190613ee6565b60405180910390fd5b505b6040517f08c379a0000000000000000000000000000000000000000000000000000000008152600401612b3590613f08565b60405180910390fd5b63bc197c8160e01b7bffffffffffffffffffffffffffffffffffffffffffffffffffffffff1916817bffffffffffffffffffffffffffffffffffffffffffffffffffffffff191614612bc5576040517f08c379a0000000000000000000000000000000000000000000000000000000008152600401612bbc90613f48565b60405180910390fd5b505b505050505050565b60606000600167ffffffffffffffff811115612c14577f4e487b7100000000000000000000000000000000000000000000000000000000600052604160045260246000fd5b604051908082528060200260200182016040528015612c425781602001602082028036833780820191505090505b5090508281600081518110612c80577f4e487b7100000000000000000000000000000000000000000000000000000000600052603260045260246000fd5b60200260200101818152505080915050919050565b612cb48473ffffffffffffffffffffffffffffffffffffffff16612ee6565b15612e74578373ffffffffffffffffffffffffffffffffffffffff1663f23a6e6187878686866040518663ffffffff1660e01b8152600401612cfa959493929190613dfd565b602060405180830381600087803b158015612d1457600080fd5b505af1925050508015612d4557506040513d601f19601f82011682018060405250810190612d429190613864565b60015b612deb57612d516145ba565b806308c379a01415612dae5750612d66614af6565b80612d715750612db0565b806040517f08c379a0000000000000000000000000000000000000000000000000000000008152600401612da59190613ee6565b60405180910390fd5b505b6040517f08c379a0000000000000000000000000000000000000000000000000000000008152600401612de290613f08565b60405180910390fd5b63f23a6e6160e01b7bffffffffffffffffffffffffffffffffffffffffffffffffffffffff1916817bffffffffffffffffffffffffffffffffffffffffffffffffffffffff191614612e72576040517f08c379a0000000000000000000000000000000000000000000000000000000008152600401612e6990613f48565b60405180910390fd5b505b505050505050565b60007f01ffc9a7000000000000000000000000000000000000000000000000000000007bffffffffffffffffffffffffffffffffffffffffffffffffffffffff1916827bffffffffffffffffffffffffffffffffffffffffffffffffffffffff1916149050919050565b600080823b905060008111915050919050565b828054612f0590614481565b90600052602060002090601f016020900481019282612f275760008555612f6e565b82601f10612f4057805160ff1916838001178555612f6e565b82800160010185558215612f6e579182015b82811115612f6d578251825591602001919060010190612f52565b5b509050612f7b9190612f7f565b5090565b5b80821115612f98576000816000905550600101612f80565b5090565b6000612faf612faa846141b1565b61418c565b90508083825260208201905082856020860282011115612fce57600080fd5b60005b85811015612ffe5781612fe488826130f0565b845260208401935060208301925050600181019050612fd1565b5050509392505050565b600061301b613016846141dd565b61418c565b9050808382526020820190508285602086028201111561303a57600080fd5b60005b8581101561306a578161305088826132bf565b84526020840193506020830192505060018101905061303d565b5050509392505050565b600061308761308284614209565b61418c565b90508281526020810184848401111561309f57600080fd5b6130aa848285614415565b509392505050565b60006130c56130c08461423a565b61418c565b9050828152602081018484840111156130dd57600080fd5b6130e8848285614415565b509392505050565b6000813590506130ff81614b8c565b92915050565b60008151905061311481614b8c565b92915050565b600082601f83011261312b57600080fd5b813561313b848260208601612f9c565b91505092915050565b60008083601f84011261315657600080fd5b8235905067ffffffffffffffff81111561316f57600080fd5b60208301915083602082028301111561318757600080fd5b9250929050565b600082601f83011261319f57600080fd5b81356131af848260208601613008565b91505092915050565b6000813590506131c781614ba3565b92915050565b6000813590506131dc81614bba565b92915050565b6000815190506131f181614bba565b92915050565b60008135905061320681614bd1565b92915050565b60008151905061321b81614bd1565b92915050565b60008083601f84011261323357600080fd5b8235905067ffffffffffffffff81111561324c57600080fd5b60208301915083600182028301111561326457600080fd5b9250929050565b600082601f83011261327c57600080fd5b813561328c848260208601613074565b91505092915050565b600082601f8301126132a657600080fd5b81356132b68482602086016130b2565b91505092915050565b6000813590506132ce81614be8565b92915050565b6000815190506132e381614be8565b92915050565b6000602082840312156132fb57600080fd5b6000613309848285016130f0565b91505092915050565b60006020828403121561332457600080fd5b600061333284828501613105565b91505092915050565b6000806040838503121561334e57600080fd5b600061335c858286016130f0565b925050602061336d858286016130f0565b9150509250929050565b60008060008060008060008060a0898b03121561339357600080fd5b60006133a18b828c016130f0565b98505060206133b28b828c016130f0565b975050604089013567ffffffffffffffff8111156133cf57600080fd5b6133db8b828c01613144565b9650965050606089013567ffffffffffffffff8111156133fa57600080fd5b6134068b828c01613144565b9450945050608089013567ffffffffffffffff81111561342557600080fd5b6134318b828c01613221565b92509250509295985092959890939650565b60008060008060008060a0878903121561345c57600080fd5b600061346a89828a016130f0565b965050602061347b89828a016130f0565b955050604061348c89828a016132bf565b945050606061349d89828a016132bf565b935050608087013567ffffffffffffffff8111156134ba57600080fd5b6134c689828a01613221565b92509250509295509295509295565b6000806000606084860312156134ea57600080fd5b60006134f8868287016130f0565b935050602084013567ffffffffffffffff81111561351557600080fd5b6135218682870161318e565b925050604084013567ffffffffffffffff81111561353e57600080fd5b61354a8682870161318e565b9150509250925092565b6000806000806080858703121561356a57600080fd5b6000613578878288016130f0565b945050602085013567ffffffffffffffff81111561359557600080fd5b6135a18782880161318e565b935050604085013567ffffffffffffffff8111156135be57600080fd5b6135ca8782880161318e565b925050606085013567ffffffffffffffff8111156135e757600080fd5b6135f38782880161326b565b91505092959194509250565b6000806040838503121561361257600080fd5b6000613620858286016130f0565b9250506020613631858286016131b8565b9150509250929050565b6000806040838503121561364e57600080fd5b600061365c858286016130f0565b925050602061366d858286016132bf565b9150509250929050565b60008060006060848603121561368c57600080fd5b600061369a868287016130f0565b93505060206136ab868287016132bf565b92505060406136bc868287016132bf565b9150509250925092565b600080600080608085870312156136dc57600080fd5b60006136ea878288016130f0565b94505060206136fb878288016132bf565b935050604061370c878288016132bf565b925050606085013567ffffffffffffffff81111561372957600080fd5b6137358782880161326b565b91505092959194509250565b6000806040838503121561375457600080fd5b600083013567ffffffffffffffff81111561376e57600080fd5b61377a8582860161311a565b925050602083013567ffffffffffffffff81111561379757600080fd5b6137a38582860161318e565b9150509250929050565b6000602082840312156137bf57600080fd5b60006137cd848285016131cd565b91505092915050565b6000602082840312156137e857600080fd5b60006137f6848285016131e2565b91505092915050565b6000806040838503121561381257600080fd5b6000613820858286016131cd565b9250506020613831858286016130f0565b9150509250929050565b60006020828403121561384d57600080fd5b600061385b848285016131f7565b91505092915050565b60006020828403121561387657600080fd5b60006138848482850161320c565b91505092915050565b60006020828403121561389f57600080fd5b600082013567ffffffffffffffff8111156138b957600080fd5b6138c584828501613295565b91505092915050565b6000602082840312156138e057600080fd5b60006138ee848285016132bf565b91505092915050565b60006020828403121561390957600080fd5b6000613917848285016132d4565b91505092915050565b600061392c8383613d22565b60208301905092915050565b61394181614397565b82525050565b60006139528261427b565b61395c81856142a9565b93506139678361426b565b8060005b8381101561399857815161397f8882613920565b975061398a8361429c565b92505060018101905061396b565b5085935050505092915050565b6139ae816143a9565b82525050565b6139bd816143b5565b82525050565b60006139ce82614286565b6139d881856142ba565b93506139e8818560208601614424565b6139f1816145dc565b840191505092915050565b6000613a0782614291565b613a1181856142cb565b9350613a21818560208601614424565b613a2a816145dc565b840191505092915050565b6000613a4082614291565b613a4a81856142dc565b9350613a5a818560208601614424565b80840191505092915050565b6000613a736034836142cb565b9150613a7e826145fa565b604082019050919050565b6000613a966020836142cb565b9150613aa182614649565b602082019050919050565b6000613ab96028836142cb565b9150613ac482614672565b604082019050919050565b6000613adc602b836142cb565b9150613ae7826146c1565b604082019050919050565b6000613aff6024836142cb565b9150613b0a82614710565b604082019050919050565b6000613b226011836142cb565b9150613b2d8261475f565b602082019050919050565b6000613b456038836142cb565b9150613b5082614788565b604082019050919050565b6000613b686019836142cb565b9150613b73826147d7565b602082019050919050565b6000613b8b6023836142cb565b9150613b9682614800565b604082019050919050565b6000613bae6039836142cb565b9150613bb98261484f565b604082019050919050565b6000613bd1601f836142cb565b9150613bdc8261489e565b602082019050919050565b6000613bf46017836142dc565b9150613bff826148c7565b601782019050919050565b6000613c176020836142cb565b9150613c22826148f0565b602082019050919050565b6000613c3a6029836142cb565b9150613c4582614919565b604082019050919050565b6000613c5d6029836142cb565b9150613c6882614968565b604082019050919050565b6000613c80601b836142cb565b9150613c8b826149b7565b602082019050919050565b6000613ca36028836142cb565b9150613cae826149e0565b604082019050919050565b6000613cc66021836142cb565b9150613cd182614a2f565b604082019050919050565b6000613ce96011836142dc565b9150613cf482614a7e565b601182019050919050565b6000613d0c602f836142cb565b9150613d1782614aa7565b604082019050919050565b613d2b8161440b565b82525050565b613d3a8161440b565b82525050565b6000613d4b82613be7565b9150613d578285613a35565b9150613d6282613cdc565b9150613d6e8284613a35565b91508190509392505050565b6000602082019050613d8f6000830184613938565b92915050565b600060a082019050613daa6000830188613938565b613db76020830187613938565b8181036040830152613dc98186613947565b90508181036060830152613ddd8185613947565b90508181036080830152613df181846139c3565b90509695505050505050565b600060a082019050613e126000830188613938565b613e1f6020830187613938565b613e2c6040830186613d31565b613e396060830185613d31565b8181036080830152613e4b81846139c3565b90509695505050505050565b60006020820190508181036000830152613e718184613947565b905092915050565b60006040820190508181036000830152613e938185613947565b90508181036020830152613ea78184613947565b90509392505050565b6000602082019050613ec560008301846139a5565b92915050565b6000602082019050613ee060008301846139b4565b92915050565b60006020820190508181036000830152613f0081846139fc565b905092915050565b60006020820190508181036000830152613f2181613a66565b9050919050565b60006020820190508181036000830152613f4181613a89565b9050919050565b60006020820190508181036000830152613f6181613aac565b9050919050565b60006020820190508181036000830152613f8181613acf565b9050919050565b60006020820190508181036000830152613fa181613af2565b9050919050565b60006020820190508181036000830152613fc181613b15565b9050919050565b60006020820190508181036000830152613fe181613b38565b9050919050565b6000602082019050818103600083015261400181613b5b565b9050919050565b6000602082019050818103600083015261402181613b7e565b9050919050565b6000602082019050818103600083015261404181613ba1565b9050919050565b6000602082019050818103600083015261406181613bc4565b9050919050565b6000602082019050818103600083015261408181613c0a565b9050919050565b600060208201905081810360008301526140a181613c2d565b9050919050565b600060208201905081810360008301526140c181613c50565b9050919050565b600060208201905081810360008301526140e181613c73565b9050919050565b6000602082019050818103600083015261410181613c96565b9050919050565b6000602082019050818103600083015261412181613cb9565b9050919050565b6000602082019050818103600083015261414181613cff565b9050919050565b600060208201905061415d6000830184613d31565b92915050565b60006040820190506141786000830185613d31565b6141856020830184613d31565b9392505050565b60006141966141a7565b90506141a282826144b3565b919050565b6000604051905090565b600067ffffffffffffffff8211156141cc576141cb61458b565b5b602082029050602081019050919050565b600067ffffffffffffffff8211156141f8576141f761458b565b5b602082029050602081019050919050565b600067ffffffffffffffff8211156142245761422361458b565b5b61422d826145dc565b9050602081019050919050565b600067ffffffffffffffff8211156142555761425461458b565b5b61425e826145dc565b9050602081019050919050565b6000819050602082019050919050565b600081519050919050565b600081519050919050565b600081519050919050565b6000602082019050919050565b600082825260208201905092915050565b600082825260208201905092915050565b600082825260208201905092915050565b600081905092915050565b60006142f28261440b565b91506142fd8361440b565b9250827fffffffffffffffffffffffffffffffffffffffffffffffffffffffffffffffff038211156143325761433161452d565b5b828201905092915050565b60006143488261440b565b91506143538361440b565b9250817fffffffffffffffffffffffffffffffffffffffffffffffffffffffffffffffff048311821515161561438c5761438b61452d565b5b828202905092915050565b60006143a2826143eb565b9050919050565b60008115159050919050565b6000819050919050565b60007fffffffff0000000000000000000000000000000000000000000000000000000082169050919050565b600073ffffffffffffffffffffffffffffffffffffffff82169050919050565b6000819050919050565b82818337600083830152505050565b60005b83811015614442578082015181840152602081019050614427565b83811115614451576000848401525b50505050565b60006144628261440b565b915060008214156144765761447561452d565b5b600182039050919050565b6000600282049050600182168061449957607f821691505b602082108114156144ad576144ac61455c565b5b50919050565b6144bc826145dc565b810181811067ffffffffffffffff821117156144db576144da61458b565b5b80604052505050565b60006144ef8261440b565b91507fffffffffffffffffffffffffffffffffffffffffffffffffffffffffffffffff8214156145225761452161452d565b5b600182019050919050565b7f4e487b7100000000000000000000000000000000000000000000000000000000600052601160045260246000fd5b7f4e487b7100000000000000000000000000000000000000000000000000000000600052602260045260246000fd5b7f4e487b7100000000000000000000000000000000000000000000000000000000600052604160045260246000fd5b600060033d11156145d95760046000803e6145d66000516145ed565b90505b90565b6000601f19601f8301169050919050565b60008160e01c9050919050565b7f455243313135353a207472616e7366657220746f206e6f6e204552433131353560008201527f526563656976657220696d706c656d656e746572000000000000000000000000602082015250565b7f537472696e67733a20686578206c656e67746820696e73756666696369656e74600082015250565b7f455243313135353a204552433131353552656365697665722072656a6563746560008201527f6420746f6b656e73000000000000000000000000000000000000000000000000602082015250565b7f455243313135353a2062616c616e636520717565727920666f7220746865207a60008201527f65726f2061646472657373000000000000000000000000000000000000000000602082015250565b7f455243313135353a206275726e20616d6f756e7420657863656564732062616c60008201527f616e636500000000000000000000000000000000000000000000000000000000602082015250565b7f4e6f6e2d7472616e7366657261626c6521000000000000000000000000000000600082015250565b7f417373657420696e70757420646f6573206e6f74206d6174636865206261636b60008201527f6564417373657420696e20686f75736541646472657373210000000000000000602082015250565b7f486f75736520616c726561647920726567697374657265642100000000000000600082015250565b7f455243313135353a206275726e2066726f6d20746865207a65726f206164647260008201527f6573730000000000000000000000000000000000000000000000000000000000602082015250565b7f417373657420696e70757420646f6573206e6f74206d6174636865207265736560008201527f727665417373657420696e20686f757365416464726573732100000000000000602082015250565b7f6261636b6564417373657420616c726561647920726567697374657265642100600082015250565b7f416363657373436f6e74726f6c3a206163636f756e7420000000000000000000600082015250565b7f52657365727665417373657420616c7265616479207265676973746572656421600082015250565b7f455243313135353a2073657474696e6720617070726f76616c2073746174757360008201527f20666f722073656c660000000000000000000000000000000000000000000000602082015250565b7f455243313135353a206163636f756e747320616e6420696473206c656e67746860008201527f206d69736d617463680000000000000000000000000000000000000000000000602082015250565b7f686f7573652061646472657373207479706520696e76616c6964210000000000600082015250565b7f455243313135353a2069647320616e6420616d6f756e7473206c656e6774682060008201527f6d69736d61746368000000000000000000000000000000000000000000000000602082015250565b7f455243313135353a206d696e7420746f20746865207a65726f2061646472657360008201527f7300000000000000000000000000000000000000000000000000000000000000602082015250565b7f206973206d697373696e6720726f6c6520000000000000000000000000000000600082015250565b7f416363657373436f6e74726f6c3a2063616e206f6e6c792072656e6f756e636560008201527f20726f6c657320666f722073656c660000000000000000000000000000000000602082015250565b600060443d1015614b0657614b89565b614b0e6141a7565b60043d036004823e80513d602482011167ffffffffffffffff82111715614b36575050614b89565b808201805167ffffffffffffffff811115614b545750505050614b89565b80602083010160043d038501811115614b71575050505050614b89565b614b80826020018501866144b3565b82955050505050505b90565b614b9581614397565b8114614ba057600080fd5b50565b614bac816143a9565b8114614bb757600080fd5b50565b614bc3816143b5565b8114614bce57600080fd5b50565b614bda816143bf565b8114614be557600080fd5b50565b614bf18161440b565b8114614bfc57600080fd5b5056fea2646970667358221220f47b5e029287ff50d3a9ca2bcf19025e3f856d68798c17d7776de88093b3316b64736f6c63430008020033",
  "immutableReferences": {},
  "source": "// SPDX-License-Identifier: MIT\r\npragma solidity 0.8.2;\r\n\r\n/**\r\n* @title Assets accountant contract.\r\n* @author daigaro.eth\r\n* @notice Keeps records of all deposits, withdrawals, and minted assets by users using ERC1155 tokens.\r\n* @dev Contracts are split into state and functionality.\r\n* @dev At time of deployment, deployer is DEFAULT_ADMIN, however, this role should be transferred to a governance system.\r\n* @dev Users do not interact directly with this contract. \r\n*/\r\n\r\nimport \"@openzeppelin/contracts/token/ERC1155/ERC1155.sol\";\r\nimport \"@openzeppelin/contracts/access/AccessControl.sol\";\r\nimport \"./interfaces/IHouseOfReserveState.sol\";\r\nimport \"./interfaces/IHouseOfCoinState.sol\";\r\n\r\ncontract AssetsAccountantState {\r\n\r\n    // reserveTokenID => houseOfReserve \r\n    mapping(uint => address) public houseOfReserves;\r\n\r\n    // reserveAsset => backAsset => reserveTokenID\r\n    mapping(address => mapping(address => uint)) public reservesIds;\r\n\r\n    // backedAsset  => houseOfCoin\r\n    mapping(address => address) public houseOfCoins;\r\n\r\n    mapping(address => bool) internal _isARegisteredHouse;\r\n\r\n    // Contract Token name\r\n    string internal constant _name = 'eFIAT AssetAccountant';\r\n\r\n    bytes32 public constant URI_SETTER_ROLE = keccak256(\"URI_SETTER_ROLE\");\r\n\r\n    bytes32 public constant MINTER_ROLE = keccak256(\"MINTER_ROLE\");\r\n\r\n    bytes32 public constant BURNER_ROLE = keccak256(\"BURNER_ROLE\");\r\n\r\n}\r\n\r\ncontract AssetsAccountant is ERC1155, AccessControl, AssetsAccountantState {\r\n\r\n    // AssetsAccountant Events\r\n\r\n    /**  \r\n    * @dev Emit when a HouseOfReserve is registered with AssetsAccountant\r\n    * @param house Address of house registered.\r\n    * @param typeOfHouse Either HouseOfReserve or HouseOfCoin.\r\n    * @param asset ERC20 address of either reserve asset or backed asset.\r\n    */\r\n    event HouseRegistered(address house, bytes32 indexed typeOfHouse, address indexed asset);\r\n\r\n    constructor() ERC1155(\"http://efiat.world/token-ids/\") {\r\n        _setupRole(DEFAULT_ADMIN_ROLE, msg.sender);\r\n        _setupRole(URI_SETTER_ROLE, msg.sender);\r\n        _setupRole(MINTER_ROLE, msg.sender);\r\n        _setupRole(BURNER_ROLE, msg.sender);\r\n    }\r\n\r\n    /**  \r\n    * @dev Register a house address in this contract.\r\n    * @dev Requires caller to have DEFAULT_ADMIN_ROLE.\r\n    * @param houseAddress Address of house registered.\r\n    * @param asset ERC20 address of either reserve asset or backed asset.\r\n    */\r\n    function registerHouse(address houseAddress, address asset) \r\n        external\r\n        onlyRole(DEFAULT_ADMIN_ROLE)\r\n    {\r\n        // Check if House has been previously registered.\r\n        require(!_isARegisteredHouse[houseAddress], \"House already registered!\");\r\n\r\n        // Check type of House being registered and proceed accordingly\r\n\r\n        if(IHouseOfReserveState(houseAddress).HOUSE_TYPE() == keccak256(\"RESERVE_HOUSE\")) {\r\n\r\n            IHouseOfReserveState hOfReserve = IHouseOfReserveState(houseAddress);\r\n            uint reserveTokenID = hOfReserve.reserveTokenID();\r\n            address bAsset = hOfReserve.backedAsset();\r\n\r\n            // Check that asset has NOT a house address assigned\r\n            require(houseOfReserves[reserveTokenID] == address(0), \"ReserveAsset already registered!\");\r\n\r\n            // Check intended asset matches House\r\n            require(\r\n                hOfReserve.reserveAsset() == asset,\r\n                \"Asset input does not matche reserveAsset in houseAddress!\"\r\n            );\r\n\r\n            // Register mappings\r\n            houseOfReserves[reserveTokenID] = houseAddress;\r\n            _isARegisteredHouse[houseAddress] = true;\r\n            reservesIds[asset][bAsset] = reserveTokenID;\r\n\r\n            // Assign Roles\r\n            _setupRole(MINTER_ROLE, houseAddress);\r\n            _setupRole(BURNER_ROLE, houseAddress);\r\n\r\n            emit HouseRegistered(houseAddress, hOfReserve.HOUSE_TYPE(), asset);\r\n            \r\n        } else if (IHouseOfCoinState(houseAddress).HOUSE_TYPE() == keccak256(\"COIN_HOUSE\")) {\r\n\r\n            IHouseOfCoinState hOfCoin = IHouseOfCoinState(houseAddress);\r\n\r\n            // Check that asset has NOT a house address assigned\r\n            require(houseOfCoins[asset] == address(0), \"backedAsset already registered!\");\r\n\r\n            // Check intended asset matches House\r\n            require(\r\n                hOfCoin.backedAsset() == asset,\r\n                \"Asset input does not matche backedAsset in houseAddress!\"\r\n            );\r\n\r\n            // Register mappings\r\n            houseOfCoins[asset] = houseAddress;\r\n            _isARegisteredHouse[houseAddress] = true;\r\n\r\n            // Assign Roles\r\n            _setupRole(MINTER_ROLE, houseAddress);\r\n            _setupRole(BURNER_ROLE, houseAddress);\r\n\r\n            emit HouseRegistered(houseAddress, hOfCoin.HOUSE_TYPE(), asset);\r\n\r\n        } else {\r\n            revert(\"house address type invalid!\");\r\n        }\r\n    }\r\n\r\n    /**\r\n     * @dev Returns _name.\r\n     */\r\n    function name() public pure returns (string memory) {\r\n        return _name;\r\n    }\r\n\r\n    /**  \r\n    * @dev Sets the URI for this contract.\r\n    * @dev Requires caller to have URI_SETTER_ROLE.\r\n    * @dev Since URI is not specified per Token Id this function does not emit {URI} event.\r\n    * @param newuri String of the new URI.\r\n    */\r\n    function setURI(string memory newuri) public onlyRole(URI_SETTER_ROLE) {\r\n        _setURI(newuri);\r\n    }\r\n\r\n    /**  \r\n    * @notice Mints 'amount' of token Id for specified 'account' address.\r\n    * @dev Requires caller to have MINTER_ROLE.\r\n    * @param account User address\r\n    * @param id Token Id\r\n    * @param amount to mint\r\n    * @param data Not use in this implementation, pass empty string \"\".\r\n    */\r\n    function mint(address account, uint256 id, uint256 amount, bytes memory data)\r\n        external\r\n        onlyRole(MINTER_ROLE)\r\n    {\r\n        _mint(account, id, amount, data);\r\n    }\r\n\r\n    /**\r\n    * @dev Batch implementation of {mint} function. Refer to {mint}.\r\n    */\r\n    function mintBatch(address to, uint256[] memory ids, uint256[] memory amounts, bytes memory data)\r\n        external\r\n        onlyRole(MINTER_ROLE)\r\n    {\r\n        _mintBatch(to, ids, amounts, data);\r\n    }\r\n\r\n    /**  \r\n    * @notice Burns 'amount' of token Id for specified 'account' address.\r\n    * @dev Requires caller to have BURNER_ROLE.\r\n    * @param account User address\r\n    * @param id Token Id\r\n    * @param amount to burn\r\n    */\r\n    function burn(\r\n        address account,\r\n        uint256 id,\r\n        uint256 amount\r\n    ) public onlyRole(BURNER_ROLE) {\r\n        _burn(account, id, amount);\r\n    }\r\n\r\n    /**\r\n    * @dev Batch implementation of {burn} function. Refer to {burn}.\r\n    */\r\n    function burnBatch(\r\n        address account,\r\n        uint256[] memory ids,\r\n        uint256[] memory amounts\r\n    ) public onlyRole(BURNER_ROLE) {\r\n        _burnBatch(account, ids, amounts);\r\n    }\r\n\r\n    /**\r\n    * @dev Function override added to restrict transferability of tokens in this contract.\r\n    * @dev Accounting assets are not meant to be transferable. \r\n    */\r\n    function safeTransferFrom(\r\n        address from,\r\n        address to,\r\n        uint256 id,\r\n        uint256 amount,\r\n        bytes calldata data\r\n    ) public pure override {\r\n        from;\r\n        to;\r\n        id;\r\n        amount;\r\n        data;\r\n        revert(\"Non-transferable!\");\r\n    }\r\n\r\n    /**\r\n    * @dev See {safeTransferFrom}.\r\n    */\r\n    function safeBatchTransferFrom(\r\n        address from,\r\n        address to,\r\n        uint256[] calldata ids,\r\n        uint256[] calldata amounts,\r\n        bytes calldata data\r\n    ) public pure override {\r\n        from;\r\n        to;\r\n        ids;\r\n        amounts;\r\n        data;\r\n        revert(\"Non-transferable!\");\r\n    }\r\n\r\n    /**\r\n    * @dev Function override required by Solidity.\r\n    */\r\n    function supportsInterface(bytes4 interfaceId)\r\n        public\r\n        view\r\n        override(ERC1155, AccessControl)\r\n        returns (bool)\r\n    {\r\n        return super.supportsInterface(interfaceId);\r\n    }\r\n}",
  "sourcePath": "C:\\Users\\DCota\\Documents\\Crypto\\Consensys Blockchain Developer\\blockchain-developer-bootcamp-final-project\\contracts\\AssetsAccountant.sol",
  "compiler": {
    "name": "solc",
    "version": "0.8.2+commit.661d1103.Emscripten.clang"
  },
  "schemaVersion": "3.4.3",
  "updatedAt": "2021-11-22T01:33:18.913Z",
  "networkType": "ethereum",
  "devdoc": {
    "events": {
      "HouseRegistered(address,bytes32,address)": {
        "details": "Emit when a HouseOfReserve is registered with AssetsAccountant",
        "params": {
          "asset": "ERC20 address of either reserve asset or backed asset.",
          "house": "Address of house registered.",
          "typeOfHouse": "Either HouseOfReserve or HouseOfCoin."
        }
      }
    },
    "kind": "dev",
    "methods": {
      "balanceOf(address,uint256)": {
        "details": "See {IERC1155-balanceOf}. Requirements: - `account` cannot be the zero address."
      },
      "balanceOfBatch(address[],uint256[])": {
        "details": "See {IERC1155-balanceOfBatch}. Requirements: - `accounts` and `ids` must have the same length."
      },
      "burn(address,uint256,uint256)": {
        "details": "Requires caller to have BURNER_ROLE.",
        "params": {
          "account": "User address",
          "amount": "to burn",
          "id": "Token Id"
        }
      },
      "burnBatch(address,uint256[],uint256[])": {
        "details": "Batch implementation of {burn} function. Refer to {burn}."
      },
      "getRoleAdmin(bytes32)": {
        "details": "Returns the admin role that controls `role`. See {grantRole} and {revokeRole}. To change a role's admin, use {_setRoleAdmin}."
      },
      "grantRole(bytes32,address)": {
        "details": "Grants `role` to `account`. If `account` had not been already granted `role`, emits a {RoleGranted} event. Requirements: - the caller must have ``role``'s admin role."
      },
      "hasRole(bytes32,address)": {
        "details": "Returns `true` if `account` has been granted `role`."
      },
      "isApprovedForAll(address,address)": {
        "details": "See {IERC1155-isApprovedForAll}."
      },
      "mint(address,uint256,uint256,bytes)": {
        "details": "Requires caller to have MINTER_ROLE.",
        "params": {
          "account": "User address",
          "amount": "to mint",
          "data": "Not use in this implementation, pass empty string \"\".",
          "id": "Token Id"
        }
      },
      "mintBatch(address,uint256[],uint256[],bytes)": {
        "details": "Batch implementation of {mint} function. Refer to {mint}."
      },
      "name()": {
        "details": "Returns _name."
      },
      "registerHouse(address,address)": {
        "details": "Register a house address in this contract.Requires caller to have DEFAULT_ADMIN_ROLE.",
        "params": {
          "asset": "ERC20 address of either reserve asset or backed asset.",
          "houseAddress": "Address of house registered."
        }
      },
      "renounceRole(bytes32,address)": {
        "details": "Revokes `role` from the calling account. Roles are often managed via {grantRole} and {revokeRole}: this function's purpose is to provide a mechanism for accounts to lose their privileges if they are compromised (such as when a trusted device is misplaced). If the calling account had been granted `role`, emits a {RoleRevoked} event. Requirements: - the caller must be `account`."
      },
      "revokeRole(bytes32,address)": {
        "details": "Revokes `role` from `account`. If `account` had been granted `role`, emits a {RoleRevoked} event. Requirements: - the caller must have ``role``'s admin role."
      },
      "safeBatchTransferFrom(address,address,uint256[],uint256[],bytes)": {
        "details": "See {safeTransferFrom}."
      },
      "safeTransferFrom(address,address,uint256,uint256,bytes)": {
        "details": "Function override added to restrict transferability of tokens in this contract.Accounting assets are not meant to be transferable. "
      },
      "setApprovalForAll(address,bool)": {
        "details": "See {IERC1155-setApprovalForAll}."
      },
      "setURI(string)": {
        "details": "Sets the URI for this contract.Requires caller to have URI_SETTER_ROLE.Since URI is not specified per Token Id this function does not emit {URI} event.",
        "params": {
          "newuri": "String of the new URI."
        }
      },
      "supportsInterface(bytes4)": {
        "details": "Function override required by Solidity."
      },
      "uri(uint256)": {
        "details": "See {IERC1155MetadataURI-uri}. This implementation returns the same URI for *all* token types. It relies on the token type ID substitution mechanism https://eips.ethereum.org/EIPS/eip-1155#metadata[defined in the EIP]. Clients calling this function must replace the `\\{id\\}` substring with the actual token type ID."
      }
    },
    "version": 1
  },
  "userdoc": {
    "kind": "user",
    "methods": {
      "burn(address,uint256,uint256)": {
        "notice": "Burns 'amount' of token Id for specified 'account' address."
      },
      "mint(address,uint256,uint256,bytes)": {
        "notice": "Mints 'amount' of token Id for specified 'account' address."
      }
    },
    "version": 1
  }
}