{
  "contractName": "AssetsAccountant",
  "abi": [
    {
      "inputs": [],
      "stateMutability": "nonpayable",
      "type": "constructor"
    },
    {
      "anonymous": false,
      "inputs": [
        {
          "indexed": true,
          "internalType": "address",
          "name": "account",
          "type": "address"
        },
        {
          "indexed": true,
          "internalType": "address",
          "name": "operator",
          "type": "address"
        },
        {
          "indexed": false,
          "internalType": "bool",
          "name": "approved",
          "type": "bool"
        }
      ],
      "name": "ApprovalForAll",
      "type": "event"
    },
    {
      "anonymous": false,
      "inputs": [
        {
          "indexed": true,
          "internalType": "bytes32",
          "name": "role",
          "type": "bytes32"
        },
        {
          "indexed": true,
          "internalType": "bytes32",
          "name": "previousAdminRole",
          "type": "bytes32"
        },
        {
          "indexed": true,
          "internalType": "bytes32",
          "name": "newAdminRole",
          "type": "bytes32"
        }
      ],
      "name": "RoleAdminChanged",
      "type": "event"
    },
    {
      "anonymous": false,
      "inputs": [
        {
          "indexed": true,
          "internalType": "bytes32",
          "name": "role",
          "type": "bytes32"
        },
        {
          "indexed": true,
          "internalType": "address",
          "name": "account",
          "type": "address"
        },
        {
          "indexed": true,
          "internalType": "address",
          "name": "sender",
          "type": "address"
        }
      ],
      "name": "RoleGranted",
      "type": "event"
    },
    {
      "anonymous": false,
      "inputs": [
        {
          "indexed": true,
          "internalType": "bytes32",
          "name": "role",
          "type": "bytes32"
        },
        {
          "indexed": true,
          "internalType": "address",
          "name": "account",
          "type": "address"
        },
        {
          "indexed": true,
          "internalType": "address",
          "name": "sender",
          "type": "address"
        }
      ],
      "name": "RoleRevoked",
      "type": "event"
    },
    {
      "anonymous": false,
      "inputs": [
        {
          "indexed": true,
          "internalType": "address",
          "name": "operator",
          "type": "address"
        },
        {
          "indexed": true,
          "internalType": "address",
          "name": "from",
          "type": "address"
        },
        {
          "indexed": true,
          "internalType": "address",
          "name": "to",
          "type": "address"
        },
        {
          "indexed": false,
          "internalType": "uint256[]",
          "name": "ids",
          "type": "uint256[]"
        },
        {
          "indexed": false,
          "internalType": "uint256[]",
          "name": "values",
          "type": "uint256[]"
        }
      ],
      "name": "TransferBatch",
      "type": "event"
    },
    {
      "anonymous": false,
      "inputs": [
        {
          "indexed": true,
          "internalType": "address",
          "name": "operator",
          "type": "address"
        },
        {
          "indexed": true,
          "internalType": "address",
          "name": "from",
          "type": "address"
        },
        {
          "indexed": true,
          "internalType": "address",
          "name": "to",
          "type": "address"
        },
        {
          "indexed": false,
          "internalType": "uint256",
          "name": "id",
          "type": "uint256"
        },
        {
          "indexed": false,
          "internalType": "uint256",
          "name": "value",
          "type": "uint256"
        }
      ],
      "name": "TransferSingle",
      "type": "event"
    },
    {
      "anonymous": false,
      "inputs": [
        {
          "indexed": false,
          "internalType": "string",
          "name": "value",
          "type": "string"
        },
        {
          "indexed": true,
          "internalType": "uint256",
          "name": "id",
          "type": "uint256"
        }
      ],
      "name": "URI",
      "type": "event"
    },
    {
      "inputs": [],
      "name": "BURNER_ROLE",
      "outputs": [
        {
          "internalType": "bytes32",
          "name": "",
          "type": "bytes32"
        }
      ],
      "stateMutability": "view",
      "type": "function"
    },
    {
      "inputs": [],
      "name": "DEFAULT_ADMIN_ROLE",
      "outputs": [
        {
          "internalType": "bytes32",
          "name": "",
          "type": "bytes32"
        }
      ],
      "stateMutability": "view",
      "type": "function"
    },
    {
      "inputs": [],
      "name": "MINTER_ROLE",
      "outputs": [
        {
          "internalType": "bytes32",
          "name": "",
          "type": "bytes32"
        }
      ],
      "stateMutability": "view",
      "type": "function"
    },
    {
      "inputs": [],
      "name": "URI_SETTER_ROLE",
      "outputs": [
        {
          "internalType": "bytes32",
          "name": "",
          "type": "bytes32"
        }
      ],
      "stateMutability": "view",
      "type": "function"
    },
    {
      "inputs": [
        {
          "internalType": "address",
          "name": "account",
          "type": "address"
        },
        {
          "internalType": "uint256",
          "name": "id",
          "type": "uint256"
        }
      ],
      "name": "balanceOf",
      "outputs": [
        {
          "internalType": "uint256",
          "name": "",
          "type": "uint256"
        }
      ],
      "stateMutability": "view",
      "type": "function"
    },
    {
      "inputs": [
        {
          "internalType": "address[]",
          "name": "accounts",
          "type": "address[]"
        },
        {
          "internalType": "uint256[]",
          "name": "ids",
          "type": "uint256[]"
        }
      ],
      "name": "balanceOfBatch",
      "outputs": [
        {
          "internalType": "uint256[]",
          "name": "",
          "type": "uint256[]"
        }
      ],
      "stateMutability": "view",
      "type": "function"
    },
    {
      "inputs": [
        {
          "internalType": "bytes32",
          "name": "role",
          "type": "bytes32"
        }
      ],
      "name": "getRoleAdmin",
      "outputs": [
        {
          "internalType": "bytes32",
          "name": "",
          "type": "bytes32"
        }
      ],
      "stateMutability": "view",
      "type": "function"
    },
    {
      "inputs": [
        {
          "internalType": "bytes32",
          "name": "role",
          "type": "bytes32"
        },
        {
          "internalType": "address",
          "name": "account",
          "type": "address"
        }
      ],
      "name": "grantRole",
      "outputs": [],
      "stateMutability": "nonpayable",
      "type": "function"
    },
    {
      "inputs": [
        {
          "internalType": "bytes32",
          "name": "role",
          "type": "bytes32"
        },
        {
          "internalType": "address",
          "name": "account",
          "type": "address"
        }
      ],
      "name": "hasRole",
      "outputs": [
        {
          "internalType": "bool",
          "name": "",
          "type": "bool"
        }
      ],
      "stateMutability": "view",
      "type": "function"
    },
    {
      "inputs": [
        {
          "internalType": "address",
          "name": "account",
          "type": "address"
        },
        {
          "internalType": "address",
          "name": "operator",
          "type": "address"
        }
      ],
      "name": "isApprovedForAll",
      "outputs": [
        {
          "internalType": "bool",
          "name": "",
          "type": "bool"
        }
      ],
      "stateMutability": "view",
      "type": "function"
    },
    {
      "inputs": [
        {
          "internalType": "bytes32",
          "name": "role",
          "type": "bytes32"
        },
        {
          "internalType": "address",
          "name": "account",
          "type": "address"
        }
      ],
      "name": "renounceRole",
      "outputs": [],
      "stateMutability": "nonpayable",
      "type": "function"
    },
    {
      "inputs": [
        {
          "internalType": "bytes32",
          "name": "role",
          "type": "bytes32"
        },
        {
          "internalType": "address",
          "name": "account",
          "type": "address"
        }
      ],
      "name": "revokeRole",
      "outputs": [],
      "stateMutability": "nonpayable",
      "type": "function"
    },
    {
      "inputs": [
        {
          "internalType": "address",
          "name": "from",
          "type": "address"
        },
        {
          "internalType": "address",
          "name": "to",
          "type": "address"
        },
        {
          "internalType": "uint256[]",
          "name": "ids",
          "type": "uint256[]"
        },
        {
          "internalType": "uint256[]",
          "name": "amounts",
          "type": "uint256[]"
        },
        {
          "internalType": "bytes",
          "name": "data",
          "type": "bytes"
        }
      ],
      "name": "safeBatchTransferFrom",
      "outputs": [],
      "stateMutability": "nonpayable",
      "type": "function"
    },
    {
      "inputs": [
        {
          "internalType": "address",
          "name": "from",
          "type": "address"
        },
        {
          "internalType": "address",
          "name": "to",
          "type": "address"
        },
        {
          "internalType": "uint256",
          "name": "id",
          "type": "uint256"
        },
        {
          "internalType": "uint256",
          "name": "amount",
          "type": "uint256"
        },
        {
          "internalType": "bytes",
          "name": "data",
          "type": "bytes"
        }
      ],
      "name": "safeTransferFrom",
      "outputs": [],
      "stateMutability": "nonpayable",
      "type": "function"
    },
    {
      "inputs": [
        {
          "internalType": "address",
          "name": "operator",
          "type": "address"
        },
        {
          "internalType": "bool",
          "name": "approved",
          "type": "bool"
        }
      ],
      "name": "setApprovalForAll",
      "outputs": [],
      "stateMutability": "nonpayable",
      "type": "function"
    },
    {
      "inputs": [
        {
          "internalType": "uint256",
          "name": "",
          "type": "uint256"
        }
      ],
      "name": "uri",
      "outputs": [
        {
          "internalType": "string",
          "name": "",
          "type": "string"
        }
      ],
      "stateMutability": "view",
      "type": "function"
    },
    {
      "inputs": [
        {
          "internalType": "string",
          "name": "newuri",
          "type": "string"
        }
      ],
      "name": "setURI",
      "outputs": [],
      "stateMutability": "nonpayable",
      "type": "function"
    },
    {
      "inputs": [
        {
          "internalType": "address",
          "name": "account",
          "type": "address"
        },
        {
          "internalType": "uint256",
          "name": "id",
          "type": "uint256"
        },
        {
          "internalType": "uint256",
          "name": "amount",
          "type": "uint256"
        },
        {
          "internalType": "bytes",
          "name": "data",
          "type": "bytes"
        }
      ],
      "name": "mint",
      "outputs": [],
      "stateMutability": "nonpayable",
      "type": "function"
    },
    {
      "inputs": [
        {
          "internalType": "address",
          "name": "to",
          "type": "address"
        },
        {
          "internalType": "uint256[]",
          "name": "ids",
          "type": "uint256[]"
        },
        {
          "internalType": "uint256[]",
          "name": "amounts",
          "type": "uint256[]"
        },
        {
          "internalType": "bytes",
          "name": "data",
          "type": "bytes"
        }
      ],
      "name": "mintBatch",
      "outputs": [],
      "stateMutability": "nonpayable",
      "type": "function"
    },
    {
      "inputs": [
        {
          "internalType": "address",
          "name": "account",
          "type": "address"
        },
        {
          "internalType": "uint256",
          "name": "id",
          "type": "uint256"
        },
        {
          "internalType": "uint256",
          "name": "value",
          "type": "uint256"
        }
      ],
      "name": "burn",
      "outputs": [],
      "stateMutability": "nonpayable",
      "type": "function"
    },
    {
      "inputs": [
        {
          "internalType": "address",
          "name": "account",
          "type": "address"
        },
        {
          "internalType": "uint256[]",
          "name": "ids",
          "type": "uint256[]"
        },
        {
          "internalType": "uint256[]",
          "name": "values",
          "type": "uint256[]"
        }
      ],
      "name": "burnBatch",
      "outputs": [],
      "stateMutability": "nonpayable",
      "type": "function"
    },
    {
      "inputs": [
        {
          "internalType": "bytes4",
          "name": "interfaceId",
          "type": "bytes4"
        }
      ],
      "name": "supportsInterface",
      "outputs": [
        {
          "internalType": "bool",
          "name": "",
          "type": "bool"
        }
      ],
      "stateMutability": "view",
      "type": "function"
    }
  ],
  "bytecode": "0x60806040523480156200001157600080fd5b50604051806020016040528060008152506200003381620000e560201b60201c565b50620000496000801b336200010160201b60201c565b6200007b7f7804d923f43a17d325d77e781528e0793b2edd9890ab45fc64efd7b4b427744c336200010160201b60201c565b620000ad7f9f2df0fed2c77648de5860a4cc508cd0818c85b8b8a1ab4ceeef8d981c8956a6336200010160201b60201c565b620000df7f3c11d16cbaffd01df69ce1c404f6340ee057498f5f00246190ea54220576a848336200010160201b60201c565b62000391565b8060029080519060200190620000fd9291906200027c565b5050565b6200011382826200011760201b60201c565b5050565b6200012982826200020960201b60201c565b620002055760016003600084815260200190815260200160002060000160008373ffffffffffffffffffffffffffffffffffffffff1673ffffffffffffffffffffffffffffffffffffffff16815260200190815260200160002060006101000a81548160ff021916908315150217905550620001aa6200027460201b60201c565b73ffffffffffffffffffffffffffffffffffffffff168173ffffffffffffffffffffffffffffffffffffffff16837f2f8788117e7eff1d82e926ec794901d17c78024a50270940304540a733656f0d60405160405180910390a45b5050565b60006003600084815260200190815260200160002060000160008373ffffffffffffffffffffffffffffffffffffffff1673ffffffffffffffffffffffffffffffffffffffff16815260200190815260200160002060009054906101000a900460ff16905092915050565b600033905090565b8280546200028a906200032c565b90600052602060002090601f016020900481019282620002ae5760008555620002fa565b82601f10620002c957805160ff1916838001178555620002fa565b82800160010185558215620002fa579182015b82811115620002f9578251825591602001919060010190620002dc565b5b5090506200030991906200030d565b5090565b5b80821115620003285760008160009055506001016200030e565b5090565b600060028204905060018216806200034557607f821691505b602082108114156200035c576200035b62000362565b5b50919050565b7f4e487b7100000000000000000000000000000000000000000000000000000000600052602260045260246000fd5b61436a80620003a16000396000f3fe608060405234801561001057600080fd5b50600436106101415760003560e01c80636b20c454116100b8578063a22cb4651161007c578063a22cb46514610384578063d5391393146103a0578063d547741f146103be578063e985e9c5146103da578063f242432a1461040a578063f5298aca1461042657610141565b80636b20c454146102e0578063731133e9146102fc5780637f3457101461031857806391d1485414610336578063a217fddf1461036657610141565b8063248a9ca31161010a578063248a9ca31461020e578063282c51f31461023e5780632eb2c2d61461025c5780632f2ff15d1461027857806336568abe146102945780634e1273f4146102b057610141565b8062fdd58e1461014657806301ffc9a71461017657806302fe5305146101a65780630e89341c146101c25780631f7fdffa146101f2575b600080fd5b610160600480360381019061015b9190612ed5565b610442565b60405161016d91906138ac565b60405180910390f35b610190600480360381019061018b91906130ac565b61050b565b60405161019d9190613674565b60405180910390f35b6101c060048036038101906101bb91906130fe565b61051d565b005b6101dc60048036038101906101d7919061313f565b61055c565b6040516101e991906136aa565b60405180910390f35b61020c60048036038101906102079190612dee565b6105f0565b005b61022860048036038101906102239190613047565b610635565b604051610235919061368f565b60405180910390f35b610246610655565b604051610253919061368f565b60405180910390f35b61027660048036038101906102719190612c21565b610679565b005b610292600480360381019061028d9190613070565b61071a565b005b6102ae60048036038101906102a99190613070565b610743565b005b6102ca60048036038101906102c59190612fdb565b6107c6565b6040516102d7919061361b565b60405180910390f35b6102fa60048036038101906102f59190612d6f565b610977565b005b61031660048036038101906103119190612f60565b6109ba565b005b6103206109ff565b60405161032d919061368f565b60405180910390f35b610350600480360381019061034b9190613070565b610a23565b60405161035d9190613674565b60405180910390f35b61036e610a8e565b60405161037b919061368f565b60405180910390f35b61039e60048036038101906103999190612e99565b610a95565b005b6103a8610c16565b6040516103b5919061368f565b60405180910390f35b6103d860048036038101906103d39190613070565b610c3a565b005b6103f460048036038101906103ef9190612be5565b610c63565b6040516104019190613674565b60405180910390f35b610424600480360381019061041f9190612ce0565b610cf7565b005b610440600480360381019061043b9190612f11565b610d98565b005b60008073ffffffffffffffffffffffffffffffffffffffff168373ffffffffffffffffffffffffffffffffffffffff1614156104b3576040517f08c379a00000000000000000000000000000000000000000000000000000000081526004016104aa9061372c565b60405180910390fd5b60008083815260200190815260200160002060008473ffffffffffffffffffffffffffffffffffffffff1673ffffffffffffffffffffffffffffffffffffffff16815260200190815260200160002054905092915050565b600061051682610ddb565b9050919050565b7f7804d923f43a17d325d77e781528e0793b2edd9890ab45fc64efd7b4b427744c61054f8161054a610e55565b610e5d565b61055882610efa565b5050565b60606002805461056b90613be5565b80601f016020809104026020016040519081016040528092919081815260200182805461059790613be5565b80156105e45780601f106105b9576101008083540402835291602001916105e4565b820191906000526020600020905b8154815290600101906020018083116105c757829003601f168201915b50505050509050919050565b7f9f2df0fed2c77648de5860a4cc508cd0818c85b8b8a1ab4ceeef8d981c8956a66106228161061d610e55565b610e5d565b61062e85858585610f14565b5050505050565b600060036000838152602001908152602001600020600101549050919050565b7f3c11d16cbaffd01df69ce1c404f6340ee057498f5f00246190ea54220576a84881565b610681610e55565b73ffffffffffffffffffffffffffffffffffffffff168573ffffffffffffffffffffffffffffffffffffffff1614806106c757506106c6856106c1610e55565b610c63565b5b610706576040517f08c379a00000000000000000000000000000000000000000000000000000000081526004016106fd906137ac565b60405180910390fd5b610713858585858561117e565b5050505050565b61072382610635565b6107348161072f610e55565b610e5d565b61073e83836114de565b505050565b61074b610e55565b73ffffffffffffffffffffffffffffffffffffffff168173ffffffffffffffffffffffffffffffffffffffff16146107b8576040517f08c379a00000000000000000000000000000000000000000000000000000000081526004016107af9061388c565b60405180910390fd5b6107c282826115bf565b5050565b6060815183511461080c576040517f08c379a00000000000000000000000000000000000000000000000000000000081526004016108039061382c565b60405180910390fd5b6000835167ffffffffffffffff81111561084f577f4e487b7100000000000000000000000000000000000000000000000000000000600052604160045260246000fd5b60405190808252806020026020018201604052801561087d5781602001602082028036833780820191505090505b50905060005b845181101561096c576109168582815181106108c8577f4e487b7100000000000000000000000000000000000000000000000000000000600052603260045260246000fd5b6020026020010151858381518110610909577f4e487b7100000000000000000000000000000000000000000000000000000000600052603260045260246000fd5b6020026020010151610442565b82828151811061094f577f4e487b7100000000000000000000000000000000000000000000000000000000600052603260045260246000fd5b6020026020010181815250508061096590613c48565b9050610883565b508091505092915050565b7f3c11d16cbaffd01df69ce1c404f6340ee057498f5f00246190ea54220576a8486109a9816109a4610e55565b610e5d565b6109b48484846116a1565b50505050565b7f9f2df0fed2c77648de5860a4cc508cd0818c85b8b8a1ab4ceeef8d981c8956a66109ec816109e7610e55565b610e5d565b6109f88585858561199e565b5050505050565b7f7804d923f43a17d325d77e781528e0793b2edd9890ab45fc64efd7b4b427744c81565b60006003600084815260200190815260200160002060000160008373ffffffffffffffffffffffffffffffffffffffff1673ffffffffffffffffffffffffffffffffffffffff16815260200190815260200160002060009054906101000a900460ff16905092915050565b6000801b81565b8173ffffffffffffffffffffffffffffffffffffffff16610ab4610e55565b73ffffffffffffffffffffffffffffffffffffffff161415610b0b576040517f08c379a0000000000000000000000000000000000000000000000000000000008152600401610b029061380c565b60405180910390fd5b8060016000610b18610e55565b73ffffffffffffffffffffffffffffffffffffffff1673ffffffffffffffffffffffffffffffffffffffff16815260200190815260200160002060008473ffffffffffffffffffffffffffffffffffffffff1673ffffffffffffffffffffffffffffffffffffffff16815260200190815260200160002060006101000a81548160ff0219169083151502179055508173ffffffffffffffffffffffffffffffffffffffff16610bc5610e55565b73ffffffffffffffffffffffffffffffffffffffff167f17307eab39ab6107e8899845ad3d59bd9653f200f220920489ca2b5937696c3183604051610c0a9190613674565b60405180910390a35050565b7f9f2df0fed2c77648de5860a4cc508cd0818c85b8b8a1ab4ceeef8d981c8956a681565b610c4382610635565b610c5481610c4f610e55565b610e5d565b610c5e83836115bf565b505050565b6000600160008473ffffffffffffffffffffffffffffffffffffffff1673ffffffffffffffffffffffffffffffffffffffff16815260200190815260200160002060008373ffffffffffffffffffffffffffffffffffffffff1673ffffffffffffffffffffffffffffffffffffffff16815260200190815260200160002060009054906101000a900460ff16905092915050565b610cff610e55565b73ffffffffffffffffffffffffffffffffffffffff168573ffffffffffffffffffffffffffffffffffffffff161480610d455750610d4485610d3f610e55565b610c63565b5b610d84576040517f08c379a0000000000000000000000000000000000000000000000000000000008152600401610d7b9061376c565b60405180910390fd5b610d918585858585611b34565b5050505050565b7f3c11d16cbaffd01df69ce1c404f6340ee057498f5f00246190ea54220576a848610dca81610dc5610e55565b610e5d565b610dd5848484611db6565b50505050565b60007f7965db0b000000000000000000000000000000000000000000000000000000007bffffffffffffffffffffffffffffffffffffffffffffffffffffffff1916827bffffffffffffffffffffffffffffffffffffffffffffffffffffffff19161480610e4e5750610e4d82611fd3565b5b9050919050565b600033905090565b610e678282610a23565b610ef657610e8c8173ffffffffffffffffffffffffffffffffffffffff1660146120b5565b610e9a8360001c60206120b5565b604051602001610eab92919061351f565b6040516020818303038152906040526040517f08c379a0000000000000000000000000000000000000000000000000000000008152600401610eed91906136aa565b60405180910390fd5b5050565b8060029080519060200190610f109291906128c8565b5050565b600073ffffffffffffffffffffffffffffffffffffffff168473ffffffffffffffffffffffffffffffffffffffff161415610f84576040517f08c379a0000000000000000000000000000000000000000000000000000000008152600401610f7b9061386c565b60405180910390fd5b8151835114610fc8576040517f08c379a0000000000000000000000000000000000000000000000000000000008152600401610fbf9061384c565b60405180910390fd5b6000610fd2610e55565b9050610fe3816000878787876123af565b60005b84518110156110e857838181518110611028577f4e487b7100000000000000000000000000000000000000000000000000000000600052603260045260246000fd5b602002602001015160008087848151811061106c577f4e487b7100000000000000000000000000000000000000000000000000000000600052603260045260246000fd5b6020026020010151815260200190815260200160002060008873ffffffffffffffffffffffffffffffffffffffff1673ffffffffffffffffffffffffffffffffffffffff16815260200190815260200160002060008282546110ce9190613a4b565b9250508190555080806110e090613c48565b915050610fe6565b508473ffffffffffffffffffffffffffffffffffffffff16600073ffffffffffffffffffffffffffffffffffffffff168273ffffffffffffffffffffffffffffffffffffffff167f4a39dc06d4c0dbc64b70af90fd698a233a518aa5d07e595d983b8c0526c8f7fb878760405161116092919061363d565b60405180910390a4611177816000878787876123b7565b5050505050565b81518351146111c2576040517f08c379a00000000000000000000000000000000000000000000000000000000081526004016111b99061384c565b60405180910390fd5b600073ffffffffffffffffffffffffffffffffffffffff168473ffffffffffffffffffffffffffffffffffffffff161415611232576040517f08c379a00000000000000000000000000000000000000000000000000000000081526004016112299061378c565b60405180910390fd5b600061123c610e55565b905061124c8187878787876123af565b60005b8451811015611449576000858281518110611293577f4e487b7100000000000000000000000000000000000000000000000000000000600052603260045260246000fd5b6020026020010151905060008583815181106112d8577f4e487b7100000000000000000000000000000000000000000000000000000000600052603260045260246000fd5b60200260200101519050600080600084815260200190815260200160002060008b73ffffffffffffffffffffffffffffffffffffffff1673ffffffffffffffffffffffffffffffffffffffff16815260200190815260200160002054905081811015611379576040517f08c379a0000000000000000000000000000000000000000000000000000000008152600401611370906137ec565b60405180910390fd5b81810360008085815260200190815260200160002060008c73ffffffffffffffffffffffffffffffffffffffff1673ffffffffffffffffffffffffffffffffffffffff168152602001908152602001600020819055508160008085815260200190815260200160002060008b73ffffffffffffffffffffffffffffffffffffffff1673ffffffffffffffffffffffffffffffffffffffff168152602001908152602001600020600082825461142e9190613a4b565b925050819055505050508061144290613c48565b905061124f565b508473ffffffffffffffffffffffffffffffffffffffff168673ffffffffffffffffffffffffffffffffffffffff168273ffffffffffffffffffffffffffffffffffffffff167f4a39dc06d4c0dbc64b70af90fd698a233a518aa5d07e595d983b8c0526c8f7fb87876040516114c092919061363d565b60405180910390a46114d68187878787876123b7565b505050505050565b6114e88282610a23565b6115bb5760016003600084815260200190815260200160002060000160008373ffffffffffffffffffffffffffffffffffffffff1673ffffffffffffffffffffffffffffffffffffffff16815260200190815260200160002060006101000a81548160ff021916908315150217905550611560610e55565b73ffffffffffffffffffffffffffffffffffffffff168173ffffffffffffffffffffffffffffffffffffffff16837f2f8788117e7eff1d82e926ec794901d17c78024a50270940304540a733656f0d60405160405180910390a45b5050565b6115c98282610a23565b1561169d5760006003600084815260200190815260200160002060000160008373ffffffffffffffffffffffffffffffffffffffff1673ffffffffffffffffffffffffffffffffffffffff16815260200190815260200160002060006101000a81548160ff021916908315150217905550611642610e55565b73ffffffffffffffffffffffffffffffffffffffff168173ffffffffffffffffffffffffffffffffffffffff16837ff6391f5c32d9c69d2a47ea670b442974b53935d1edc7fd64eb21e047a839171b60405160405180910390a45b5050565b600073ffffffffffffffffffffffffffffffffffffffff168373ffffffffffffffffffffffffffffffffffffffff161415611711576040517f08c379a0000000000000000000000000000000000000000000000000000000008152600401611708906137cc565b60405180910390fd5b8051825114611755576040517f08c379a000000000000000000000000000000000000000000000000000000000815260040161174c9061384c565b60405180910390fd5b600061175f610e55565b905061177f818560008686604051806020016040528060008152506123af565b60005b83518110156119185760008482815181106117c6577f4e487b7100000000000000000000000000000000000000000000000000000000600052603260045260246000fd5b60200260200101519050600084838151811061180b577f4e487b7100000000000000000000000000000000000000000000000000000000600052603260045260246000fd5b60200260200101519050600080600084815260200190815260200160002060008973ffffffffffffffffffffffffffffffffffffffff1673ffffffffffffffffffffffffffffffffffffffff168152602001908152602001600020549050818110156118ac576040517f08c379a00000000000000000000000000000000000000000000000000000000081526004016118a39061374c565b60405180910390fd5b81810360008085815260200190815260200160002060008a73ffffffffffffffffffffffffffffffffffffffff1673ffffffffffffffffffffffffffffffffffffffff16815260200190815260200160002081905550505050808061191090613c48565b915050611782565b50600073ffffffffffffffffffffffffffffffffffffffff168473ffffffffffffffffffffffffffffffffffffffff168273ffffffffffffffffffffffffffffffffffffffff167f4a39dc06d4c0dbc64b70af90fd698a233a518aa5d07e595d983b8c0526c8f7fb868660405161199092919061363d565b60405180910390a450505050565b600073ffffffffffffffffffffffffffffffffffffffff168473ffffffffffffffffffffffffffffffffffffffff161415611a0e576040517f08c379a0000000000000000000000000000000000000000000000000000000008152600401611a059061386c565b60405180910390fd5b6000611a18610e55565b9050611a3981600087611a2a8861259e565b611a338861259e565b876123af565b8260008086815260200190815260200160002060008773ffffffffffffffffffffffffffffffffffffffff1673ffffffffffffffffffffffffffffffffffffffff1681526020019081526020016000206000828254611a989190613a4b565b925050819055508473ffffffffffffffffffffffffffffffffffffffff16600073ffffffffffffffffffffffffffffffffffffffff168273ffffffffffffffffffffffffffffffffffffffff167fc3d58168c5ae7397731d063d5bbf3d657854427343f4c083240f7aacaa2d0f628787604051611b169291906138c7565b60405180910390a4611b2d81600087878787612664565b5050505050565b600073ffffffffffffffffffffffffffffffffffffffff168473ffffffffffffffffffffffffffffffffffffffff161415611ba4576040517f08c379a0000000000000000000000000000000000000000000000000000000008152600401611b9b9061378c565b60405180910390fd5b6000611bae610e55565b9050611bce818787611bbf8861259e565b611bc88861259e565b876123af565b600080600086815260200190815260200160002060008873ffffffffffffffffffffffffffffffffffffffff1673ffffffffffffffffffffffffffffffffffffffff16815260200190815260200160002054905083811015611c65576040517f08c379a0000000000000000000000000000000000000000000000000000000008152600401611c5c906137ec565b60405180910390fd5b83810360008087815260200190815260200160002060008973ffffffffffffffffffffffffffffffffffffffff1673ffffffffffffffffffffffffffffffffffffffff168152602001908152602001600020819055508360008087815260200190815260200160002060008873ffffffffffffffffffffffffffffffffffffffff1673ffffffffffffffffffffffffffffffffffffffff1681526020019081526020016000206000828254611d1a9190613a4b565b925050819055508573ffffffffffffffffffffffffffffffffffffffff168773ffffffffffffffffffffffffffffffffffffffff168373ffffffffffffffffffffffffffffffffffffffff167fc3d58168c5ae7397731d063d5bbf3d657854427343f4c083240f7aacaa2d0f628888604051611d979291906138c7565b60405180910390a4611dad828888888888612664565b50505050505050565b600073ffffffffffffffffffffffffffffffffffffffff168373ffffffffffffffffffffffffffffffffffffffff161415611e26576040517f08c379a0000000000000000000000000000000000000000000000000000000008152600401611e1d906137cc565b60405180910390fd5b6000611e30610e55565b9050611e6081856000611e428761259e565b611e4b8761259e565b604051806020016040528060008152506123af565b600080600085815260200190815260200160002060008673ffffffffffffffffffffffffffffffffffffffff1673ffffffffffffffffffffffffffffffffffffffff16815260200190815260200160002054905082811015611ef7576040517f08c379a0000000000000000000000000000000000000000000000000000000008152600401611eee9061374c565b60405180910390fd5b82810360008086815260200190815260200160002060008773ffffffffffffffffffffffffffffffffffffffff1673ffffffffffffffffffffffffffffffffffffffff16815260200190815260200160002081905550600073ffffffffffffffffffffffffffffffffffffffff168573ffffffffffffffffffffffffffffffffffffffff168373ffffffffffffffffffffffffffffffffffffffff167fc3d58168c5ae7397731d063d5bbf3d657854427343f4c083240f7aacaa2d0f628787604051611fc49291906138c7565b60405180910390a45050505050565b60007fd9b67a26000000000000000000000000000000000000000000000000000000007bffffffffffffffffffffffffffffffffffffffffffffffffffffffff1916827bffffffffffffffffffffffffffffffffffffffffffffffffffffffff1916148061209e57507f0e89341c000000000000000000000000000000000000000000000000000000007bffffffffffffffffffffffffffffffffffffffffffffffffffffffff1916827bffffffffffffffffffffffffffffffffffffffffffffffffffffffff1916145b806120ae57506120ad8261284b565b5b9050919050565b6060600060028360026120c89190613aa1565b6120d29190613a4b565b67ffffffffffffffff811115612111577f4e487b7100000000000000000000000000000000000000000000000000000000600052604160045260246000fd5b6040519080825280601f01601f1916602001820160405280156121435781602001600182028036833780820191505090505b5090507f3000000000000000000000000000000000000000000000000000000000000000816000815181106121a1577f4e487b7100000000000000000000000000000000000000000000000000000000600052603260045260246000fd5b60200101907effffffffffffffffffffffffffffffffffffffffffffffffffffffffffffff1916908160001a9053507f78000000000000000000000000000000000000000000000000000000000000008160018151811061222b577f4e487b7100000000000000000000000000000000000000000000000000000000600052603260045260246000fd5b60200101907effffffffffffffffffffffffffffffffffffffffffffffffffffffffffffff1916908160001a9053506000600184600261226b9190613aa1565b6122759190613a4b565b90505b6001811115612361577f3031323334353637383961626364656600000000000000000000000000000000600f8616601081106122dd577f4e487b7100000000000000000000000000000000000000000000000000000000600052603260045260246000fd5b1a60f81b82828151811061231a577f4e487b7100000000000000000000000000000000000000000000000000000000600052603260045260246000fd5b60200101907effffffffffffffffffffffffffffffffffffffffffffffffffffffffffffff1916908160001a905350600485901c94508061235a90613bbb565b9050612278565b50600084146123a5576040517f08c379a000000000000000000000000000000000000000000000000000000000815260040161239c906136ec565b60405180910390fd5b8091505092915050565b505050505050565b6123d68473ffffffffffffffffffffffffffffffffffffffff166128b5565b15612596578373ffffffffffffffffffffffffffffffffffffffff1663bc197c8187878686866040518663ffffffff1660e01b815260040161241c959493929190613559565b602060405180830381600087803b15801561243657600080fd5b505af192505050801561246757506040513d601f19601f8201168201806040525081019061246491906130d5565b60015b61250d57612473613d1e565b806308c379a014156124d0575061248861422b565b8061249357506124d2565b806040517f08c379a00000000000000000000000000000000000000000000000000000000081526004016124c791906136aa565b60405180910390fd5b505b6040517f08c379a0000000000000000000000000000000000000000000000000000000008152600401612504906136cc565b60405180910390fd5b63bc197c8160e01b7bffffffffffffffffffffffffffffffffffffffffffffffffffffffff1916817bffffffffffffffffffffffffffffffffffffffffffffffffffffffff191614612594576040517f08c379a000000000000000000000000000000000000000000000000000000000815260040161258b9061370c565b60405180910390fd5b505b505050505050565b60606000600167ffffffffffffffff8111156125e3577f4e487b7100000000000000000000000000000000000000000000000000000000600052604160045260246000fd5b6040519080825280602002602001820160405280156126115781602001602082028036833780820191505090505b509050828160008151811061264f577f4e487b7100000000000000000000000000000000000000000000000000000000600052603260045260246000fd5b60200260200101818152505080915050919050565b6126838473ffffffffffffffffffffffffffffffffffffffff166128b5565b15612843578373ffffffffffffffffffffffffffffffffffffffff1663f23a6e6187878686866040518663ffffffff1660e01b81526004016126c99594939291906135c1565b602060405180830381600087803b1580156126e357600080fd5b505af192505050801561271457506040513d601f19601f8201168201806040525081019061271191906130d5565b60015b6127ba57612720613d1e565b806308c379a0141561277d575061273561422b565b80612740575061277f565b806040517f08c379a000000000000000000000000000000000000000000000000000000000815260040161277491906136aa565b60405180910390fd5b505b6040517f08c379a00000000000000000000000000000000000000000000000000000000081526004016127b1906136cc565b60405180910390fd5b63f23a6e6160e01b7bffffffffffffffffffffffffffffffffffffffffffffffffffffffff1916817bffffffffffffffffffffffffffffffffffffffffffffffffffffffff191614612841576040517f08c379a00000000000000000000000000000000000000000000000000000000081526004016128389061370c565b60405180910390fd5b505b505050505050565b60007f01ffc9a7000000000000000000000000000000000000000000000000000000007bffffffffffffffffffffffffffffffffffffffffffffffffffffffff1916827bffffffffffffffffffffffffffffffffffffffffffffffffffffffff1916149050919050565b600080823b905060008111915050919050565b8280546128d490613be5565b90600052602060002090601f0160209004810192826128f6576000855561293d565b82601f1061290f57805160ff191683800117855561293d565b8280016001018555821561293d579182015b8281111561293c578251825591602001919060010190612921565b5b50905061294a919061294e565b5090565b5b8082111561296757600081600090555060010161294f565b5090565b600061297e61297984613915565b6138f0565b9050808382526020820190508285602086028201111561299d57600080fd5b60005b858110156129cd57816129b38882612abf565b8452602084019350602083019250506001810190506129a0565b5050509392505050565b60006129ea6129e584613941565b6138f0565b90508083825260208201905082856020860282011115612a0957600080fd5b60005b85811015612a395781612a1f8882612bd0565b845260208401935060208301925050600181019050612a0c565b5050509392505050565b6000612a56612a518461396d565b6138f0565b905082815260208101848484011115612a6e57600080fd5b612a79848285613b79565b509392505050565b6000612a94612a8f8461399e565b6138f0565b905082815260208101848484011115612aac57600080fd5b612ab7848285613b79565b509392505050565b600081359050612ace816142c1565b92915050565b600082601f830112612ae557600080fd5b8135612af584826020860161296b565b91505092915050565b600082601f830112612b0f57600080fd5b8135612b1f8482602086016129d7565b91505092915050565b600081359050612b37816142d8565b92915050565b600081359050612b4c816142ef565b92915050565b600081359050612b6181614306565b92915050565b600081519050612b7681614306565b92915050565b600082601f830112612b8d57600080fd5b8135612b9d848260208601612a43565b91505092915050565b600082601f830112612bb757600080fd5b8135612bc7848260208601612a81565b91505092915050565b600081359050612bdf8161431d565b92915050565b60008060408385031215612bf857600080fd5b6000612c0685828601612abf565b9250506020612c1785828601612abf565b9150509250929050565b600080600080600060a08688031215612c3957600080fd5b6000612c4788828901612abf565b9550506020612c5888828901612abf565b945050604086013567ffffffffffffffff811115612c7557600080fd5b612c8188828901612afe565b935050606086013567ffffffffffffffff811115612c9e57600080fd5b612caa88828901612afe565b925050608086013567ffffffffffffffff811115612cc757600080fd5b612cd388828901612b7c565b9150509295509295909350565b600080600080600060a08688031215612cf857600080fd5b6000612d0688828901612abf565b9550506020612d1788828901612abf565b9450506040612d2888828901612bd0565b9350506060612d3988828901612bd0565b925050608086013567ffffffffffffffff811115612d5657600080fd5b612d6288828901612b7c565b9150509295509295909350565b600080600060608486031215612d8457600080fd5b6000612d9286828701612abf565b935050602084013567ffffffffffffffff811115612daf57600080fd5b612dbb86828701612afe565b925050604084013567ffffffffffffffff811115612dd857600080fd5b612de486828701612afe565b9150509250925092565b60008060008060808587031215612e0457600080fd5b6000612e1287828801612abf565b945050602085013567ffffffffffffffff811115612e2f57600080fd5b612e3b87828801612afe565b935050604085013567ffffffffffffffff811115612e5857600080fd5b612e6487828801612afe565b925050606085013567ffffffffffffffff811115612e8157600080fd5b612e8d87828801612b7c565b91505092959194509250565b60008060408385031215612eac57600080fd5b6000612eba85828601612abf565b9250506020612ecb85828601612b28565b9150509250929050565b60008060408385031215612ee857600080fd5b6000612ef685828601612abf565b9250506020612f0785828601612bd0565b9150509250929050565b600080600060608486031215612f2657600080fd5b6000612f3486828701612abf565b9350506020612f4586828701612bd0565b9250506040612f5686828701612bd0565b9150509250925092565b60008060008060808587031215612f7657600080fd5b6000612f8487828801612abf565b9450506020612f9587828801612bd0565b9350506040612fa687828801612bd0565b925050606085013567ffffffffffffffff811115612fc357600080fd5b612fcf87828801612b7c565b91505092959194509250565b60008060408385031215612fee57600080fd5b600083013567ffffffffffffffff81111561300857600080fd5b61301485828601612ad4565b925050602083013567ffffffffffffffff81111561303157600080fd5b61303d85828601612afe565b9150509250929050565b60006020828403121561305957600080fd5b600061306784828501612b3d565b91505092915050565b6000806040838503121561308357600080fd5b600061309185828601612b3d565b92505060206130a285828601612abf565b9150509250929050565b6000602082840312156130be57600080fd5b60006130cc84828501612b52565b91505092915050565b6000602082840312156130e757600080fd5b60006130f584828501612b67565b91505092915050565b60006020828403121561311057600080fd5b600082013567ffffffffffffffff81111561312a57600080fd5b61313684828501612ba6565b91505092915050565b60006020828403121561315157600080fd5b600061315f84828501612bd0565b91505092915050565b60006131748383613501565b60208301905092915050565b61318981613afb565b82525050565b600061319a826139df565b6131a48185613a0d565b93506131af836139cf565b8060005b838110156131e05781516131c78882613168565b97506131d283613a00565b9250506001810190506131b3565b5085935050505092915050565b6131f681613b0d565b82525050565b61320581613b19565b82525050565b6000613216826139ea565b6132208185613a1e565b9350613230818560208601613b88565b61323981613d40565b840191505092915050565b600061324f826139f5565b6132598185613a2f565b9350613269818560208601613b88565b61327281613d40565b840191505092915050565b6000613288826139f5565b6132928185613a40565b93506132a2818560208601613b88565b80840191505092915050565b60006132bb603483613a2f565b91506132c682613d5e565b604082019050919050565b60006132de602083613a2f565b91506132e982613dad565b602082019050919050565b6000613301602883613a2f565b915061330c82613dd6565b604082019050919050565b6000613324602b83613a2f565b915061332f82613e25565b604082019050919050565b6000613347602483613a2f565b915061335282613e74565b604082019050919050565b600061336a602983613a2f565b915061337582613ec3565b604082019050919050565b600061338d602583613a2f565b915061339882613f12565b604082019050919050565b60006133b0603283613a2f565b91506133bb82613f61565b604082019050919050565b60006133d3602383613a2f565b91506133de82613fb0565b604082019050919050565b60006133f6602a83613a2f565b915061340182613fff565b604082019050919050565b6000613419601783613a40565b91506134248261404e565b601782019050919050565b600061343c602983613a2f565b915061344782614077565b604082019050919050565b600061345f602983613a2f565b915061346a826140c6565b604082019050919050565b6000613482602883613a2f565b915061348d82614115565b604082019050919050565b60006134a5602183613a2f565b91506134b082614164565b604082019050919050565b60006134c8601183613a40565b91506134d3826141b3565b601182019050919050565b60006134eb602f83613a2f565b91506134f6826141dc565b604082019050919050565b61350a81613b6f565b82525050565b61351981613b6f565b82525050565b600061352a8261340c565b9150613536828561327d565b9150613541826134bb565b915061354d828461327d565b91508190509392505050565b600060a08201905061356e6000830188613180565b61357b6020830187613180565b818103604083015261358d818661318f565b905081810360608301526135a1818561318f565b905081810360808301526135b5818461320b565b90509695505050505050565b600060a0820190506135d66000830188613180565b6135e36020830187613180565b6135f06040830186613510565b6135fd6060830185613510565b818103608083015261360f818461320b565b90509695505050505050565b60006020820190508181036000830152613635818461318f565b905092915050565b60006040820190508181036000830152613657818561318f565b9050818103602083015261366b818461318f565b90509392505050565b600060208201905061368960008301846131ed565b92915050565b60006020820190506136a460008301846131fc565b92915050565b600060208201905081810360008301526136c48184613244565b905092915050565b600060208201905081810360008301526136e5816132ae565b9050919050565b60006020820190508181036000830152613705816132d1565b9050919050565b60006020820190508181036000830152613725816132f4565b9050919050565b6000602082019050818103600083015261374581613317565b9050919050565b600060208201905081810360008301526137658161333a565b9050919050565b600060208201905081810360008301526137858161335d565b9050919050565b600060208201905081810360008301526137a581613380565b9050919050565b600060208201905081810360008301526137c5816133a3565b9050919050565b600060208201905081810360008301526137e5816133c6565b9050919050565b60006020820190508181036000830152613805816133e9565b9050919050565b600060208201905081810360008301526138258161342f565b9050919050565b6000602082019050818103600083015261384581613452565b9050919050565b6000602082019050818103600083015261386581613475565b9050919050565b6000602082019050818103600083015261388581613498565b9050919050565b600060208201905081810360008301526138a5816134de565b9050919050565b60006020820190506138c16000830184613510565b92915050565b60006040820190506138dc6000830185613510565b6138e96020830184613510565b9392505050565b60006138fa61390b565b90506139068282613c17565b919050565b6000604051905090565b600067ffffffffffffffff8211156139305761392f613cef565b5b602082029050602081019050919050565b600067ffffffffffffffff82111561395c5761395b613cef565b5b602082029050602081019050919050565b600067ffffffffffffffff82111561398857613987613cef565b5b61399182613d40565b9050602081019050919050565b600067ffffffffffffffff8211156139b9576139b8613cef565b5b6139c282613d40565b9050602081019050919050565b6000819050602082019050919050565b600081519050919050565b600081519050919050565b600081519050919050565b6000602082019050919050565b600082825260208201905092915050565b600082825260208201905092915050565b600082825260208201905092915050565b600081905092915050565b6000613a5682613b6f565b9150613a6183613b6f565b9250827fffffffffffffffffffffffffffffffffffffffffffffffffffffffffffffffff03821115613a9657613a95613c91565b5b828201905092915050565b6000613aac82613b6f565b9150613ab783613b6f565b9250817fffffffffffffffffffffffffffffffffffffffffffffffffffffffffffffffff0483118215151615613af057613aef613c91565b5b828202905092915050565b6000613b0682613b4f565b9050919050565b60008115159050919050565b6000819050919050565b60007fffffffff0000000000000000000000000000000000000000000000000000000082169050919050565b600073ffffffffffffffffffffffffffffffffffffffff82169050919050565b6000819050919050565b82818337600083830152505050565b60005b83811015613ba6578082015181840152602081019050613b8b565b83811115613bb5576000848401525b50505050565b6000613bc682613b6f565b91506000821415613bda57613bd9613c91565b5b600182039050919050565b60006002820490506001821680613bfd57607f821691505b60208210811415613c1157613c10613cc0565b5b50919050565b613c2082613d40565b810181811067ffffffffffffffff82111715613c3f57613c3e613cef565b5b80604052505050565b6000613c5382613b6f565b91507fffffffffffffffffffffffffffffffffffffffffffffffffffffffffffffffff821415613c8657613c85613c91565b5b600182019050919050565b7f4e487b7100000000000000000000000000000000000000000000000000000000600052601160045260246000fd5b7f4e487b7100000000000000000000000000000000000000000000000000000000600052602260045260246000fd5b7f4e487b7100000000000000000000000000000000000000000000000000000000600052604160045260246000fd5b600060033d1115613d3d5760046000803e613d3a600051613d51565b90505b90565b6000601f19601f8301169050919050565b60008160e01c9050919050565b7f455243313135353a207472616e7366657220746f206e6f6e204552433131353560008201527f526563656976657220696d706c656d656e746572000000000000000000000000602082015250565b7f537472696e67733a20686578206c656e67746820696e73756666696369656e74600082015250565b7f455243313135353a204552433131353552656365697665722072656a6563746560008201527f6420746f6b656e73000000000000000000000000000000000000000000000000602082015250565b7f455243313135353a2062616c616e636520717565727920666f7220746865207a60008201527f65726f2061646472657373000000000000000000000000000000000000000000602082015250565b7f455243313135353a206275726e20616d6f756e7420657863656564732062616c60008201527f616e636500000000000000000000000000000000000000000000000000000000602082015250565b7f455243313135353a2063616c6c6572206973206e6f74206f776e6572206e6f7260008201527f20617070726f7665640000000000000000000000000000000000000000000000602082015250565b7f455243313135353a207472616e7366657220746f20746865207a65726f20616460008201527f6472657373000000000000000000000000000000000000000000000000000000602082015250565b7f455243313135353a207472616e736665722063616c6c6572206973206e6f742060008201527f6f776e6572206e6f7220617070726f7665640000000000000000000000000000602082015250565b7f455243313135353a206275726e2066726f6d20746865207a65726f206164647260008201527f6573730000000000000000000000000000000000000000000000000000000000602082015250565b7f455243313135353a20696e73756666696369656e742062616c616e636520666f60008201527f72207472616e7366657200000000000000000000000000000000000000000000602082015250565b7f416363657373436f6e74726f6c3a206163636f756e7420000000000000000000600082015250565b7f455243313135353a2073657474696e6720617070726f76616c2073746174757360008201527f20666f722073656c660000000000000000000000000000000000000000000000602082015250565b7f455243313135353a206163636f756e747320616e6420696473206c656e67746860008201527f206d69736d617463680000000000000000000000000000000000000000000000602082015250565b7f455243313135353a2069647320616e6420616d6f756e7473206c656e6774682060008201527f6d69736d61746368000000000000000000000000000000000000000000000000602082015250565b7f455243313135353a206d696e7420746f20746865207a65726f2061646472657360008201527f7300000000000000000000000000000000000000000000000000000000000000602082015250565b7f206973206d697373696e6720726f6c6520000000000000000000000000000000600082015250565b7f416363657373436f6e74726f6c3a2063616e206f6e6c792072656e6f756e636560008201527f20726f6c657320666f722073656c660000000000000000000000000000000000602082015250565b600060443d101561423b576142be565b61424361390b565b60043d036004823e80513d602482011167ffffffffffffffff8211171561426b5750506142be565b808201805167ffffffffffffffff81111561428957505050506142be565b80602083010160043d0385018111156142a65750505050506142be565b6142b582602001850186613c17565b82955050505050505b90565b6142ca81613afb565b81146142d557600080fd5b50565b6142e181613b0d565b81146142ec57600080fd5b50565b6142f881613b19565b811461430357600080fd5b50565b61430f81613b23565b811461431a57600080fd5b50565b61432681613b6f565b811461433157600080fd5b5056fea264697066735822122054001cbfedaff3fb383fbe298eed902b2d402800b77c127ef7e76bb6205688f864736f6c63430008020033",
  "immutableReferences": {},
  "source": "// SPDX-License-Identifier: MIT\r\npragma solidity 0.8.2;\r\n\r\n// The AssetsAccountant keeps records of all deposits, withdrawals, and minted assets by user.\r\n\r\nimport \"@openzeppelin/contracts/token/ERC1155/ERC1155.sol\";\r\nimport \"@openzeppelin/contracts/access/AccessControl.sol\";\r\n\r\ncontract AssetsAccountant is ERC1155, AccessControl {\r\n    bytes32 public constant URI_SETTER_ROLE = keccak256(\"URI_SETTER_ROLE\");\r\n    bytes32 public constant MINTER_ROLE = keccak256(\"MINTER_ROLE\");\r\n    bytes32 public constant BURNER_ROLE = keccak256(\"BURNER_ROLE\");\r\n\r\n    constructor() ERC1155(\"\") {\r\n        _setupRole(DEFAULT_ADMIN_ROLE, msg.sender);\r\n        _setupRole(URI_SETTER_ROLE, msg.sender);\r\n        _setupRole(MINTER_ROLE, msg.sender);\r\n        _setupRole(BURNER_ROLE, msg.sender);\r\n    }\r\n\r\n    function setURI(string memory newuri) public onlyRole(URI_SETTER_ROLE) {\r\n        _setURI(newuri);\r\n    }\r\n\r\n    function mint(address account, uint256 id, uint256 amount, bytes memory data)\r\n        public\r\n        onlyRole(MINTER_ROLE)\r\n    {\r\n        _mint(account, id, amount, data);\r\n    }\r\n\r\n    function mintBatch(address to, uint256[] memory ids, uint256[] memory amounts, bytes memory data)\r\n        public\r\n        onlyRole(MINTER_ROLE)\r\n    {\r\n        _mintBatch(to, ids, amounts, data);\r\n    }\r\n\r\n    function burn(\r\n        address account,\r\n        uint256 id,\r\n        uint256 value\r\n    ) public onlyRole(BURNER_ROLE) {\r\n        _burn(account, id, value);\r\n    }\r\n\r\n    function burnBatch(\r\n        address account,\r\n        uint256[] memory ids,\r\n        uint256[] memory values\r\n    ) public onlyRole(BURNER_ROLE) {\r\n        _burnBatch(account, ids, values);\r\n    }\r\n\r\n    // The following functions are overrides required by Solidity.\r\n\r\n    function supportsInterface(bytes4 interfaceId)\r\n        public\r\n        view\r\n        override(ERC1155, AccessControl)\r\n        returns (bool)\r\n    {\r\n        return super.supportsInterface(interfaceId);\r\n    }\r\n}",
  "sourcePath": "C:\\Users\\DCota\\Documents\\Crypto\\Consensys Blockchain Developer\\blockchain-developer-bootcamp-final-project\\contracts\\AssetsAccountant.sol",
  "compiler": {
    "name": "solc",
    "version": "0.8.2+commit.661d1103.Emscripten.clang"
  },
  "schemaVersion": "3.4.3",
  "updatedAt": "2021-10-30T02:57:29.696Z",
  "devdoc": {
    "kind": "dev",
    "methods": {
      "balanceOf(address,uint256)": {
        "details": "See {IERC1155-balanceOf}. Requirements: - `account` cannot be the zero address."
      },
      "balanceOfBatch(address[],uint256[])": {
        "details": "See {IERC1155-balanceOfBatch}. Requirements: - `accounts` and `ids` must have the same length."
      },
      "getRoleAdmin(bytes32)": {
        "details": "Returns the admin role that controls `role`. See {grantRole} and {revokeRole}. To change a role's admin, use {_setRoleAdmin}."
      },
      "grantRole(bytes32,address)": {
        "details": "Grants `role` to `account`. If `account` had not been already granted `role`, emits a {RoleGranted} event. Requirements: - the caller must have ``role``'s admin role."
      },
      "hasRole(bytes32,address)": {
        "details": "Returns `true` if `account` has been granted `role`."
      },
      "isApprovedForAll(address,address)": {
        "details": "See {IERC1155-isApprovedForAll}."
      },
      "renounceRole(bytes32,address)": {
        "details": "Revokes `role` from the calling account. Roles are often managed via {grantRole} and {revokeRole}: this function's purpose is to provide a mechanism for accounts to lose their privileges if they are compromised (such as when a trusted device is misplaced). If the calling account had been granted `role`, emits a {RoleRevoked} event. Requirements: - the caller must be `account`."
      },
      "revokeRole(bytes32,address)": {
        "details": "Revokes `role` from `account`. If `account` had been granted `role`, emits a {RoleRevoked} event. Requirements: - the caller must have ``role``'s admin role."
      },
      "safeBatchTransferFrom(address,address,uint256[],uint256[],bytes)": {
        "details": "See {IERC1155-safeBatchTransferFrom}."
      },
      "safeTransferFrom(address,address,uint256,uint256,bytes)": {
        "details": "See {IERC1155-safeTransferFrom}."
      },
      "setApprovalForAll(address,bool)": {
        "details": "See {IERC1155-setApprovalForAll}."
      },
      "uri(uint256)": {
        "details": "See {IERC1155MetadataURI-uri}. This implementation returns the same URI for *all* token types. It relies on the token type ID substitution mechanism https://eips.ethereum.org/EIPS/eip-1155#metadata[defined in the EIP]. Clients calling this function must replace the `\\{id\\}` substring with the actual token type ID."
      }
    },
    "version": 1
  },
  "userdoc": {
    "kind": "user",
    "methods": {},
    "version": 1
  }
}