{
  "contractName": "HouseOfCoin",
  "abi": [
    {
      "anonymous": false,
      "inputs": [
        {
          "indexed": true,
          "internalType": "address",
          "name": "user",
          "type": "address"
        },
        {
          "indexed": true,
          "internalType": "uint256",
          "name": "backedtokenID",
          "type": "uint256"
        },
        {
          "indexed": false,
          "internalType": "uint256",
          "name": "amount",
          "type": "uint256"
        }
      ],
      "name": "CoinMinted",
      "type": "event"
    },
    {
      "anonymous": false,
      "inputs": [
        {
          "indexed": true,
          "internalType": "address",
          "name": "user",
          "type": "address"
        },
        {
          "indexed": true,
          "internalType": "uint256",
          "name": "backedtokenID",
          "type": "uint256"
        },
        {
          "indexed": false,
          "internalType": "uint256",
          "name": "amount",
          "type": "uint256"
        }
      ],
      "name": "CoinPayback",
      "type": "event"
    },
    {
      "inputs": [],
      "name": "HOUSE_TYPE",
      "outputs": [
        {
          "internalType": "bytes32",
          "name": "",
          "type": "bytes32"
        }
      ],
      "stateMutability": "view",
      "type": "function"
    },
    {
      "inputs": [],
      "name": "assetsAccountant",
      "outputs": [
        {
          "internalType": "address",
          "name": "",
          "type": "address"
        }
      ],
      "stateMutability": "view",
      "type": "function"
    },
    {
      "inputs": [],
      "name": "backedAsset",
      "outputs": [
        {
          "internalType": "address",
          "name": "",
          "type": "address"
        }
      ],
      "stateMutability": "view",
      "type": "function"
    },
    {
      "inputs": [],
      "name": "oracle",
      "outputs": [
        {
          "internalType": "contract IOracle",
          "name": "",
          "type": "address"
        }
      ],
      "stateMutability": "view",
      "type": "function"
    },
    {
      "inputs": [
        {
          "internalType": "address",
          "name": "_backedAsset",
          "type": "address"
        },
        {
          "internalType": "address",
          "name": "_assetsAccountant",
          "type": "address"
        },
        {
          "internalType": "address",
          "name": "_oracle",
          "type": "address"
        }
      ],
      "name": "initialize",
      "outputs": [],
      "stateMutability": "nonpayable",
      "type": "function"
    },
    {
      "inputs": [
        {
          "internalType": "address",
          "name": "reserveAsset",
          "type": "address"
        },
        {
          "internalType": "address",
          "name": "houseOfReserve",
          "type": "address"
        },
        {
          "internalType": "uint256",
          "name": "amount",
          "type": "uint256"
        }
      ],
      "name": "mintCoin",
      "outputs": [],
      "stateMutability": "nonpayable",
      "type": "function"
    },
    {
      "inputs": [
        {
          "internalType": "uint256",
          "name": "_backedTokenID",
          "type": "uint256"
        },
        {
          "internalType": "uint256",
          "name": "amount",
          "type": "uint256"
        }
      ],
      "name": "paybackCoin",
      "outputs": [],
      "stateMutability": "nonpayable",
      "type": "function"
    },
    {
      "inputs": [
        {
          "internalType": "address",
          "name": "_reserveAsset",
          "type": "address"
        }
      ],
      "name": "getBackedTokenID",
      "outputs": [
        {
          "internalType": "uint256",
          "name": "",
          "type": "uint256"
        }
      ],
      "stateMutability": "view",
      "type": "function"
    },
    {
      "inputs": [
        {
          "internalType": "address",
          "name": "user",
          "type": "address"
        },
        {
          "internalType": "address",
          "name": "reserveAsset",
          "type": "address"
        }
      ],
      "name": "checkMintingPower",
      "outputs": [
        {
          "internalType": "uint256",
          "name": "",
          "type": "uint256"
        }
      ],
      "stateMutability": "view",
      "type": "function"
    },
    {
      "inputs": [
        {
          "internalType": "address",
          "name": "user",
          "type": "address"
        },
        {
          "internalType": "uint256",
          "name": "reserveTokenID",
          "type": "uint256"
        },
        {
          "internalType": "uint256",
          "name": "backedTokenID",
          "type": "uint256"
        },
        {
          "components": [
            {
              "internalType": "uint256",
              "name": "numerator",
              "type": "uint256"
            },
            {
              "internalType": "uint256",
              "name": "denominator",
              "type": "uint256"
            }
          ],
          "internalType": "struct IHouseOfReserveState.Factor",
          "name": "collatRatio",
          "type": "tuple"
        },
        {
          "internalType": "uint256",
          "name": "price",
          "type": "uint256"
        }
      ],
      "name": "_checkMintingPower",
      "outputs": [
        {
          "internalType": "uint256",
          "name": "",
          "type": "uint256"
        }
      ],
      "stateMutability": "view",
      "type": "function"
    }
  ],
  "bytecode": "0x608060405234801561001057600080fd5b506121aa806100206000396000f3fe608060405234801561001057600080fd5b506004361061009e5760003560e01c80639af042ec116100665780639af042ec1461015b578063a52e7d701461018b578063c0c53b8b146101a9578063ced134f0146101c5578063d166d710146101e15761009e565b806310ceb71b146100a357806320a2fe2c146100d35780637dc0d1d0146100f15780637ea929d61461010f5780638cdea4c91461012b575b600080fd5b6100bd60048036038101906100b891906114e0565b6101ff565b6040516100ca9190611b2c565b60405180910390f35b6100db610256565b6040516100e891906119ed565b60405180910390f35b6100f961027a565b6040516101069190611a31565b60405180910390f35b610129600480360381019061012491906115bd565b6102a0565b005b61014560048036038101906101409190611532565b6108f0565b6040516101529190611b2c565b60405180910390f35b6101756004803603810190610170919061160c565b610ba9565b6040516101829190611b2c565b60405180910390f35b610193610c08565b6040516101a091906118ff565b60405180910390f35b6101c360048036038101906101be919061156e565b610c2e565b005b6101df60048036038101906101da91906116fe565b610dcd565b005b6101e961112c565b6040516101f691906118ff565b60405180910390f35b600081600060029054906101000a900473ffffffffffffffffffffffffffffffffffffffff166040516020016102369291906118c8565b6040516020818303038152906040528051906020012060001c9050919050565b7f0e8d57385c93a5e38777996badb732bccd842bb4d3c5896e296a53db92c724d381565b600260009054906101000a900473ffffffffffffffffffffffffffffffffffffffff1681565b600082905060008060029054906101000a900473ffffffffffffffffffffffffffffffffffffffff16905060008273ffffffffffffffffffffffffffffffffffffffff16638f429cd06040518163ffffffff1660e01b815260040160206040518083038186803b15801561031357600080fd5b505afa158015610327573d6000803e3d6000fd5b505050506040513d601f19601f8201168201806040525081019061034b91906116d5565b90506000610358876101ff565b9050600073ffffffffffffffffffffffffffffffffffffffff16600160009054906101000a900473ffffffffffffffffffffffffffffffffffffffff1673ffffffffffffffffffffffffffffffffffffffff166308b49517846040518263ffffffff1660e01b81526004016103cd9190611b2c565b60206040518083038186803b1580156103e557600080fd5b505afa1580156103f9573d6000803e3d6000fd5b505050506040513d601f19601f8201168201806040525081019061041d9190611509565b73ffffffffffffffffffffffffffffffffffffffff16141580156104e957508673ffffffffffffffffffffffffffffffffffffffff168473ffffffffffffffffffffffffffffffffffffffff1663f85cb5c86040518163ffffffff1660e01b815260040160206040518083038186803b15801561049957600080fd5b505afa1580156104ad573d6000803e3d6000fd5b505050506040513d601f19601f820116820180604052508101906104d19190611509565b73ffffffffffffffffffffffffffffffffffffffff16145b610528576040517f08c379a000000000000000000000000000000000000000000000000000000000815260040161051f90611a6c565b60405180910390fd5b8273ffffffffffffffffffffffffffffffffffffffff166391d148547f9f2df0fed2c77648de5860a4cc508cd0818c85b8b8a1ab4ceeef8d981c8956a6306040518363ffffffff1660e01b8152600401610583929190611a08565b60206040518083038186803b15801561059b57600080fd5b505afa1580156105af573d6000803e3d6000fd5b505050506040513d601f19601f820116820180604052508101906105d39190611683565b610612576040517f08c379a000000000000000000000000000000000000000000000000000000000815260040161060990611acc565b60405180910390fd5b60008473ffffffffffffffffffffffffffffffffffffffff1663b4eae1cb6040518163ffffffff1660e01b8152600401604080518083038186803b15801561065957600080fd5b505afa15801561066d573d6000803e3d6000fd5b505050506040513d601f19601f8201168201806040525081019061069191906116ac565b90506000600260009054906101000a900473ffffffffffffffffffffffffffffffffffffffff1673ffffffffffffffffffffffffffffffffffffffff1663d8cf24fd6040518163ffffffff1660e01b815260040160206040518083038186803b1580156106fd57600080fd5b505afa158015610711573d6000803e3d6000fd5b505050506040513d601f19601f8201168201806040525081019061073591906116d5565b905060006107463386868686610ba9565b90506000811180156107585750878110155b610797576040517f08c379a000000000000000000000000000000000000000000000000000000000815260040161078e90611aac565b60405180910390fd5b600160009054906101000a900473ffffffffffffffffffffffffffffffffffffffff1673ffffffffffffffffffffffffffffffffffffffff1663731133e933868b6040518463ffffffff1660e01b81526004016107f6939291906119a3565b600060405180830381600087803b15801561081057600080fd5b505af1158015610824573d6000803e3d6000fd5b505050508573ffffffffffffffffffffffffffffffffffffffff166340c10f19338a6040518363ffffffff1660e01b8152600401610863929190611943565b600060405180830381600087803b15801561087d57600080fd5b505af1158015610891573d6000803e3d6000fd5b50505050833373ffffffffffffffffffffffffffffffffffffffff167f42f200ad9609650196d468a16843849f4b71d967123c6d24420dd3eb2b299b9c8a6040516108dc9190611b2c565b60405180910390a350505050505050505050565b600080600160009054906101000a900473ffffffffffffffffffffffffffffffffffffffff16905060008173ffffffffffffffffffffffffffffffffffffffff1663a0d31bf685600060029054906101000a900473ffffffffffffffffffffffffffffffffffffffff166040518363ffffffff1660e01b815260040161097792919061191a565b60206040518083038186803b15801561098f57600080fd5b505afa1580156109a3573d6000803e3d6000fd5b505050506040513d601f19601f820116820180604052508101906109c791906116d5565b905060006109d4856101ff565b905060008373ffffffffffffffffffffffffffffffffffffffff166308b49517846040518263ffffffff1660e01b8152600401610a119190611b2c565b60206040518083038186803b158015610a2957600080fd5b505afa158015610a3d573d6000803e3d6000fd5b505050506040513d601f19601f82011682018060405250810190610a619190611509565b9050600081905060008173ffffffffffffffffffffffffffffffffffffffff1663b4eae1cb6040518163ffffffff1660e01b8152600401604080518083038186803b158015610aaf57600080fd5b505afa158015610ac3573d6000803e3d6000fd5b505050506040513d601f19601f82011682018060405250810190610ae791906116ac565b90506000600260009054906101000a900473ffffffffffffffffffffffffffffffffffffffff1673ffffffffffffffffffffffffffffffffffffffff1663d8cf24fd6040518163ffffffff1660e01b815260040160206040518083038186803b158015610b5357600080fd5b505afa158015610b67573d6000803e3d6000fd5b505050506040513d601f19601f82011682018060405250810190610b8b91906116d5565b9050610b9a8a87878585610ba9565b97505050505050505092915050565b6000806000610bb9888888611152565b915091506000821415610bd157600092505050610bff565b600080610be0848489896112b9565b915091508115610bf7576000945050505050610bff565b809450505050505b95945050505050565b600060029054906101000a900473ffffffffffffffffffffffffffffffffffffffff1681565b600060019054906101000a900460ff1680610c54575060008054906101000a900460ff16155b610c93576040517f08c379a0000000000000000000000000000000000000000000000000000000008152600401610c8a90611a4c565b60405180910390fd5b60008060019054906101000a900460ff161590508015610ce3576001600060016101000a81548160ff02191690831515021790555060016000806101000a81548160ff0219169083151502179055505b83600060026101000a81548173ffffffffffffffffffffffffffffffffffffffff021916908373ffffffffffffffffffffffffffffffffffffffff16021790555082600160006101000a81548173ffffffffffffffffffffffffffffffffffffffff021916908373ffffffffffffffffffffffffffffffffffffffff16021790555081600260006101000a81548173ffffffffffffffffffffffffffffffffffffffff021916908373ffffffffffffffffffffffffffffffffffffffff1602179055508015610dc75760008060016101000a81548160ff0219169083151502179055505b50505050565b6000600160009054906101000a900473ffffffffffffffffffffffffffffffffffffffff16905060008060029054906101000a900473ffffffffffffffffffffffffffffffffffffffff16905060008273ffffffffffffffffffffffffffffffffffffffff1662fdd58e33876040518363ffffffff1660e01b8152600401610e56929190611943565b60206040518083038186803b158015610e6e57600080fd5b505afa158015610e82573d6000803e3d6000fd5b505050506040513d601f19601f82011682018060405250810190610ea691906116d5565b90506000811015610eec576040517f08c379a0000000000000000000000000000000000000000000000000000000008152600401610ee390611a8c565b60405180910390fd5b83811015610f2f576040517f08c379a0000000000000000000000000000000000000000000000000000000008152600401610f2690611b0c565b60405180910390fd5b838273ffffffffffffffffffffffffffffffffffffffff166370a08231336040518263ffffffff1660e01b8152600401610f6991906118ff565b60206040518083038186803b158015610f8157600080fd5b505afa158015610f95573d6000803e3d6000fd5b505050506040513d601f19601f82011682018060405250810190610fb991906116d5565b1015610ffa576040517f08c379a0000000000000000000000000000000000000000000000000000000008152600401610ff190611aec565b60405180910390fd5b8173ffffffffffffffffffffffffffffffffffffffff16639dc29fac33866040518363ffffffff1660e01b8152600401611035929190611943565b600060405180830381600087803b15801561104f57600080fd5b505af1158015611063573d6000803e3d6000fd5b505050508273ffffffffffffffffffffffffffffffffffffffff1663f5298aca3387876040518463ffffffff1660e01b81526004016110a49392919061196c565b600060405180830381600087803b1580156110be57600080fd5b505af11580156110d2573d6000803e3d6000fd5b50505050843373ffffffffffffffffffffffffffffffffffffffff167f148da5afeb88a44f2de008629181952ed8c91cffe028686b6986e5b36842a4368660405161111d9190611b2c565b60405180910390a35050505050565b600160009054906101000a900473ffffffffffffffffffffffffffffffffffffffff1681565b600080600160009054906101000a900473ffffffffffffffffffffffffffffffffffffffff1673ffffffffffffffffffffffffffffffffffffffff1662fdd58e86866040518363ffffffff1660e01b81526004016111b1929190611943565b60206040518083038186803b1580156111c957600080fd5b505afa1580156111dd573d6000803e3d6000fd5b505050506040513d601f19601f8201168201806040525081019061120191906116d5565b9150600160009054906101000a900473ffffffffffffffffffffffffffffffffffffffff1673ffffffffffffffffffffffffffffffffffffffff1662fdd58e86856040518363ffffffff1660e01b815260040161125f929190611943565b60206040518083038186803b15801561127757600080fd5b505afa15801561128b573d6000803e3d6000fd5b505050506040513d601f19601f820116820180604052508101906112af91906116d5565b9050935093915050565b600080600084600001518560200151886112d39190611d3b565b6112dd9190611b99565b90506000600260009054906101000a900473ffffffffffffffffffffffffffffffffffffffff1673ffffffffffffffffffffffffffffffffffffffff166381e6be606040518163ffffffff1660e01b815260040160206040518083038186803b15801561134957600080fd5b505afa15801561135d573d6000803e3d6000fd5b505050506040513d601f19601f8201168201806040525081019061138191906116d5565b600a61138d9190611c1d565b85836113999190611d3b565b6113a39190611b99565b90508087116113b35760006113b6565b60015b935083156113c55760006113d2565b86816113d19190611d95565b5b9250505094509492505050565b6000813590506113ee8161212f565b92915050565b6000815190506114038161212f565b92915050565b60008151905061141881612146565b92915050565b60006040828403121561143057600080fd5b61143a6040611b47565b9050600061144a848285016114b6565b600083015250602061145e848285016114b6565b60208301525092915050565b60006040828403121561147c57600080fd5b6114866040611b47565b90506000611496848285016114cb565b60008301525060206114aa848285016114cb565b60208301525092915050565b6000813590506114c58161215d565b92915050565b6000815190506114da8161215d565b92915050565b6000602082840312156114f257600080fd5b6000611500848285016113df565b91505092915050565b60006020828403121561151b57600080fd5b6000611529848285016113f4565b91505092915050565b6000806040838503121561154557600080fd5b6000611553858286016113df565b9250506020611564858286016113df565b9150509250929050565b60008060006060848603121561158357600080fd5b6000611591868287016113df565b93505060206115a2868287016113df565b92505060406115b3868287016113df565b9150509250925092565b6000806000606084860312156115d257600080fd5b60006115e0868287016113df565b93505060206115f1868287016113df565b9250506040611602868287016114b6565b9150509250925092565b600080600080600060c0868803121561162457600080fd5b6000611632888289016113df565b9550506020611643888289016114b6565b9450506040611654888289016114b6565b93505060606116658882890161141e565b92505060a0611676888289016114b6565b9150509295509295909350565b60006020828403121561169557600080fd5b60006116a384828501611409565b91505092915050565b6000604082840312156116be57600080fd5b60006116cc8482850161146a565b91505092915050565b6000602082840312156116e757600080fd5b60006116f5848285016114cb565b91505092915050565b6000806040838503121561171157600080fd5b600061171f858286016114b6565b9250506020611730858286016114b6565b9150509250929050565b61174381611dc9565b82525050565b61175a61175582611dc9565b611e70565b82525050565b61176981611de7565b82525050565b61177881611e1b565b82525050565b600061178b600b83611b8e565b915061179682611f4c565b600b82019050919050565b60006117ae602e83611b7d565b91506117b982611f75565b604082019050919050565b60006117d1601783611b7d565b91506117dc82611fc4565b602082019050919050565b60006117f4601a83611b7d565b91506117ff82611fed565b602082019050919050565b6000611817602383611b7d565b915061182282612016565b604082019050919050565b600061183a602f83611b7d565b915061184582612065565b604082019050919050565b600061185d600083611b6c565b9150611868826120b4565b600082019050919050565b6000611880601383611b7d565b915061188b826120b7565b602082019050919050565b60006118a3602183611b7d565b91506118ae826120e0565b604082019050919050565b6118c281611e11565b82525050565b60006118d48285611749565b6014820191506118e48284611749565b6014820191506118f38261177e565b91508190509392505050565b6000602082019050611914600083018461173a565b92915050565b600060408201905061192f600083018561173a565b61193c602083018461173a565b9392505050565b6000604082019050611958600083018561173a565b61196560208301846118b9565b9392505050565b6000606082019050611981600083018661173a565b61198e60208301856118b9565b61199b60408301846118b9565b949350505050565b60006080820190506119b8600083018661173a565b6119c560208301856118b9565b6119d260408301846118b9565b81810360608301526119e381611850565b9050949350505050565b6000602082019050611a026000830184611760565b92915050565b6000604082019050611a1d6000830185611760565b611a2a602083018461173a565b9392505050565b6000602082019050611a46600083018461176f565b92915050565b60006020820190508181036000830152611a65816117a1565b9050919050565b60006020820190508181036000830152611a85816117c4565b9050919050565b60006020820190508181036000830152611aa5816117e7565b9050919050565b60006020820190508181036000830152611ac58161180a565b9050919050565b60006020820190508181036000830152611ae58161182d565b9050919050565b60006020820190508181036000830152611b0581611873565b9050919050565b60006020820190508181036000830152611b2581611896565b9050919050565b6000602082019050611b4160008301846118b9565b92915050565b6000611b51611b62565b9050611b5d8282611e3f565b919050565b6000604051905090565b600082825260208201905092915050565b600082825260208201905092915050565b600081905092915050565b6000611ba482611e11565b9150611baf83611e11565b925082611bbf57611bbe611ec3565b5b828204905092915050565b6000808291508390505b6001851115611c1457808604811115611bf057611bef611e94565b5b6001851615611bff5780820291505b8081029050611c0d85611f3f565b9450611bd4565b94509492505050565b6000611c2882611e11565b9150611c3383611e11565b9250611c607fffffffffffffffffffffffffffffffffffffffffffffffffffffffffffffffff8484611c68565b905092915050565b600082611c785760019050611d34565b81611c865760009050611d34565b8160018114611c9c5760028114611ca657611cd5565b6001915050611d34565b60ff841115611cb857611cb7611e94565b5b8360020a915084821115611ccf57611cce611e94565b5b50611d34565b5060208310610133831016604e8410600b8410161715611d0a5782820a905083811115611d0557611d04611e94565b5b611d34565b611d178484846001611bca565b92509050818404811115611d2e57611d2d611e94565b5b81810290505b9392505050565b6000611d4682611e11565b9150611d5183611e11565b9250817fffffffffffffffffffffffffffffffffffffffffffffffffffffffffffffffff0483118215151615611d8a57611d89611e94565b5b828202905092915050565b6000611da082611e11565b9150611dab83611e11565b925082821015611dbe57611dbd611e94565b5b828203905092915050565b6000611dd482611df1565b9050919050565b60008115159050919050565b6000819050919050565b600073ffffffffffffffffffffffffffffffffffffffff82169050919050565b6000819050919050565b6000611e2682611e2d565b9050919050565b6000611e3882611df1565b9050919050565b611e4882611f21565b810181811067ffffffffffffffff82111715611e6757611e66611ef2565b5b80604052505050565b6000611e7b82611e82565b9050919050565b6000611e8d82611f32565b9050919050565b7f4e487b7100000000000000000000000000000000000000000000000000000000600052601160045260246000fd5b7f4e487b7100000000000000000000000000000000000000000000000000000000600052601260045260246000fd5b7f4e487b7100000000000000000000000000000000000000000000000000000000600052604160045260246000fd5b6000601f19601f8301169050919050565b60008160601b9050919050565b60008160011c9050919050565b7f6261636b65644173736574000000000000000000000000000000000000000000600082015250565b7f496e697469616c697a61626c653a20636f6e747261637420697320616c72656160008201527f647920696e697469616c697a6564000000000000000000000000000000000000602082015250565b7f4e6f742076616c69642072657365727665417373657421000000000000000000600082015250565b7f4e6f205f6261636b6564546f6b656e49442062616c616e636521000000000000600082015250565b7f4e6f7420656e6f75676820726573657276657320746f206d696e7420616d6f7560008201527f6e74210000000000000000000000000000000000000000000000000000000000602082015250565b7f686f7573654f66436f696e206e6f7420617574686f72697a656420746f206d6960008201527f6e74206261636b65644173736574210000000000000000000000000000000000602082015250565b50565b7f4e6f20455243323020616c6c6f77616e63652100000000000000000000000000600082015250565b7f616d6f756e74203e20205f6261636b6564546f6b656e49442062616c616e636560008201527f2100000000000000000000000000000000000000000000000000000000000000602082015250565b61213881611dc9565b811461214357600080fd5b50565b61214f81611ddb565b811461215a57600080fd5b50565b61216681611e11565b811461217157600080fd5b5056fea2646970667358221220d140c15e379eafdf04ddefd24820af56c212e781562ec3148e798d88ce03ef5a64736f6c63430008020033",
  "immutableReferences": {},
  "source": "// SPDX-License-Identifier: MIT\r\npragma solidity 0.8.2;\r\n\r\n/**\r\n* @title The house Of coin minting contract.\r\n* @author daigaro.eth\r\n* @notice  Allows users with acceptable reserves to mint backedAsset.\r\n* @notice  Allows user to burn their minted asset to release their reserve.\r\n* @dev  Contracts are split into state and functionality.\r\n*/\r\n\r\nimport \"@openzeppelin/contracts/proxy/utils/Initializable.sol\";\r\nimport \"@openzeppelin/contracts/token/ERC1155/IERC1155.sol\";\r\nimport \"./interfaces/IERC20Extension.sol\";\r\nimport \"./interfaces/IOracle.sol\";\r\nimport \"./interfaces/IAssetsAccountant.sol\";\r\nimport \"./interfaces/IAssetsAccountantState.sol\";\r\nimport \"./interfaces/IHouseOfReserveState.sol\";\r\n\r\ncontract HouseOfCoinState {\r\n\r\n    // HouseOfCoinMinting Events\r\n    /**\r\n    * @dev Log when a user is mints coin.\r\n    * @param user Address of user that minted coin.\r\n    * @param backedtokenID Token Id number of asset in {AssetsAccountant}.\r\n    * @param amount minted.\r\n    */\r\n    event CoinMinted(address indexed user, uint indexed backedtokenID, uint amount);\r\n\r\n    /**\r\n    * @dev Log when a user paybacks minted coin.\r\n    * @param user Address of user that minted coin.\r\n    * @param backedtokenID Token Id number of asset in {AssetsAccountant}.\r\n    * @param amount payback.\r\n    */\r\n    event CoinPayback(address indexed user, uint indexed backedtokenID, uint amount);\r\n\r\n    bytes32 public constant HOUSE_TYPE = keccak256(\"COIN_HOUSE\");\r\n\r\n    address public backedAsset;\r\n\r\n    address public assetsAccountant;\r\n\r\n    IOracle public oracle;\r\n}\r\n\r\ncontract HouseOfCoin is Initializable, HouseOfCoinState {\r\n    \r\n    /**\r\n    * @dev Initializes this contract by setting:\r\n    * @param _backedAsset ERC20 address of the asset type of coin to be minted in this contract.\r\n    * @param _assetsAccountant Address of the {AssetsAccountant} contract.\r\n    * @param _oracle Address of the oracle that will return price in _backedAsset units per reserve asset units.\r\n    */\r\n    function initialize(\r\n        address _backedAsset,\r\n        address _assetsAccountant,\r\n        address _oracle\r\n    ) public initializer() \r\n    {\r\n        backedAsset = _backedAsset;\r\n        assetsAccountant = _assetsAccountant;\r\n        oracle = IOracle(_oracle);\r\n    }\r\n\r\n    /**\r\n    * @notice  Function to mint ERC20 'backedAsset' of this HouseOfCoin.\r\n    * @dev  Requires user to have reserves for this backed asset at HouseOfReserves.\r\n    * @param reserveAsset ERC20 address of asset to be used to back the minted coins.\r\n    * @param houseOfReserve Address of the {HouseOfReserves} contract that manages the 'reserveAsset'.\r\n    * @param amount To mint. \r\n    * Emits a {CoinMinted} event.\r\n    */\r\n    function mintCoin(address reserveAsset, address houseOfReserve, uint amount) public {\r\n\r\n        IHouseOfReserveState hOfReserve = IHouseOfReserveState(houseOfReserve);\r\n        IERC20Extension bAsset = IERC20Extension(backedAsset);\r\n\r\n        uint reserveTokenID = hOfReserve.reserveTokenID();\r\n        uint backedTokenID = getBackedTokenID(reserveAsset);\r\n\r\n        // Validate reserveAsset is active with {AssetsAccountant} and check houseOfReserve inputs.\r\n        require(\r\n            IAssetsAccountantState(assetsAccountant).houseOfReserves(reserveTokenID) != address(0) &&\r\n            hOfReserve.reserveAsset() == reserveAsset,\r\n            \"Not valid reserveAsset!\"\r\n        );\r\n\r\n        // Validate this HouseOfCoin is active with {AssetsAccountant} and can mint backedAsset.\r\n        require(bAsset.hasRole(keccak256(\"MINTER_ROLE\"), address(this)), \"houseOfCoin not authorized to mint backedAsset!\" );\r\n\r\n        // Get inputs for checking minting power, collateralization factor and oracle price\r\n        IHouseOfReserveState.Factor memory collatRatio = hOfReserve.collateralRatio();\r\n        uint price = oracle.getLastPrice();\r\n\r\n        // Checks minting power of msg.sender.\r\n        uint mintingPower = _checkMintingPower(\r\n            msg.sender,\r\n            reserveTokenID,\r\n            backedTokenID,\r\n            collatRatio,\r\n            price\r\n        );\r\n        require(\r\n            mintingPower > 0 &&\r\n            mintingPower >= amount,\r\n             \"Not enough reserves to mint amount!\"\r\n        );\r\n\r\n        // Update state in AssetAccountant\r\n        IAssetsAccountant(assetsAccountant).mint(\r\n            msg.sender,\r\n            backedTokenID,\r\n            amount,\r\n            \"\"\r\n        );\r\n\r\n        // Mint backedAsset Coins\r\n        bAsset.mint(msg.sender, amount);\r\n\r\n        // Emit Event\r\n        emit CoinMinted(msg.sender, backedTokenID, amount);\r\n    }\r\n\r\n    /**\r\n    * @notice  Function to payback ERC20 'backedAsset' of this HouseOfCoin.\r\n    * @dev Requires knowledge of the reserve asset used to back the minted coins.\r\n    * @param _backedTokenID Token Id in {AssetsAccountant}, releases the reserve asset used in 'getTokenID'.\r\n    * @param amount To payback. \r\n    * Emits a {CoinPayback} event.\r\n    */\r\n    function paybackCoin(uint _backedTokenID, uint amount) public {\r\n\r\n        IAssetsAccountant accountant = IAssetsAccountant(assetsAccountant);\r\n        IERC20Extension bAsset = IERC20Extension(backedAsset);\r\n\r\n        uint userTokenIDBal = accountant.balanceOf(msg.sender, _backedTokenID);\r\n\r\n        // Check in {AssetsAccountant} that msg.sender backedAsset was created with assets '_backedTokenID'\r\n        require(userTokenIDBal >= 0, \"No _backedTokenID balance!\");\r\n\r\n        // Check that amount is less than '_backedTokenID' in {Assetsaccountant}\r\n        require(userTokenIDBal >= amount, \"amount >  _backedTokenID balance!\");\r\n\r\n        // Check that msg.sender has the intended backed ERC20 asset.\r\n        require(bAsset.balanceOf(msg.sender) >= amount, \"No ERC20 allowance!\");\r\n\r\n        // Burn amount of ERC20 tokens paybacked.\r\n        bAsset.burn(msg.sender, amount);\r\n\r\n        // Burn amount of _backedTokenID in {AssetsAccountant}\r\n        accountant.burn(msg.sender, _backedTokenID, amount);\r\n\r\n        emit CoinPayback(msg.sender, _backedTokenID, amount);\r\n    }\r\n\r\n    /**\r\n    *\r\n    * @dev  Get backedTokenID to be used in {AssetsAccountant}\r\n    * @param _reserveAsset ERC20 address of the reserve asset used to back coin.\r\n    */\r\n    function getBackedTokenID(address _reserveAsset) public view returns(uint) {\r\n        return uint(keccak256(abi.encodePacked(_reserveAsset, backedAsset, \"backedAsset\")));\r\n    }\r\n    \r\n    /**\r\n    * @dev  Internal function to query balances in {AssetsAccountant}\r\n    */\r\n    function _checkBalances(\r\n        address user,\r\n        uint _reservesTokenID,\r\n        uint _bAssetRTokenID\r\n    ) internal view returns (uint reserveBal, uint mintedCoinBal) {\r\n        reserveBal = IERC1155(assetsAccountant).balanceOf(user, _reservesTokenID);\r\n        mintedCoinBal = IERC1155(assetsAccountant).balanceOf(user, _bAssetRTokenID);\r\n    }\r\n\r\n    /**\r\n    * @notice  External function that returns the amount of backed asset coins user can mint with unused reserve asset.\r\n    * @param user to check minting power.\r\n    * @param reserveAsset Address of reserve asset.\r\n    */\r\n    function checkMintingPower(address user, address reserveAsset) external view returns(uint) {\r\n\r\n        // Get all required inputs\r\n        IAssetsAccountantState accountant = IAssetsAccountantState(assetsAccountant);\r\n\r\n        uint reserveTokenID = accountant.reservesIds(reserveAsset, backedAsset);\r\n\r\n        uint backedTokenID = getBackedTokenID(reserveAsset);\r\n\r\n        address hOfReserveAddr = accountant.houseOfReserves(reserveTokenID);\r\n\r\n        IHouseOfReserveState hOfReserve = IHouseOfReserveState(hOfReserveAddr);\r\n\r\n        IHouseOfReserveState.Factor memory collatRatio = hOfReserve.collateralRatio();\r\n\r\n        uint price = oracle.getLastPrice();\r\n\r\n        return _checkMintingPower(\r\n            user,\r\n            reserveTokenID,\r\n            backedTokenID,\r\n            collatRatio,\r\n            price\r\n        );\r\n    }\r\n\r\n    /**\r\n    * @dev  Internal function to check if user is liquidatable\r\n    */\r\n    function _checkMintingPower(\r\n        address user,\r\n        uint reserveTokenID,\r\n        uint backedTokenID,\r\n        IHouseOfReserveState.Factor memory collatRatio,\r\n        uint price\r\n    ) public view returns(uint) {\r\n\r\n        // Need balances for tokenIDs of both reserves and backed asset in {AssetsAccountant}\r\n        (uint reserveBal, uint mintedCoinBal) =  _checkBalances(\r\n            user,\r\n            reserveTokenID,\r\n            backedTokenID\r\n        );\r\n\r\n        // Check if msg.sender has reserves\r\n        if (reserveBal == 0) {\r\n            // If msg.sender has NO reserves, minting power = 0.\r\n            return 0;\r\n        } else {\r\n            // Check that user is not Liquidatable\r\n            (bool liquidatable, uint mintingPower) = _checkIfLiquidatable(\r\n                reserveBal,\r\n                mintedCoinBal,\r\n                collatRatio,\r\n                price\r\n            );\r\n            if(liquidatable) {\r\n                // If msg.sender is liquidatable, minting power = 0.\r\n                return 0;\r\n            } else {\r\n                return mintingPower;\r\n            }\r\n        }\r\n    }\r\n\r\n    /**\r\n    * @dev  Internal function to check if user is liquidatable\r\n    */\r\n    function _checkIfLiquidatable(\r\n        uint reserveBal,\r\n        uint mintedCoinBal,\r\n        IHouseOfReserveState.Factor memory collatRatio,\r\n        uint price\r\n    ) internal view returns (bool liquidatable, uint mintingPower) {\r\n\r\n        uint reserveBalreducedByFactor =\r\n            ( reserveBal * collatRatio.denominator) / collatRatio.numerator;\r\n            \r\n        uint maxMintableAmount =\r\n            (reserveBalreducedByFactor * price) / 10**(oracle.oraclePriceDecimals());\r\n\r\n        liquidatable = mintedCoinBal > maxMintableAmount? true : false;\r\n\r\n        mintingPower = !liquidatable ? (maxMintableAmount - mintedCoinBal) : 0;\r\n    }\r\n}",
  "sourcePath": "C:\\Users\\DCota\\Documents\\Crypto\\Consensys Blockchain Developer\\blockchain-developer-bootcamp-final-project\\contracts\\HouseOfCoin.sol",
  "compiler": {
    "name": "solc",
    "version": "0.8.2+commit.661d1103.Emscripten.clang"
  },
  "schemaVersion": "3.4.3",
  "updatedAt": "2021-11-24T20:06:54.688Z",
  "devdoc": {
    "kind": "dev",
    "methods": {
      "_checkMintingPower(address,uint256,uint256,(uint256,uint256),uint256)": {
        "details": "Internal function to check if user is liquidatable"
      },
      "checkMintingPower(address,address)": {
        "params": {
          "reserveAsset": "Address of reserve asset.",
          "user": "to check minting power."
        }
      },
      "getBackedTokenID(address)": {
        "details": "Get backedTokenID to be used in {AssetsAccountant}",
        "params": {
          "_reserveAsset": "ERC20 address of the reserve asset used to back coin."
        }
      },
      "initialize(address,address,address)": {
        "details": "Initializes this contract by setting:",
        "params": {
          "_assetsAccountant": "Address of the {AssetsAccountant} contract.",
          "_backedAsset": "ERC20 address of the asset type of coin to be minted in this contract.",
          "_oracle": "Address of the oracle that will return price in _backedAsset units per reserve asset units."
        }
      },
      "mintCoin(address,address,uint256)": {
        "details": "Requires user to have reserves for this backed asset at HouseOfReserves.",
        "params": {
          "amount": "To mint.  Emits a {CoinMinted} event.",
          "houseOfReserve": "Address of the {HouseOfReserves} contract that manages the 'reserveAsset'.",
          "reserveAsset": "ERC20 address of asset to be used to back the minted coins."
        }
      },
      "paybackCoin(uint256,uint256)": {
        "details": "Requires knowledge of the reserve asset used to back the minted coins.",
        "params": {
          "_backedTokenID": "Token Id in {AssetsAccountant}, releases the reserve asset used in 'getTokenID'.",
          "amount": "To payback.  Emits a {CoinPayback} event."
        }
      }
    },
    "version": 1
  },
  "userdoc": {
    "kind": "user",
    "methods": {
      "checkMintingPower(address,address)": {
        "notice": "External function that returns the amount of backed asset coins user can mint with unused reserve asset."
      },
      "mintCoin(address,address,uint256)": {
        "notice": "Function to mint ERC20 'backedAsset' of this HouseOfCoin."
      },
      "paybackCoin(uint256,uint256)": {
        "notice": "Function to payback ERC20 'backedAsset' of this HouseOfCoin."
      }
    },
    "version": 1
  }
}