{
  "contractName": "HouseOfReserve",
  "abi": [
    {
      "anonymous": false,
      "inputs": [
        {
          "components": [
            {
              "internalType": "uint256",
              "name": "numerator",
              "type": "uint256"
            },
            {
              "internalType": "uint256",
              "name": "denominator",
              "type": "uint256"
            }
          ],
          "indexed": false,
          "internalType": "struct HouseOfReserveState.Factor",
          "name": "newFactor",
          "type": "tuple"
        }
      ],
      "name": "CollateralRatioChanged",
      "type": "event"
    },
    {
      "anonymous": false,
      "inputs": [
        {
          "indexed": true,
          "internalType": "bytes32",
          "name": "role",
          "type": "bytes32"
        },
        {
          "indexed": true,
          "internalType": "bytes32",
          "name": "previousAdminRole",
          "type": "bytes32"
        },
        {
          "indexed": true,
          "internalType": "bytes32",
          "name": "newAdminRole",
          "type": "bytes32"
        }
      ],
      "name": "RoleAdminChanged",
      "type": "event"
    },
    {
      "anonymous": false,
      "inputs": [
        {
          "indexed": true,
          "internalType": "bytes32",
          "name": "role",
          "type": "bytes32"
        },
        {
          "indexed": true,
          "internalType": "address",
          "name": "account",
          "type": "address"
        },
        {
          "indexed": true,
          "internalType": "address",
          "name": "sender",
          "type": "address"
        }
      ],
      "name": "RoleGranted",
      "type": "event"
    },
    {
      "anonymous": false,
      "inputs": [
        {
          "indexed": true,
          "internalType": "bytes32",
          "name": "role",
          "type": "bytes32"
        },
        {
          "indexed": true,
          "internalType": "address",
          "name": "account",
          "type": "address"
        },
        {
          "indexed": true,
          "internalType": "address",
          "name": "sender",
          "type": "address"
        }
      ],
      "name": "RoleRevoked",
      "type": "event"
    },
    {
      "anonymous": false,
      "inputs": [
        {
          "indexed": true,
          "internalType": "address",
          "name": "user",
          "type": "address"
        },
        {
          "indexed": true,
          "internalType": "address",
          "name": "asset",
          "type": "address"
        },
        {
          "indexed": false,
          "internalType": "uint256",
          "name": "amount",
          "type": "uint256"
        }
      ],
      "name": "UserDeposit",
      "type": "event"
    },
    {
      "anonymous": false,
      "inputs": [
        {
          "indexed": true,
          "internalType": "address",
          "name": "user",
          "type": "address"
        },
        {
          "indexed": true,
          "internalType": "address",
          "name": "asset",
          "type": "address"
        },
        {
          "indexed": false,
          "internalType": "uint256",
          "name": "amount",
          "type": "uint256"
        }
      ],
      "name": "UserWithdraw",
      "type": "event"
    },
    {
      "inputs": [],
      "name": "DEFAULT_ADMIN_ROLE",
      "outputs": [
        {
          "internalType": "bytes32",
          "name": "",
          "type": "bytes32"
        }
      ],
      "stateMutability": "view",
      "type": "function",
      "constant": true
    },
    {
      "inputs": [],
      "name": "HOUSE_TYPE",
      "outputs": [
        {
          "internalType": "bytes32",
          "name": "",
          "type": "bytes32"
        }
      ],
      "stateMutability": "view",
      "type": "function",
      "constant": true
    },
    {
      "inputs": [],
      "name": "assetsAccountant",
      "outputs": [
        {
          "internalType": "contract IAssetsAccountant",
          "name": "",
          "type": "address"
        }
      ],
      "stateMutability": "view",
      "type": "function",
      "constant": true
    },
    {
      "inputs": [],
      "name": "backedAsset",
      "outputs": [
        {
          "internalType": "address",
          "name": "",
          "type": "address"
        }
      ],
      "stateMutability": "view",
      "type": "function",
      "constant": true
    },
    {
      "inputs": [],
      "name": "backedTokenID",
      "outputs": [
        {
          "internalType": "uint256",
          "name": "",
          "type": "uint256"
        }
      ],
      "stateMutability": "view",
      "type": "function",
      "constant": true
    },
    {
      "inputs": [],
      "name": "collateralRatio",
      "outputs": [
        {
          "internalType": "uint256",
          "name": "numerator",
          "type": "uint256"
        },
        {
          "internalType": "uint256",
          "name": "denominator",
          "type": "uint256"
        }
      ],
      "stateMutability": "view",
      "type": "function",
      "constant": true
    },
    {
      "inputs": [
        {
          "internalType": "bytes32",
          "name": "role",
          "type": "bytes32"
        }
      ],
      "name": "getRoleAdmin",
      "outputs": [
        {
          "internalType": "bytes32",
          "name": "",
          "type": "bytes32"
        }
      ],
      "stateMutability": "view",
      "type": "function",
      "constant": true
    },
    {
      "inputs": [
        {
          "internalType": "bytes32",
          "name": "role",
          "type": "bytes32"
        },
        {
          "internalType": "address",
          "name": "account",
          "type": "address"
        }
      ],
      "name": "grantRole",
      "outputs": [],
      "stateMutability": "nonpayable",
      "type": "function"
    },
    {
      "inputs": [
        {
          "internalType": "bytes32",
          "name": "role",
          "type": "bytes32"
        },
        {
          "internalType": "address",
          "name": "account",
          "type": "address"
        }
      ],
      "name": "hasRole",
      "outputs": [
        {
          "internalType": "bool",
          "name": "",
          "type": "bool"
        }
      ],
      "stateMutability": "view",
      "type": "function",
      "constant": true
    },
    {
      "inputs": [],
      "name": "oracle",
      "outputs": [
        {
          "internalType": "contract IOracle",
          "name": "",
          "type": "address"
        }
      ],
      "stateMutability": "view",
      "type": "function",
      "constant": true
    },
    {
      "inputs": [
        {
          "internalType": "bytes32",
          "name": "role",
          "type": "bytes32"
        },
        {
          "internalType": "address",
          "name": "account",
          "type": "address"
        }
      ],
      "name": "renounceRole",
      "outputs": [],
      "stateMutability": "nonpayable",
      "type": "function"
    },
    {
      "inputs": [],
      "name": "reserveAsset",
      "outputs": [
        {
          "internalType": "address",
          "name": "",
          "type": "address"
        }
      ],
      "stateMutability": "view",
      "type": "function",
      "constant": true
    },
    {
      "inputs": [],
      "name": "reserveTokenID",
      "outputs": [
        {
          "internalType": "uint256",
          "name": "",
          "type": "uint256"
        }
      ],
      "stateMutability": "view",
      "type": "function",
      "constant": true
    },
    {
      "inputs": [
        {
          "internalType": "bytes32",
          "name": "role",
          "type": "bytes32"
        },
        {
          "internalType": "address",
          "name": "account",
          "type": "address"
        }
      ],
      "name": "revokeRole",
      "outputs": [],
      "stateMutability": "nonpayable",
      "type": "function"
    },
    {
      "inputs": [
        {
          "internalType": "bytes4",
          "name": "interfaceId",
          "type": "bytes4"
        }
      ],
      "name": "supportsInterface",
      "outputs": [
        {
          "internalType": "bool",
          "name": "",
          "type": "bool"
        }
      ],
      "stateMutability": "view",
      "type": "function",
      "constant": true
    },
    {
      "inputs": [
        {
          "internalType": "address",
          "name": "_reserveAsset",
          "type": "address"
        },
        {
          "internalType": "address",
          "name": "_backedAsset",
          "type": "address"
        },
        {
          "internalType": "address",
          "name": "_assetsAccountant",
          "type": "address"
        },
        {
          "internalType": "address",
          "name": "_oracle",
          "type": "address"
        }
      ],
      "name": "initialize",
      "outputs": [],
      "stateMutability": "nonpayable",
      "type": "function"
    },
    {
      "inputs": [
        {
          "internalType": "uint256",
          "name": "amount",
          "type": "uint256"
        }
      ],
      "name": "deposit",
      "outputs": [],
      "stateMutability": "nonpayable",
      "type": "function"
    },
    {
      "inputs": [
        {
          "internalType": "uint256",
          "name": "amount",
          "type": "uint256"
        }
      ],
      "name": "withdraw",
      "outputs": [],
      "stateMutability": "nonpayable",
      "type": "function"
    },
    {
      "inputs": [
        {
          "internalType": "uint256",
          "name": "numerator",
          "type": "uint256"
        },
        {
          "internalType": "uint256",
          "name": "denominator",
          "type": "uint256"
        }
      ],
      "name": "setCollateralRatio",
      "outputs": [],
      "stateMutability": "nonpayable",
      "type": "function"
    },
    {
      "inputs": [
        {
          "internalType": "address",
          "name": "user",
          "type": "address"
        }
      ],
      "name": "checkMaxWithdrawal",
      "outputs": [
        {
          "internalType": "uint256",
          "name": "max",
          "type": "uint256"
        }
      ],
      "stateMutability": "view",
      "type": "function",
      "constant": true
    }
  ],
  "bytecode": "0x608060405234801561001057600080fd5b5061295b806100206000396000f3fe608060405234801561001057600080fd5b506004361061012c5760003560e01c8063a217fddf116100ad578063ce0406e611610071578063ce0406e614610320578063d166d71014610350578063d547741f1461036e578063f85cb5c81461038a578063f8c8765e146103a85761012c565b8063a217fddf1461028d578063a52e7d70146102ab578063b4eae1cb146102c9578063b6b55f25146102e8578063c21dd910146103045761012c565b806336568abe116100f457806336568abe146101e75780634ddb4692146102035780637dc0d1d0146102215780638f429cd01461023f57806391d148541461025d5761012c565b806301ffc9a71461013157806320a2fe2c14610161578063248a9ca31461017f5780632e1a7d4d146101af5780632f2ff15d146101cb575b600080fd5b61014b60048036038101906101469190611abb565b6103c4565b6040516101589190612014565b60405180910390f35b61016961043e565b604051610176919061202f565b60405180910390f35b61019960048036038101906101949190611a56565b610462565b6040516101a6919061202f565b60405180910390f35b6101c960048036038101906101c49190611ae4565b610482565b005b6101e560048036038101906101e09190611a7f565b610714565b005b61020160048036038101906101fc9190611a7f565b61073d565b005b61020b6107c0565b604051610218919061219d565b60405180910390f35b6102296107c6565b6040516102369190612065565b60405180910390f35b6102476107ec565b604051610254919061219d565b60405180910390f35b61027760048036038101906102729190611a7f565b6107f2565b6040516102849190612014565b60405180910390f35b61029561085d565b6040516102a2919061202f565b60405180910390f35b6102b3610864565b6040516102c09190611eef565b60405180910390f35b6102d161088a565b6040516102df9291906121b8565b60405180910390f35b61030260048036038101906102fd9190611ae4565b61089c565b005b61031e60048036038101906103199190611b36565b610b9d565b005b61033a600480360381019061033591906119a1565b610c5d565b604051610347919061219d565b60405180910390f35b610358610c98565b604051610365919061204a565b60405180910390f35b61038860048036038101906103839190611a7f565b610cbe565b005b610392610ce7565b60405161039f9190611eef565b60405180910390f35b6103c260048036038101906103bd91906119ca565b610d0d565b005b60007f7965db0b000000000000000000000000000000000000000000000000000000007bffffffffffffffffffffffffffffffffffffffffffffffffffffffff1916827bffffffffffffffffffffffffffffffffffffffffffffffffffffffff19161480610437575061043682610ffd565b5b9050919050565b7f9b79543f18cc25b898fc91fdd01b1c5ceb8646ecccfabdf25ea8858b797a1bc381565b600060016000838152602001908152602001600020600101549050919050565b60008061049433600454600554611067565b915091506000821180156104a85750600083115b80156104b45750818311155b6104f3576040517f08c379a00000000000000000000000000000000000000000000000000000000081526004016104ea90612122565b60405180910390fd5b60006104ff83836111ce565b905083811015610544576040517f08c379a000000000000000000000000000000000000000000000000000000000815260040161053b90612122565b60405180910390fd5b600860009054906101000a900473ffffffffffffffffffffffffffffffffffffffff1673ffffffffffffffffffffffffffffffffffffffff1663f5298aca33600454876040518463ffffffff1660e01b81526004016105a593929190611f93565b600060405180830381600087803b1580156105bf57600080fd5b505af11580156105d3573d6000803e3d6000fd5b50505050600260009054906101000a900473ffffffffffffffffffffffffffffffffffffffff1673ffffffffffffffffffffffffffffffffffffffff1663a9059cbb33866040518363ffffffff1660e01b8152600401610634929190611f6a565b602060405180830381600087803b15801561064e57600080fd5b505af1158015610662573d6000803e3d6000fd5b505050506040513d601f19601f820116820180604052508101906106869190611a2d565b50600260009054906101000a900473ffffffffffffffffffffffffffffffffffffffff1673ffffffffffffffffffffffffffffffffffffffff163373ffffffffffffffffffffffffffffffffffffffff167f6985a6dd52aeb8194df40b7af2f362f362440affc39c1314649abc28dbf6b62886604051610706919061219d565b60405180910390a350505050565b61071d82610462565b61072e816107296113b4565b6113bc565b6107388383611459565b505050565b6107456113b4565b73ffffffffffffffffffffffffffffffffffffffff168173ffffffffffffffffffffffffffffffffffffffff16146107b2576040517f08c379a00000000000000000000000000000000000000000000000000000000081526004016107a990612162565b60405180910390fd5b6107bc8282611539565b5050565b60055481565b600960009054906101000a900473ffffffffffffffffffffffffffffffffffffffff1681565b60045481565b60006001600084815260200190815260200160002060000160008373ffffffffffffffffffffffffffffffffffffffff1673ffffffffffffffffffffffffffffffffffffffff16815260200190815260200160002060009054906101000a900460ff16905092915050565b6000801b81565b600360009054906101000a900473ffffffffffffffffffffffffffffffffffffffff1681565b60068060000154908060010154905082565b600081116108df576040517f08c379a00000000000000000000000000000000000000000000000000000000081526004016108d690612142565b60405180910390fd5b80600260009054906101000a900473ffffffffffffffffffffffffffffffffffffffff1673ffffffffffffffffffffffffffffffffffffffff1663dd62ed3e33306040518363ffffffff1660e01b815260040161093d929190611f0a565b60206040518083038186803b15801561095557600080fd5b505afa158015610969573d6000803e3d6000fd5b505050506040513d601f19601f8201168201806040525081019061098d9190611b0d565b10156109ce576040517f08c379a00000000000000000000000000000000000000000000000000000000081526004016109c590612102565b60405180910390fd5b600260009054906101000a900473ffffffffffffffffffffffffffffffffffffffff1673ffffffffffffffffffffffffffffffffffffffff166323b872dd3330846040518463ffffffff1660e01b8152600401610a2d93929190611f33565b602060405180830381600087803b158015610a4757600080fd5b505af1158015610a5b573d6000803e3d6000fd5b505050506040513d601f19601f82011682018060405250810190610a7f9190611a2d565b50600860009054906101000a900473ffffffffffffffffffffffffffffffffffffffff1673ffffffffffffffffffffffffffffffffffffffff1663731133e933600454846040518463ffffffff1660e01b8152600401610ae193929190611fca565b600060405180830381600087803b158015610afb57600080fd5b505af1158015610b0f573d6000803e3d6000fd5b50505050600260009054906101000a900473ffffffffffffffffffffffffffffffffffffffff1673ffffffffffffffffffffffffffffffffffffffff163373ffffffffffffffffffffffffffffffffffffffff167f3bc57f469ad6d10d7723ea226cd22bd2b9e527def2b529f6ab44645a1668958283604051610b92919061219d565b60405180910390a350565b6000801b610bb281610bad6113b4565b6113bc565b600083118015610bc25750600082115b8015610bcd57508183115b610c0c576040517f08c379a0000000000000000000000000000000000000000000000000000000008152600401610c03906120e2565b60405180910390fd5b82600660000181905550816006600101819055507f3b37b2122daf02411c10e648fb1aeac6314b35c286ce46993c0205efc97ae8036006604051610c509190612182565b60405180910390a1505050565b6000806000610c7184600454600554611067565b9150915060008214610c8c57610c8782826111ce565b610c8f565b60005b92505050919050565b600860009054906101000a900473ffffffffffffffffffffffffffffffffffffffff1681565b610cc782610462565b610cd881610cd36113b4565b6113bc565b610ce28383611539565b505050565b600260009054906101000a900473ffffffffffffffffffffffffffffffffffffffff1681565b600060019054906101000a900460ff1680610d33575060008054906101000a900460ff16155b610d72576040517f08c379a0000000000000000000000000000000000000000000000000000000008152600401610d69906120c2565b60405180910390fd5b60008060019054906101000a900460ff161590508015610dc2576001600060016101000a81548160ff02191690831515021790555060016000806101000a81548160ff0219169083151502179055505b84600260006101000a81548173ffffffffffffffffffffffffffffffffffffffff021916908373ffffffffffffffffffffffffffffffffffffffff16021790555083600360006101000a81548173ffffffffffffffffffffffffffffffffffffffff021916908373ffffffffffffffffffffffffffffffffffffffff160217905550600260009054906101000a900473ffffffffffffffffffffffffffffffffffffffff16600360009054906101000a900473ffffffffffffffffffffffffffffffffffffffff16604051602001610e9b929190611e7e565b6040516020818303038152906040528051906020012060001c600481905550600260009054906101000a900473ffffffffffffffffffffffffffffffffffffffff16600360009054906101000a900473ffffffffffffffffffffffffffffffffffffffff16604051602001610f11929190611e47565b6040516020818303038152906040528051906020012060001c6005819055506096600660000181905550606460066001018190555082600860006101000a81548173ffffffffffffffffffffffffffffffffffffffff021916908373ffffffffffffffffffffffffffffffffffffffff16021790555081600960006101000a81548173ffffffffffffffffffffffffffffffffffffffff021916908373ffffffffffffffffffffffffffffffffffffffff160217905550610fd56000801b3361161b565b8015610ff65760008060016101000a81548160ff0219169083151502179055505b5050505050565b60007f01ffc9a7000000000000000000000000000000000000000000000000000000007bffffffffffffffffffffffffffffffffffffffffffffffffffffffff1916827bffffffffffffffffffffffffffffffffffffffffffffffffffffffff1916149050919050565b600080600860009054906101000a900473ffffffffffffffffffffffffffffffffffffffff1673ffffffffffffffffffffffffffffffffffffffff1662fdd58e86866040518363ffffffff1660e01b81526004016110c6929190611f6a565b60206040518083038186803b1580156110de57600080fd5b505afa1580156110f2573d6000803e3d6000fd5b505050506040513d601f19601f820116820180604052508101906111169190611b0d565b9150600860009054906101000a900473ffffffffffffffffffffffffffffffffffffffff1673ffffffffffffffffffffffffffffffffffffffff1662fdd58e86856040518363ffffffff1660e01b8152600401611174929190611f6a565b60206040518083038186803b15801561118c57600080fd5b505afa1580156111a0573d6000803e3d6000fd5b505050506040513d601f19601f820116820180604052508101906111c49190611b0d565b9050935093915050565b600080600960009054906101000a900473ffffffffffffffffffffffffffffffffffffffff1673ffffffffffffffffffffffffffffffffffffffff1663d8cf24fd6040518163ffffffff1660e01b815260040160206040518083038186803b15801561123957600080fd5b505afa15801561124d573d6000803e3d6000fd5b505050506040513d601f19601f820116820180604052508101906112719190611b0d565b90506000808411611283576000611346565b81600960009054906101000a900473ffffffffffffffffffffffffffffffffffffffff1673ffffffffffffffffffffffffffffffffffffffff166381e6be606040518163ffffffff1660e01b815260040160206040518083038186803b1580156112ec57600080fd5b505afa158015611300573d6000803e3d6000fd5b505050506040513d601f19601f820116820180604052508101906113249190611b0d565b600a61133091906122f3565b8561133b9190612411565b611345919061226f565b5b90506006600101546006600001548261135f9190612411565b611369919061226f565b90508481111561137e576000925050506113ae565b60008111801561138e5750848111155b156113a857808561139f919061246b565b925050506113ae565b84925050505b92915050565b600033905090565b6113c682826107f2565b611455576113eb8173ffffffffffffffffffffffffffffffffffffffff166014611629565b6113f98360001c6020611629565b60405160200161140a929190611eb5565b6040516020818303038152906040526040517f08c379a000000000000000000000000000000000000000000000000000000000815260040161144c9190612080565b60405180910390fd5b5050565b61146382826107f2565b61153557600180600084815260200190815260200160002060000160008373ffffffffffffffffffffffffffffffffffffffff1673ffffffffffffffffffffffffffffffffffffffff16815260200190815260200160002060006101000a81548160ff0219169083151502179055506114da6113b4565b73ffffffffffffffffffffffffffffffffffffffff168173ffffffffffffffffffffffffffffffffffffffff16837f2f8788117e7eff1d82e926ec794901d17c78024a50270940304540a733656f0d60405160405180910390a45b5050565b61154382826107f2565b156116175760006001600084815260200190815260200160002060000160008373ffffffffffffffffffffffffffffffffffffffff1673ffffffffffffffffffffffffffffffffffffffff16815260200190815260200160002060006101000a81548160ff0219169083151502179055506115bc6113b4565b73ffffffffffffffffffffffffffffffffffffffff168173ffffffffffffffffffffffffffffffffffffffff16837ff6391f5c32d9c69d2a47ea670b442974b53935d1edc7fd64eb21e047a839171b60405160405180910390a45b5050565b6116258282611459565b5050565b60606000600283600261163c9190612411565b6116469190612219565b67ffffffffffffffff811115611685577f4e487b7100000000000000000000000000000000000000000000000000000000600052604160045260246000fd5b6040519080825280601f01601f1916602001820160405280156116b75781602001600182028036833780820191505090505b5090507f300000000000000000000000000000000000000000000000000000000000000081600081518110611715577f4e487b7100000000000000000000000000000000000000000000000000000000600052603260045260246000fd5b60200101907effffffffffffffffffffffffffffffffffffffffffffffffffffffffffffff1916908160001a9053507f78000000000000000000000000000000000000000000000000000000000000008160018151811061179f577f4e487b7100000000000000000000000000000000000000000000000000000000600052603260045260246000fd5b60200101907effffffffffffffffffffffffffffffffffffffffffffffffffffffffffffff1916908160001a905350600060018460026117df9190612411565b6117e99190612219565b90505b60018111156118d5577f3031323334353637383961626364656600000000000000000000000000000000600f861660108110611851577f4e487b7100000000000000000000000000000000000000000000000000000000600052603260045260246000fd5b1a60f81b82828151811061188e577f4e487b7100000000000000000000000000000000000000000000000000000000600052603260045260246000fd5b60200101907effffffffffffffffffffffffffffffffffffffffffffffffffffffffffffff1916908160001a905350600485901c9450806118ce906125a2565b90506117ec565b5060008414611919576040517f08c379a0000000000000000000000000000000000000000000000000000000008152600401611910906120a2565b60405180910390fd5b8091505092915050565b600081359050611932816128b2565b92915050565b600081519050611947816128c9565b92915050565b60008135905061195c816128e0565b92915050565b600081359050611971816128f7565b92915050565b6000813590506119868161290e565b92915050565b60008151905061199b8161290e565b92915050565b6000602082840312156119b357600080fd5b60006119c184828501611923565b91505092915050565b600080600080608085870312156119e057600080fd5b60006119ee87828801611923565b94505060206119ff87828801611923565b9350506040611a1087828801611923565b9250506060611a2187828801611923565b91505092959194509250565b600060208284031215611a3f57600080fd5b6000611a4d84828501611938565b91505092915050565b600060208284031215611a6857600080fd5b6000611a768482850161194d565b91505092915050565b60008060408385031215611a9257600080fd5b6000611aa08582860161194d565b9250506020611ab185828601611923565b9150509250929050565b600060208284031215611acd57600080fd5b6000611adb84828501611962565b91505092915050565b600060208284031215611af657600080fd5b6000611b0484828501611977565b91505092915050565b600060208284031215611b1f57600080fd5b6000611b2d8482850161198c565b91505092915050565b60008060408385031215611b4957600080fd5b6000611b5785828601611977565b9250506020611b6885828601611977565b9150509250929050565b611b7b816124a9565b82525050565b611b92611b8d826124a9565b6125e6565b82525050565b611ba1816124bb565b82525050565b611bb0816124c7565b82525050565b611bbf81612527565b82525050565b611bce8161254b565b82525050565b6000611bdf826121e1565b611be981856121fd565b9350611bf981856020860161256f565b611c0281612668565b840191505092915050565b6000611c18826121e1565b611c22818561220e565b9350611c3281856020860161256f565b80840191505092915050565b6000611c4b6020836121fd565b9150611c56826126a0565b602082019050919050565b6000611c6e600b8361220e565b9150611c79826126c9565b600b82019050919050565b6000611c91602e836121fd565b9150611c9c826126f2565b604082019050919050565b6000611cb4600a8361220e565b9150611cbf82612741565b600a82019050919050565b6000611cd7600f836121fd565b9150611ce28261276a565b602082019050919050565b6000611cfa6000836121ec565b9150611d0582612793565b600082019050919050565b6000611d1d60178361220e565b9150611d2882612796565b601782019050919050565b6000611d40601b836121fd565b9150611d4b826127bf565b602082019050919050565b6000611d636015836121fd565b9150611d6e826127e8565b602082019050919050565b6000611d866012836121fd565b9150611d9182612811565b602082019050919050565b6000611da960118361220e565b9150611db48261283a565b601182019050919050565b6000611dcc602f836121fd565b9150611dd782612863565b604082019050919050565b604082016000808301549050611df7816125cc565b611e046000860182611e29565b5060018301549050611e15816125cc565b611e226020860182611e29565b5050505050565b611e328161251d565b82525050565b611e418161251d565b82525050565b6000611e538285611b81565b601482019150611e638284611b81565b601482019150611e7282611c61565b91508190509392505050565b6000611e8a8285611b81565b601482019150611e9a8284611b81565b601482019150611ea982611ca7565b91508190509392505050565b6000611ec082611d10565b9150611ecc8285611c0d565b9150611ed782611d9c565b9150611ee38284611c0d565b91508190509392505050565b6000602082019050611f046000830184611b72565b92915050565b6000604082019050611f1f6000830185611b72565b611f2c6020830184611b72565b9392505050565b6000606082019050611f486000830186611b72565b611f556020830185611b72565b611f626040830184611e38565b949350505050565b6000604082019050611f7f6000830185611b72565b611f8c6020830184611e38565b9392505050565b6000606082019050611fa86000830186611b72565b611fb56020830185611e38565b611fc26040830184611e38565b949350505050565b6000608082019050611fdf6000830186611b72565b611fec6020830185611e38565b611ff96040830184611e38565b818103606083015261200a81611ced565b9050949350505050565b60006020820190506120296000830184611b98565b92915050565b60006020820190506120446000830184611ba7565b92915050565b600060208201905061205f6000830184611bb6565b92915050565b600060208201905061207a6000830184611bc5565b92915050565b6000602082019050818103600083015261209a8184611bd4565b905092915050565b600060208201905081810360008301526120bb81611c3e565b9050919050565b600060208201905081810360008301526120db81611c84565b9050919050565b600060208201905081810360008301526120fb81611cca565b9050919050565b6000602082019050818103600083015261211b81611d33565b9050919050565b6000602082019050818103600083015261213b81611d56565b9050919050565b6000602082019050818103600083015261215b81611d79565b9050919050565b6000602082019050818103600083015261217b81611dbf565b9050919050565b60006040820190506121976000830184611de2565b92915050565b60006020820190506121b26000830184611e38565b92915050565b60006040820190506121cd6000830185611e38565b6121da6020830184611e38565b9392505050565b600081519050919050565b600082825260208201905092915050565b600082825260208201905092915050565b600081905092915050565b60006122248261251d565b915061222f8361251d565b9250827fffffffffffffffffffffffffffffffffffffffffffffffffffffffffffffffff038211156122645761226361260a565b5b828201905092915050565b600061227a8261251d565b91506122858361251d565b92508261229557612294612639565b5b828204905092915050565b6000808291508390505b60018511156122ea578086048111156122c6576122c561260a565b5b60018516156122d55780820291505b80810290506122e385612693565b94506122aa565b94509492505050565b60006122fe8261251d565b91506123098361251d565b92506123367fffffffffffffffffffffffffffffffffffffffffffffffffffffffffffffffff848461233e565b905092915050565b60008261234e576001905061240a565b8161235c576000905061240a565b8160018114612372576002811461237c576123ab565b600191505061240a565b60ff84111561238e5761238d61260a565b5b8360020a9150848211156123a5576123a461260a565b5b5061240a565b5060208310610133831016604e8410600b84101617156123e05782820a9050838111156123db576123da61260a565b5b61240a565b6123ed84848460016122a0565b925090508184048111156124045761240361260a565b5b81810290505b9392505050565b600061241c8261251d565b91506124278361251d565b9250817fffffffffffffffffffffffffffffffffffffffffffffffffffffffffffffffff04831182151516156124605761245f61260a565b5b828202905092915050565b60006124768261251d565b91506124818361251d565b9250828210156124945761249361260a565b5b828203905092915050565b6000819050919050565b60006124b4826124fd565b9050919050565b60008115159050919050565b6000819050919050565b60007fffffffff0000000000000000000000000000000000000000000000000000000082169050919050565b600073ffffffffffffffffffffffffffffffffffffffff82169050919050565b6000819050919050565b600061253282612539565b9050919050565b6000612544826124fd565b9050919050565b60006125568261255d565b9050919050565b6000612568826124fd565b9050919050565b60005b8381101561258d578082015181840152602081019050612572565b8381111561259c576000848401525b50505050565b60006125ad8261251d565b915060008214156125c1576125c061260a565b5b600182039050919050565b60006125df6125da83612686565b61249f565b9050919050565b60006125f1826125f8565b9050919050565b600061260382612679565b9050919050565b7f4e487b7100000000000000000000000000000000000000000000000000000000600052601160045260246000fd5b7f4e487b7100000000000000000000000000000000000000000000000000000000600052601260045260246000fd5b6000601f19601f8301169050919050565b60008160601b9050919050565b60008160001c9050919050565b60008160011c9050919050565b7f537472696e67733a20686578206c656e67746820696e73756666696369656e74600082015250565b7f6261636b65644173736574000000000000000000000000000000000000000000600082015250565b7f496e697469616c697a61626c653a20636f6e747261637420697320616c72656160008201527f647920696e697469616c697a6564000000000000000000000000000000000000602082015250565b7f636f6c6c61746572616c00000000000000000000000000000000000000000000600082015250565b7f496e76616c696420696e70757473210000000000000000000000000000000000600082015250565b50565b7f416363657373436f6e74726f6c3a206163636f756e7420000000000000000000600082015250565b7f4e6f7420656e6f75676820455243323020616c6c6f77616e6365210000000000600082015250565b7f496e76616c696420696e70757420616d6f756e74210000000000000000000000600082015250565b7f5a65726f20696e70757420616d6f756e74210000000000000000000000000000600082015250565b7f206973206d697373696e6720726f6c6520000000000000000000000000000000600082015250565b7f416363657373436f6e74726f6c3a2063616e206f6e6c792072656e6f756e636560008201527f20726f6c657320666f722073656c660000000000000000000000000000000000602082015250565b6128bb816124a9565b81146128c657600080fd5b50565b6128d2816124bb565b81146128dd57600080fd5b50565b6128e9816124c7565b81146128f457600080fd5b50565b612900816124d1565b811461290b57600080fd5b50565b6129178161251d565b811461292257600080fd5b5056fea26469706673582212208b10bc6e60fefe58fdb7d4bf05f943fbde3d196a24d23cc659da773b0550cecd64736f6c63430008020033",
  "immutableReferences": {},
  "source": "// SPDX-License-Identifier: MIT\r\npragma solidity 0.8.2;\r\n\r\n/**\r\n* @title The house of reserves contract.\r\n* @author daigaro.eth\r\n* @notice Custodies all deposits, to allow minting of the backedAsset.\r\n* @notice Users can only deposit and withdraw from this contract.\r\n* @dev  Contracts are split into state and functionality.\r\n* @dev A HouseOfReserve is required to back a specific backedAsset. \r\n*/\r\n\r\nimport \"@openzeppelin/contracts/proxy/utils/Initializable.sol\";\r\nimport \"@openzeppelin/contracts/token/ERC1155/IERC1155.sol\";\r\nimport \"@openzeppelin/contracts/token/ERC20/IERC20.sol\";\r\nimport \"@openzeppelin/contracts/access/AccessControl.sol\";\r\nimport \"./interfaces/IAssetsAccountant.sol\";\r\nimport \"./interfaces/IOracle.sol\";\r\n\r\ncontract HouseOfReserveState {\r\n\r\n  // HouseOfReserve Events\r\n\r\n  /**  \r\n  * @dev Emit when user makes an asset deposit in this contract.\r\n  * @param user Address of depositor.\r\n  * @param asset ERC20 address of the reserve asset.\r\n  * @param amount deposited.\r\n  */\r\n  event UserDeposit(address indexed user, address indexed asset, uint amount);\r\n  /**  \r\n  * @dev Emit when user makes an asset withdrawal from this HouseOfReserve\r\n  * @param user Address of user withdrawing.\r\n  * @param asset ERC20 address of the reserve asset.\r\n  * @param amount withraw.\r\n  */\r\n  event UserWithdraw(address indexed user, address indexed asset, uint amount);\r\n    /**  \r\n  * @dev Emit when user DEFAULT_ADMIN changes the collateralization factor of this HouseOfReserve\r\n  * @param newFactor New struct indicating the factor values.\r\n  */\r\n  event CollateralRatioChanged(Factor newFactor);\r\n\r\n  struct Factor{\r\n      uint numerator;\r\n      uint denominator;\r\n  }\r\n\r\n  address public reserveAsset;\r\n\r\n  address public backedAsset;\r\n\r\n  uint public reserveTokenID;\r\n\r\n  uint public  backedTokenID;\r\n\r\n  Factor public collateralRatio;\r\n\r\n  IAssetsAccountant public assetsAccountant;\r\n\r\n  IOracle public oracle;\r\n\r\n  bytes32 public constant HOUSE_TYPE = keccak256(\"RESERVE_HOUSE\");\r\n\r\n}\r\n\r\ncontract HouseOfReserve is Initializable, AccessControl, HouseOfReserveState {\r\n\r\n    /**\r\n   * @dev Initializes this contract by setting:\r\n   * @param _reserveAsset ERC20 address of reserve asset handled in this contract.\r\n   * @param _backedAsset ERC20 address of the asset type of coin that can be backed with this reserves.\r\n   * @param _assetsAccountant Address of the {AssetsAccountant} contract.\r\n   * @param _oracle Address of the oracle that will return price in _backedAsset units per reserve asset units.\r\n   */\r\n  function initialize(\r\n    address _reserveAsset,\r\n    address _backedAsset,\r\n    address _assetsAccountant,\r\n    address _oracle\r\n  ) public initializer() {\r\n\r\n    reserveAsset = _reserveAsset;\r\n    backedAsset = _backedAsset;\r\n    reserveTokenID = uint(keccak256(abi.encodePacked(reserveAsset, backedAsset, \"collateral\")));\r\n    backedTokenID = uint(keccak256(abi.encodePacked(reserveAsset, backedAsset, \"backedAsset\")));\r\n    collateralRatio.numerator = 150;\r\n    collateralRatio.denominator = 100;\r\n    assetsAccountant = IAssetsAccountant(_assetsAccountant);\r\n    oracle = IOracle(_oracle);\r\n    _setupRole(DEFAULT_ADMIN_ROLE, msg.sender);\r\n\r\n  }\r\n\r\n  /**\r\n   * @notice Function to deposit reserves in this contract.\r\n   * @notice DO NOT!! send direct ERC20 transfers to this contract.\r\n   * @dev Requires user's ERC20 approval prior to calling.\r\n   * @param amount To deposit. \r\n   * Emits a {UserDeposit} event.\r\n   */\r\n  function deposit(uint amount) public {\r\n    // Validate input amount.\r\n    require(amount>0, \"Zero input amount!\");\r\n\r\n    // Check ERC20 approval of msg.sender.\r\n    require(IERC20(reserveAsset).allowance(msg.sender, address(this)) >= amount, \"Not enough ERC20 allowance!\");\r\n\r\n    // Transfer reserveAsset amount to this contract.\r\n    IERC20(reserveAsset).transferFrom(msg.sender, address(this), amount);\r\n\r\n    // Mint in AssetsAccountant received amount.\r\n    assetsAccountant.mint(msg.sender, reserveTokenID, amount, \"\");\r\n    \r\n    // Emit deposit event.\r\n    emit UserDeposit(msg.sender, reserveAsset, amount);\r\n  }\r\n\r\n  /**\r\n   * @notice Function to withdraw reserves in this contract.\r\n   * @dev Function checks if user can withdraw specified amount.\r\n   * @param amount To withdraw. \r\n   * Emits a {UserWitdhraw} event.\r\n   */\r\n  function withdraw(uint amount) public {\r\n    // Need balances for tokenIDs of both reserves and backed asset in {AssetsAccountant}\r\n    (uint reserveBal, uint mintedCoinBal) =  _checkBalances(msg.sender, reserveTokenID, backedTokenID);\r\n    \r\n    // Validate user has reserveBal, and input amount is greater than zero, and less than msg.sender reserves deposits.\r\n    require(\r\n      reserveBal > 0 &&\r\n      amount > 0 && \r\n      amount <= reserveBal,\r\n      \"Invalid input amount!\"\r\n    );\r\n\r\n    // Get max withdrawal amount\r\n    uint maxWithdrawal = _checkMaxWithdrawal(reserveBal, mintedCoinBal);\r\n\r\n    // Check maxWithdrawal is greater than or equal to the withdraw amount.\r\n    require(maxWithdrawal >= amount, \"Invalid input amount!\");\r\n\r\n    // Burn at AssetAccountant withdrawal amount.\r\n    assetsAccountant.burn(\r\n      msg.sender,\r\n      reserveTokenID,\r\n      amount\r\n    );\r\n\r\n    // Transfer Asset to msg.sender\r\n    IERC20(reserveAsset).transfer(msg.sender, amount);\r\n\r\n    // Emit withdraw event.\r\n    emit UserWithdraw(msg.sender, reserveAsset, amount);\r\n  }\r\n\r\n  /**\r\n  * @notice Function to set the collateralization ration of this contract.\r\n  * @dev Numerator and denominator should be > 0, and numerator > denominator\r\n  * @param numerator of new collateralization factor.\r\n  * @param denominator of new collateralization factor.\r\n  * Emits a {CollateralRatioChanged} event.\r\n  */\r\n  function setCollateralRatio(uint numerator, uint denominator) external onlyRole(DEFAULT_ADMIN_ROLE) {\r\n    // Check inputs\r\n    require(\r\n      numerator > 0 &&\r\n      denominator > 0 &&\r\n      numerator > denominator,\r\n      \"Invalid inputs!\"\r\n    );\r\n\r\n    // Set new collateralization ratio\r\n    collateralRatio.numerator = numerator;\r\n    collateralRatio.denominator = denominator;\r\n\r\n    // Emit event\r\n    emit CollateralRatioChanged(collateralRatio);\r\n  }\r\n\r\n  /**\r\n   * @notice Function to calculate the max reserves user can withdraw from contract.\r\n   * @param user Address to check. \r\n   */\r\n  function checkMaxWithdrawal(address user) external view returns (uint max) {\r\n    // Need balances for tokenIDs of both reserves and backed asset in {AssetsAccountant}\r\n    (uint reserveBal, uint mintedCoinBal) =  _checkBalances(user, reserveTokenID, backedTokenID);\r\n    max = reserveBal == 0 ? 0 : _checkMaxWithdrawal(reserveBal, mintedCoinBal);\r\n  }\r\n\r\n  /**\r\n   * @dev  Internal function to check max withdrawal amount.\r\n   */\r\n  function _checkMaxWithdrawal(uint _reserveBal, uint _mintedCoinBal) internal view returns(uint) {\r\n    // Get price\r\n    // Price should be: backedAsset per unit of reserveAsset {backedAsset / reserveAsset}\r\n    uint price = oracle.getLastPrice();\r\n\r\n    // Check if msg.sender has minted backedAsset, if yes compute:\r\n    // The minimum required balance to back 100% all minted coins of backedAsset.\r\n    // Else, return 0.\r\n    uint minReqReserveBal = _mintedCoinBal > 0 ? \r\n      (_mintedCoinBal * 10**(oracle.oraclePriceDecimals())) / price :\r\n      0\r\n    ;\r\n    \r\n    // Apply Collateralization Factors to MinReqReserveBal\r\n    minReqReserveBal =\r\n        ( minReqReserveBal * collateralRatio.numerator) / collateralRatio.denominator;\r\n\r\n    if(minReqReserveBal > _reserveBal) {\r\n      // Return zero if undercollateralized or insolvent\r\n      return 0;\r\n    } else if (minReqReserveBal > 0 && minReqReserveBal <= _reserveBal) {\r\n      // Return the max withrawal amount, if msg.sender has mintedCoin balance and in healthy collateralized\r\n      return (_reserveBal - minReqReserveBal);\r\n    } else {\r\n      // Return _reserveBal if msg.sender has no minted coin.\r\n      return _reserveBal;\r\n    }\r\n  }\r\n\r\n  /**\r\n   * @dev  Internal function to query balances in {AssetsAccountant}\r\n   */\r\n  function _checkBalances(\r\n    address user,\r\n    uint _reservesTokenID,\r\n    uint _bAssetRTokenID\r\n  ) internal view returns (uint reserveBal, uint mintedCoinBal) {\r\n      reserveBal = IERC1155(address(assetsAccountant)).balanceOf(user, _reservesTokenID);\r\n      mintedCoinBal = IERC1155(address(assetsAccountant)).balanceOf(user, _bAssetRTokenID);\r\n  }\r\n}\r\n",
  "sourcePath": "C:\\Users\\DCota\\Documents\\Crypto\\Consensys Blockchain Developer\\blockchain-developer-bootcamp-final-project\\contracts\\HouseOfReserve.sol",
  "compiler": {
    "name": "solc",
    "version": "0.8.2+commit.661d1103.Emscripten.clang"
  },
  "schemaVersion": "3.4.3",
  "updatedAt": "2021-11-22T01:33:18.960Z",
  "networkType": "ethereum",
  "devdoc": {
    "kind": "dev",
    "methods": {
      "checkMaxWithdrawal(address)": {
        "params": {
          "user": "Address to check. "
        }
      },
      "deposit(uint256)": {
        "details": "Requires user's ERC20 approval prior to calling.",
        "params": {
          "amount": "To deposit.  Emits a {UserDeposit} event."
        }
      },
      "getRoleAdmin(bytes32)": {
        "details": "Returns the admin role that controls `role`. See {grantRole} and {revokeRole}. To change a role's admin, use {_setRoleAdmin}."
      },
      "grantRole(bytes32,address)": {
        "details": "Grants `role` to `account`. If `account` had not been already granted `role`, emits a {RoleGranted} event. Requirements: - the caller must have ``role``'s admin role."
      },
      "hasRole(bytes32,address)": {
        "details": "Returns `true` if `account` has been granted `role`."
      },
      "initialize(address,address,address,address)": {
        "details": "Initializes this contract by setting:",
        "params": {
          "_assetsAccountant": "Address of the {AssetsAccountant} contract.",
          "_backedAsset": "ERC20 address of the asset type of coin that can be backed with this reserves.",
          "_oracle": "Address of the oracle that will return price in _backedAsset units per reserve asset units.",
          "_reserveAsset": "ERC20 address of reserve asset handled in this contract."
        }
      },
      "renounceRole(bytes32,address)": {
        "details": "Revokes `role` from the calling account. Roles are often managed via {grantRole} and {revokeRole}: this function's purpose is to provide a mechanism for accounts to lose their privileges if they are compromised (such as when a trusted device is misplaced). If the calling account had been granted `role`, emits a {RoleRevoked} event. Requirements: - the caller must be `account`."
      },
      "revokeRole(bytes32,address)": {
        "details": "Revokes `role` from `account`. If `account` had been granted `role`, emits a {RoleRevoked} event. Requirements: - the caller must have ``role``'s admin role."
      },
      "setCollateralRatio(uint256,uint256)": {
        "details": "Numerator and denominator should be > 0, and numerator > denominator",
        "params": {
          "denominator": "of new collateralization factor. Emits a {CollateralRatioChanged} event.",
          "numerator": "of new collateralization factor."
        }
      },
      "supportsInterface(bytes4)": {
        "details": "See {IERC165-supportsInterface}."
      },
      "withdraw(uint256)": {
        "details": "Function checks if user can withdraw specified amount.",
        "params": {
          "amount": "To withdraw.  Emits a {UserWitdhraw} event."
        }
      }
    },
    "version": 1
  },
  "userdoc": {
    "kind": "user",
    "methods": {
      "checkMaxWithdrawal(address)": {
        "notice": "Function to calculate the max reserves user can withdraw from contract."
      },
      "deposit(uint256)": {
        "notice": "Function to deposit reserves in this contract.DO NOT!! send direct ERC20 transfers to this contract."
      },
      "setCollateralRatio(uint256,uint256)": {
        "notice": "Function to set the collateralization ration of this contract."
      },
      "withdraw(uint256)": {
        "notice": "Function to withdraw reserves in this contract."
      }
    },
    "version": 1
  }
}