{
  "contractName": "HouseOfReserve",
  "abi": [
    {
      "inputs": [],
      "name": "backedAsset",
      "outputs": [
        {
          "internalType": "address",
          "name": "",
          "type": "address"
        }
      ],
      "stateMutability": "view",
      "type": "function"
    },
    {
      "inputs": [],
      "name": "collaterizationRatio",
      "outputs": [
        {
          "internalType": "uint256",
          "name": "numerator",
          "type": "uint256"
        },
        {
          "internalType": "uint256",
          "name": "denominator",
          "type": "uint256"
        }
      ],
      "stateMutability": "view",
      "type": "function"
    },
    {
      "inputs": [],
      "name": "reserveAsset",
      "outputs": [
        {
          "internalType": "address",
          "name": "",
          "type": "address"
        }
      ],
      "stateMutability": "view",
      "type": "function"
    },
    {
      "inputs": [],
      "name": "tokenID",
      "outputs": [
        {
          "internalType": "uint256",
          "name": "",
          "type": "uint256"
        }
      ],
      "stateMutability": "view",
      "type": "function"
    },
    {
      "inputs": [
        {
          "internalType": "address",
          "name": "_backedAsset",
          "type": "address"
        },
        {
          "internalType": "address",
          "name": "_reserveAsset",
          "type": "address"
        },
        {
          "components": [
            {
              "internalType": "uint256",
              "name": "numerator",
              "type": "uint256"
            },
            {
              "internalType": "uint256",
              "name": "denominator",
              "type": "uint256"
            }
          ],
          "internalType": "struct HouseOfReserve.Factor",
          "name": "_collaterizationRatio",
          "type": "tuple"
        }
      ],
      "name": "initialize",
      "outputs": [],
      "stateMutability": "nonpayable",
      "type": "function"
    },
    {
      "inputs": [
        {
          "internalType": "uint256",
          "name": "amount",
          "type": "uint256"
        }
      ],
      "name": "deposit",
      "outputs": [
        {
          "internalType": "bool",
          "name": "",
          "type": "bool"
        }
      ],
      "stateMutability": "nonpayable",
      "type": "function"
    },
    {
      "inputs": [
        {
          "internalType": "uint256",
          "name": "amount",
          "type": "uint256"
        }
      ],
      "name": "withdraw",
      "outputs": [
        {
          "internalType": "bool",
          "name": "",
          "type": "bool"
        }
      ],
      "stateMutability": "nonpayable",
      "type": "function"
    }
  ],
  "bytecode": "0x608060405234801561001057600080fd5b50610850806100206000396000f3fe608060405234801561001057600080fd5b506004361061007d5760003560e01c8063a52e7d701161005b578063a52e7d70146100ed578063a5c42ef11461010b578063b6b55f2514610129578063f85cb5c8146101595761007d565b80632e1a7d4d146100825780635eb6b48d146100b25780638019ea4c146100d1575b600080fd5b61009c60048036038101906100979190610463565b610177565b6040516100a99190610568565b60405180910390f35b6100ba61017e565b6040516100c89291906105be565b60405180910390f35b6100eb60048036038101906100e69190610414565b610190565b005b6100f5610376565b604051610102919061054d565b60405180910390f35b61011361039c565b60405161012091906105a3565b60405180910390f35b610143600480360381019061013e9190610463565b6103a2565b6040516101509190610568565b60405180910390f35b6101616103a9565b60405161016e919061054d565b60405180910390f35b6000919050565b60018060000154908060010154905082565b600060019054906101000a900460ff16806101b6575060008054906101000a900460ff16155b6101f5576040517f08c379a00000000000000000000000000000000000000000000000000000000081526004016101ec90610583565b60405180910390fd5b60008060019054906101000a900460ff161590508015610245576001600060016101000a81548160ff02191690831515021790555060016000806101000a81548160ff0219169083151502179055505b83600360006101000a81548173ffffffffffffffffffffffffffffffffffffffff021916908373ffffffffffffffffffffffffffffffffffffffff16021790555082600460006101000a81548173ffffffffffffffffffffffffffffffffffffffff021916908373ffffffffffffffffffffffffffffffffffffffff160217905550600360009054906101000a900473ffffffffffffffffffffffffffffffffffffffff16600460009054906101000a900473ffffffffffffffffffffffffffffffffffffffff1660405160200161031e929190610516565b6040516020818303038152906040528051906020012060001c600581905550816001818161034c91906107bb565b90505080156103705760008060016101000a81548160ff0219169083151502179055505b50505050565b600360009054906101000a900473ffffffffffffffffffffffffffffffffffffffff1681565b60055481565b6000919050565b600460009054906101000a900473ffffffffffffffffffffffffffffffffffffffff1681565b6000813590506103de816107ec565b92915050565b6000604082840312156103f657600080fd5b81905092915050565b60008135905061040e81610803565b92915050565b60008060006080848603121561042957600080fd5b6000610437868287016103cf565b9350506020610448868287016103cf565b9250506040610459868287016103e4565b9150509250925092565b60006020828403121561047557600080fd5b6000610483848285016103ff565b91505092915050565b61049581610603565b82525050565b6104ac6104a782610603565b6106a3565b82525050565b6104bb81610615565b82525050565b60006104ce602e836105e7565b91506104d982610701565b604082019050919050565b60006104f1600a836105f8565b91506104fc82610750565b600a82019050919050565b61051081610641565b82525050565b6000610522828561049b565b601482019150610532828461049b565b601482019150610541826104e4565b91508190509392505050565b6000602082019050610562600083018461048c565b92915050565b600060208201905061057d60008301846104b2565b92915050565b6000602082019050818103600083015261059c816104c1565b9050919050565b60006020820190506105b86000830184610507565b92915050565b60006040820190506105d36000830185610507565b6105e06020830184610507565b9392505050565b600082825260208201905092915050565b600081905092915050565b600061060e82610621565b9050919050565b60008115159050919050565b600073ffffffffffffffffffffffffffffffffffffffff82169050919050565b6000819050919050565b600061065682610641565b9050919050565b60008101600083018061066f816106d1565b905061067b81846107c9565b505050600181016020830180610690816106d1565b905061069c81846107c9565b5050505050565b60006106ae826106b5565b9050919050565b60006106c0826106f4565b9050919050565b6000819050919050565b600081356106de81610803565b80915050919050565b60008160001b9050919050565b60008160601b9050919050565b7f496e697469616c697a61626c653a20636f6e747261637420697320616c72656160008201527f647920696e697469616c697a6564000000000000000000000000000000000000602082015250565b7f636f6c6c61746572616c00000000000000000000000000000000000000000000600082015250565b60007fffffffffffffffffffffffffffffffffffffffffffffffffffffffffffffffff6107a5846106e7565b9350801983169250808416831791505092915050565b6107c5828261065d565b5050565b6107d28261064b565b6107e56107de826106c7565b8354610779565b8255505050565b6107f581610603565b811461080057600080fd5b50565b61080c81610641565b811461081757600080fd5b5056fea2646970667358221220cf557e9cd3cf90051c3508ef9a1d4cc823a0a90239d5ec9dbc6b9bcec500cef164736f6c63430008020033",
  "immutableReferences": {},
  "source": "// SPDX-License-Identifier: MIT\npragma solidity 0.8.2;\n\n// The HouseOfReserve contract custodies all deposits, to allow minting of the backedAsset. \n// Users can only deposit and withdraw from this contract.\n\nimport \"@openzeppelin/contracts/proxy/utils/Initializable.sol\";\nimport \"@openzeppelin/contracts/token/ERC1155/IERC1155.sol\";\n\ncontract HouseOfReserve is Initializable {\n\n  struct Factor{\n    uint numerator;\n    uint denominator;\n  }\n\n  Factor public collaterizationRatio;\n\n  address public backedAsset;\n\n  address public reserveAsset;\n\n  uint public tokenID;\n\n  function initialize(address _backedAsset, address _reserveAsset, Factor calldata _collaterizationRatio) public initializer() {\n    backedAsset = _backedAsset;\n    reserveAsset = _reserveAsset;\n    tokenID = uint(keccak256(abi.encodePacked(backedAsset, reserveAsset, \"collateral\")));\n    collaterizationRatio = _collaterizationRatio;\n  }\n\n  function deposit(uint amount) public returns(bool){\n    // Validate input amount.\n\n    // Check ERC20 approval of msg.sender.\n\n    // Transfer reserveAsset amount to this contract.\n\n    // Mint in AssetsAccountant received amount.\n\n    // Emit deposit event.\n\n    return false;\n  }\n\n  function withdraw(uint amount) public returns(bool) {\n    // Validate input amount.\n\n    // Check if msg.sender has minted backedAsset.\n\n    // Check if withdrawal amount does not result in insolvency or undercollateralization or msg.sender.\n\n    // Burn in AssetsAccountant amount.\n\n    // Transfer reserveAsset to msg.sender\n\n    return false;\n  }\n\n}\n",
  "sourcePath": "C:\\Users\\DCota\\Documents\\Crypto\\Consensys Blockchain Developer\\blockchain-developer-bootcamp-final-project\\contracts\\HouseOfReserve.sol",
  "compiler": {
    "name": "solc",
    "version": "0.8.2+commit.661d1103.Emscripten.clang"
  },
  "schemaVersion": "3.4.3",
  "updatedAt": "2021-10-30T02:57:29.717Z",
  "devdoc": {
    "kind": "dev",
    "methods": {},
    "version": 1
  },
  "userdoc": {
    "kind": "user",
    "methods": {},
    "version": 1
  }
}