{
  "contractName": "HouseOfCoinState",
  "abi": [
    {
      "anonymous": false,
      "inputs": [
        {
          "indexed": true,
          "internalType": "address",
          "name": "user",
          "type": "address"
        },
        {
          "indexed": true,
          "internalType": "uint256",
          "name": "backedtokenID",
          "type": "uint256"
        },
        {
          "indexed": false,
          "internalType": "uint256",
          "name": "amount",
          "type": "uint256"
        }
      ],
      "name": "CoinMinted",
      "type": "event"
    },
    {
      "anonymous": false,
      "inputs": [
        {
          "indexed": true,
          "internalType": "address",
          "name": "user",
          "type": "address"
        },
        {
          "indexed": true,
          "internalType": "uint256",
          "name": "backedtokenID",
          "type": "uint256"
        },
        {
          "indexed": false,
          "internalType": "uint256",
          "name": "amount",
          "type": "uint256"
        }
      ],
      "name": "CoinPayback",
      "type": "event"
    },
    {
      "inputs": [],
      "name": "HOUSE_TYPE",
      "outputs": [
        {
          "internalType": "bytes32",
          "name": "",
          "type": "bytes32"
        }
      ],
      "stateMutability": "view",
      "type": "function"
    },
    {
      "inputs": [],
      "name": "assetsAccountant",
      "outputs": [
        {
          "internalType": "address",
          "name": "",
          "type": "address"
        }
      ],
      "stateMutability": "view",
      "type": "function"
    },
    {
      "inputs": [],
      "name": "backedAsset",
      "outputs": [
        {
          "internalType": "address",
          "name": "",
          "type": "address"
        }
      ],
      "stateMutability": "view",
      "type": "function"
    },
    {
      "inputs": [],
      "name": "oracle",
      "outputs": [
        {
          "internalType": "contract IOracle",
          "name": "",
          "type": "address"
        }
      ],
      "stateMutability": "view",
      "type": "function"
    }
  ],
  "bytecode": "0x608060405234801561001057600080fd5b50610271806100206000396000f3fe608060405234801561001057600080fd5b506004361061004c5760003560e01c806320a2fe2c146100515780637dc0d1d01461006f578063a52e7d701461008d578063d166d710146100ab575b600080fd5b6100596100c9565b60405161006691906101a5565b60405180910390f35b6100776100ed565b60405161008491906101c0565b60405180910390f35b610095610113565b6040516100a2919061018a565b60405180910390f35b6100b3610137565b6040516100c0919061018a565b60405180910390f35b7f0e8d57385c93a5e38777996badb732bccd842bb4d3c5896e296a53db92c724d381565b600260009054906101000a900473ffffffffffffffffffffffffffffffffffffffff1681565b60008054906101000a900473ffffffffffffffffffffffffffffffffffffffff1681565b600160009054906101000a900473ffffffffffffffffffffffffffffffffffffffff1681565b610166816101db565b82525050565b610175816101ed565b82525050565b61018481610217565b82525050565b600060208201905061019f600083018461015d565b92915050565b60006020820190506101ba600083018461016c565b92915050565b60006020820190506101d5600083018461017b565b92915050565b60006101e6826101f7565b9050919050565b6000819050919050565b600073ffffffffffffffffffffffffffffffffffffffff82169050919050565b600061022282610229565b9050919050565b6000610234826101f7565b905091905056fea2646970667358221220de53bb6b335342ed09d92e6f3a26761c5978fe52d9920d6c65145026adea22a164736f6c63430008020033",
  "immutableReferences": {},
  "source": "// SPDX-License-Identifier: MIT\r\npragma solidity 0.8.2;\r\n\r\n/**\r\n* @title The house Of coin minting contract.\r\n* @author daigaro.eth\r\n* @notice  Allows users with acceptable reserves to mint backedAsset.\r\n* @notice  Allows user to burn their minted asset to release their reserve.\r\n* @dev  Contracts are split into state and functionality.\r\n*/\r\n\r\nimport \"@openzeppelin/contracts/proxy/utils/Initializable.sol\";\r\nimport \"@openzeppelin/contracts/token/ERC1155/IERC1155.sol\";\r\nimport \"./interfaces/IERC20Extension.sol\";\r\nimport \"./interfaces/IOracle.sol\";\r\nimport \"./interfaces/IAssetsAccountant.sol\";\r\nimport \"./interfaces/IAssetsAccountantState.sol\";\r\nimport \"./interfaces/IHouseOfReserveState.sol\";\r\n\r\ncontract HouseOfCoinState {\r\n\r\n    // HouseOfCoinMinting Events\r\n    /**\r\n    * @dev Log when a user is mints coin.\r\n    * @param user Address of user that minted coin.\r\n    * @param backedtokenID Token Id number of asset in {AssetsAccountant}.\r\n    * @param amount minted.\r\n    */\r\n    event CoinMinted(address indexed user, uint indexed backedtokenID, uint amount);\r\n\r\n    /**\r\n    * @dev Log when a user paybacks minted coin.\r\n    * @param user Address of user that minted coin.\r\n    * @param backedtokenID Token Id number of asset in {AssetsAccountant}.\r\n    * @param amount payback.\r\n    */\r\n    event CoinPayback(address indexed user, uint indexed backedtokenID, uint amount);\r\n\r\n    bytes32 public constant HOUSE_TYPE = keccak256(\"COIN_HOUSE\");\r\n\r\n    address public backedAsset;\r\n\r\n    address public assetsAccountant;\r\n\r\n    IOracle public oracle;\r\n}\r\n\r\ncontract HouseOfCoin is Initializable, HouseOfCoinState {\r\n    \r\n    /**\r\n    * @dev Initializes this contract by setting:\r\n    * @param _backedAsset ERC20 address of the asset type of coin to be minted in this contract.\r\n    * @param _assetsAccountant Address of the {AssetsAccountant} contract.\r\n    * @param _oracle Address of the oracle that will return price in _backedAsset units per reserve asset units.\r\n    */\r\n    function initialize(\r\n        address _backedAsset,\r\n        address _assetsAccountant,\r\n        address _oracle\r\n    ) public initializer() \r\n    {\r\n        backedAsset = _backedAsset;\r\n        assetsAccountant = _assetsAccountant;\r\n        oracle = IOracle(_oracle);\r\n    }\r\n\r\n    /**\r\n    * @notice  Function to mint ERC20 'backedAsset' of this HouseOfCoin.\r\n    * @dev  Requires user to have reserves for this backed asset at HouseOfReserves.\r\n    * @param reserveAsset ERC20 address of asset to be used to back the minted coins.\r\n    * @param houseOfReserve Address of the {HouseOfReserves} contract that manages the 'reserveAsset'.\r\n    * @param amount To mint. \r\n    * Emits a {CoinMinted} event.\r\n    */\r\n    function mintCoin(address reserveAsset, address houseOfReserve, uint amount) public {\r\n\r\n        IHouseOfReserveState hOfReserve = IHouseOfReserveState(houseOfReserve);\r\n        IERC20Extension bAsset = IERC20Extension(backedAsset);\r\n\r\n        uint reserveTokenID = hOfReserve.reserveTokenID();\r\n        uint backedTokenID = getBackedTokenID(reserveAsset);\r\n\r\n        // Validate reserveAsset is active with {AssetsAccountant} and check houseOfReserve inputs.\r\n        require(\r\n            IAssetsAccountantState(assetsAccountant).houseOfReserves(reserveTokenID) != address(0) &&\r\n            hOfReserve.reserveAsset() == reserveAsset,\r\n            \"Not valid reserveAsset!\"\r\n        );\r\n\r\n        // Validate this HouseOfCoin is active with {AssetsAccountant} and can mint backedAsset.\r\n        require(bAsset.hasRole(keccak256(\"MINTER_ROLE\"), address(this)), \"houseOfCoin not authorized to mint backedAsset!\" );\r\n\r\n        // Get inputs for checking minting power, collateralization factor and oracle price\r\n        IHouseOfReserveState.Factor memory collatRatio = hOfReserve.collateralRatio();\r\n        uint price = oracle.getLastPrice();\r\n\r\n        // Checks minting power of msg.sender.\r\n        uint mintingPower = _checkMintingPower(\r\n            msg.sender,\r\n            reserveTokenID,\r\n            backedTokenID,\r\n            collatRatio,\r\n            price\r\n        );\r\n        require(\r\n            mintingPower > 0 &&\r\n            mintingPower >= amount,\r\n             \"Not enough reserves to mint amount!\"\r\n        );\r\n\r\n        // Update state in AssetAccountant\r\n        IAssetsAccountant(assetsAccountant).mint(\r\n            msg.sender,\r\n            backedTokenID,\r\n            amount,\r\n            \"\"\r\n        );\r\n\r\n        // Mint backedAsset Coins\r\n        bAsset.mint(msg.sender, amount);\r\n\r\n        // Emit Event\r\n        emit CoinMinted(msg.sender, backedTokenID, amount);\r\n    }\r\n\r\n    /**\r\n    * @notice  Function to payback ERC20 'backedAsset' of this HouseOfCoin.\r\n    * @dev Requires knowledge of the reserve asset used to back the minted coins.\r\n    * @param _backedTokenID Token Id in {AssetsAccountant}, releases the reserve asset used in 'getTokenID'.\r\n    * @param amount To payback. \r\n    * Emits a {CoinPayback} event.\r\n    */\r\n    function paybackCoin(uint _backedTokenID, uint amount) public {\r\n\r\n        IAssetsAccountant accountant = IAssetsAccountant(assetsAccountant);\r\n        IERC20Extension bAsset = IERC20Extension(backedAsset);\r\n\r\n        uint userTokenIDBal = accountant.balanceOf(msg.sender, _backedTokenID);\r\n\r\n        // Check in {AssetsAccountant} that msg.sender backedAsset was created with assets '_backedTokenID'\r\n        require(userTokenIDBal >= 0, \"No _backedTokenID balance!\");\r\n\r\n        // Check that amount is less than '_backedTokenID' in {Assetsaccountant}\r\n        require(userTokenIDBal >= amount, \"amount >  _backedTokenID balance!\");\r\n\r\n        // Check that msg.sender has the intended backed ERC20 asset.\r\n        require(bAsset.balanceOf(msg.sender) >= amount, \"No ERC20 allowance!\");\r\n\r\n        // Burn amount of ERC20 tokens paybacked.\r\n        bAsset.burn(msg.sender, amount);\r\n\r\n        // Burn amount of _backedTokenID in {AssetsAccountant}\r\n        accountant.burn(msg.sender, _backedTokenID, amount);\r\n\r\n        emit CoinPayback(msg.sender, _backedTokenID, amount);\r\n    }\r\n\r\n    /**\r\n    *\r\n    * @dev  Get backedTokenID to be used in {AssetsAccountant}\r\n    * @param _reserveAsset ERC20 address of the reserve asset used to back coin.\r\n    */\r\n    function getBackedTokenID(address _reserveAsset) public view returns(uint) {\r\n        return uint(keccak256(abi.encodePacked(_reserveAsset, backedAsset, \"backedAsset\")));\r\n    }\r\n    \r\n    /**\r\n    * @dev  Internal function to query balances in {AssetsAccountant}\r\n    */\r\n    function _checkBalances(\r\n        address user,\r\n        uint _reservesTokenID,\r\n        uint _bAssetRTokenID\r\n    ) internal view returns (uint reserveBal, uint mintedCoinBal) {\r\n        reserveBal = IERC1155(assetsAccountant).balanceOf(user, _reservesTokenID);\r\n        mintedCoinBal = IERC1155(assetsAccountant).balanceOf(user, _bAssetRTokenID);\r\n    }\r\n\r\n    /**\r\n    * @notice  External function that returns the amount of backed asset coins user can mint with unused reserve asset.\r\n    * @param user to check minting power.\r\n    * @param reserveAsset Address of reserve asset.\r\n    */\r\n    function checkMintingPower(address user, address reserveAsset) external view returns(uint) {\r\n\r\n        // Get all required inputs\r\n        IAssetsAccountantState accountant = IAssetsAccountantState(assetsAccountant);\r\n\r\n        uint reserveTokenID = accountant.reservesIds(reserveAsset, backedAsset);\r\n\r\n        uint backedTokenID = getBackedTokenID(reserveAsset);\r\n\r\n        address hOfReserveAddr = accountant.houseOfReserves(reserveTokenID);\r\n\r\n        IHouseOfReserveState hOfReserve = IHouseOfReserveState(hOfReserveAddr);\r\n\r\n        IHouseOfReserveState.Factor memory collatRatio = hOfReserve.collateralRatio();\r\n\r\n        uint price = oracle.getLastPrice();\r\n\r\n        return _checkMintingPower(\r\n            user,\r\n            reserveTokenID,\r\n            backedTokenID,\r\n            collatRatio,\r\n            price\r\n        );\r\n    }\r\n\r\n    /**\r\n    * @dev  Internal function to check if user is liquidatable\r\n    */\r\n    function _checkMintingPower(\r\n        address user,\r\n        uint reserveTokenID,\r\n        uint backedTokenID,\r\n        IHouseOfReserveState.Factor memory collatRatio,\r\n        uint price\r\n    ) public view returns(uint) {\r\n\r\n        // Need balances for tokenIDs of both reserves and backed asset in {AssetsAccountant}\r\n        (uint reserveBal, uint mintedCoinBal) =  _checkBalances(\r\n            user,\r\n            reserveTokenID,\r\n            backedTokenID\r\n        );\r\n\r\n        // Check if msg.sender has reserves\r\n        if (reserveBal == 0) {\r\n            // If msg.sender has NO reserves, minting power = 0.\r\n            return 0;\r\n        } else {\r\n            // Check that user is not Liquidatable\r\n            (bool liquidatable, uint mintingPower) = _checkIfLiquidatable(\r\n                reserveBal,\r\n                mintedCoinBal,\r\n                collatRatio,\r\n                price\r\n            );\r\n            if(liquidatable) {\r\n                // If msg.sender is liquidatable, minting power = 0.\r\n                return 0;\r\n            } else {\r\n                return mintingPower;\r\n            }\r\n        }\r\n    }\r\n\r\n    /**\r\n    * @dev  Internal function to check if user is liquidatable\r\n    */\r\n    function _checkIfLiquidatable(\r\n        uint reserveBal,\r\n        uint mintedCoinBal,\r\n        IHouseOfReserveState.Factor memory collatRatio,\r\n        uint price\r\n    ) internal view returns (bool liquidatable, uint mintingPower) {\r\n\r\n        uint reserveBalreducedByFactor =\r\n            ( reserveBal * collatRatio.denominator) / collatRatio.numerator;\r\n            \r\n        uint maxMintableAmount =\r\n            (reserveBalreducedByFactor * price) / 10**(oracle.oraclePriceDecimals());\r\n\r\n        liquidatable = mintedCoinBal > maxMintableAmount? true : false;\r\n\r\n        mintingPower = !liquidatable ? (maxMintableAmount - mintedCoinBal) : 0;\r\n    }\r\n}",
  "sourcePath": "C:\\Users\\DCota\\Documents\\Crypto\\Consensys Blockchain Developer\\blockchain-developer-bootcamp-final-project\\contracts\\HouseOfCoin.sol",
  "compiler": {
    "name": "solc",
    "version": "0.8.2+commit.661d1103.Emscripten.clang"
  },
  "schemaVersion": "3.4.3",
  "updatedAt": "2021-11-22T01:32:53.946Z",
  "devdoc": {
    "events": {
      "CoinMinted(address,uint256,uint256)": {
        "details": "Log when a user is mints coin.",
        "params": {
          "amount": "minted.",
          "backedtokenID": "Token Id number of asset in {AssetsAccountant}.",
          "user": "Address of user that minted coin."
        }
      },
      "CoinPayback(address,uint256,uint256)": {
        "details": "Log when a user paybacks minted coin.",
        "params": {
          "amount": "payback.",
          "backedtokenID": "Token Id number of asset in {AssetsAccountant}.",
          "user": "Address of user that minted coin."
        }
      }
    },
    "kind": "dev",
    "methods": {},
    "version": 1
  },
  "userdoc": {
    "kind": "user",
    "methods": {},
    "version": 1
  }
}