{
  "contractName": "HouseOfReserveState",
  "abi": [
    {
      "anonymous": false,
      "inputs": [
        {
          "components": [
            {
              "internalType": "uint256",
              "name": "numerator",
              "type": "uint256"
            },
            {
              "internalType": "uint256",
              "name": "denominator",
              "type": "uint256"
            }
          ],
          "indexed": false,
          "internalType": "struct HouseOfReserveState.Factor",
          "name": "newFactor",
          "type": "tuple"
        }
      ],
      "name": "CollateralRatioChanged",
      "type": "event"
    },
    {
      "anonymous": false,
      "inputs": [
        {
          "indexed": true,
          "internalType": "address",
          "name": "user",
          "type": "address"
        },
        {
          "indexed": true,
          "internalType": "address",
          "name": "asset",
          "type": "address"
        },
        {
          "indexed": false,
          "internalType": "uint256",
          "name": "amount",
          "type": "uint256"
        }
      ],
      "name": "UserDeposit",
      "type": "event"
    },
    {
      "anonymous": false,
      "inputs": [
        {
          "indexed": true,
          "internalType": "address",
          "name": "user",
          "type": "address"
        },
        {
          "indexed": true,
          "internalType": "address",
          "name": "asset",
          "type": "address"
        },
        {
          "indexed": false,
          "internalType": "uint256",
          "name": "amount",
          "type": "uint256"
        }
      ],
      "name": "UserWithdraw",
      "type": "event"
    },
    {
      "inputs": [],
      "name": "HOUSE_TYPE",
      "outputs": [
        {
          "internalType": "bytes32",
          "name": "",
          "type": "bytes32"
        }
      ],
      "stateMutability": "view",
      "type": "function"
    },
    {
      "inputs": [],
      "name": "assetsAccountant",
      "outputs": [
        {
          "internalType": "contract IAssetsAccountant",
          "name": "",
          "type": "address"
        }
      ],
      "stateMutability": "view",
      "type": "function"
    },
    {
      "inputs": [],
      "name": "backedAsset",
      "outputs": [
        {
          "internalType": "address",
          "name": "",
          "type": "address"
        }
      ],
      "stateMutability": "view",
      "type": "function"
    },
    {
      "inputs": [],
      "name": "backedTokenID",
      "outputs": [
        {
          "internalType": "uint256",
          "name": "",
          "type": "uint256"
        }
      ],
      "stateMutability": "view",
      "type": "function"
    },
    {
      "inputs": [],
      "name": "collateralRatio",
      "outputs": [
        {
          "internalType": "uint256",
          "name": "numerator",
          "type": "uint256"
        },
        {
          "internalType": "uint256",
          "name": "denominator",
          "type": "uint256"
        }
      ],
      "stateMutability": "view",
      "type": "function"
    },
    {
      "inputs": [],
      "name": "oracle",
      "outputs": [
        {
          "internalType": "contract IOracle",
          "name": "",
          "type": "address"
        }
      ],
      "stateMutability": "view",
      "type": "function"
    },
    {
      "inputs": [],
      "name": "reserveAsset",
      "outputs": [
        {
          "internalType": "address",
          "name": "",
          "type": "address"
        }
      ],
      "stateMutability": "view",
      "type": "function"
    },
    {
      "inputs": [],
      "name": "reserveTokenID",
      "outputs": [
        {
          "internalType": "uint256",
          "name": "",
          "type": "uint256"
        }
      ],
      "stateMutability": "view",
      "type": "function"
    }
  ],
  "bytecode": "0x608060405234801561001057600080fd5b50610415806100206000396000f3fe608060405234801561001057600080fd5b50600436106100885760003560e01c8063a52e7d701161005b578063a52e7d7014610105578063b4eae1cb14610123578063d166d71014610142578063f85cb5c81461016057610088565b806320a2fe2c1461008d5780634ddb4692146100ab5780637dc0d1d0146100c95780638f429cd0146100e7575b600080fd5b61009561017e565b6040516100a291906102bc565b60405180910390f35b6100b36101a2565b6040516100c0919061030d565b60405180910390f35b6100d16101a8565b6040516100de91906102f2565b60405180910390f35b6100ef6101ce565b6040516100fc919061030d565b60405180910390f35b61010d6101d4565b60405161011a91906102a1565b60405180910390f35b61012b6101fa565b604051610139929190610328565b60405180910390f35b61014a61020c565b60405161015791906102d7565b60405180910390f35b610168610232565b60405161017591906102a1565b60405180910390f35b7f9b79543f18cc25b898fc91fdd01b1c5ceb8646ecccfabdf25ea8858b797a1bc381565b60035481565b600760009054906101000a900473ffffffffffffffffffffffffffffffffffffffff1681565b60025481565b600160009054906101000a900473ffffffffffffffffffffffffffffffffffffffff1681565b60048060000154908060010154905082565b600660009054906101000a900473ffffffffffffffffffffffffffffffffffffffff1681565b60008054906101000a900473ffffffffffffffffffffffffffffffffffffffff1681565b61025f81610351565b82525050565b61026e81610363565b82525050565b61027d81610397565b82525050565b61028c816103bb565b82525050565b61029b8161038d565b82525050565b60006020820190506102b66000830184610256565b92915050565b60006020820190506102d16000830184610265565b92915050565b60006020820190506102ec6000830184610274565b92915050565b60006020820190506103076000830184610283565b92915050565b60006020820190506103226000830184610292565b92915050565b600060408201905061033d6000830185610292565b61034a6020830184610292565b9392505050565b600061035c8261036d565b9050919050565b6000819050919050565b600073ffffffffffffffffffffffffffffffffffffffff82169050919050565b6000819050919050565b60006103a2826103a9565b9050919050565b60006103b48261036d565b9050919050565b60006103c6826103cd565b9050919050565b60006103d88261036d565b905091905056fea2646970667358221220618ba64f60facf18b1a97f3461bf4184ac4d6e635970739726eccc225575051c64736f6c63430008020033",
  "immutableReferences": {},
  "source": "// SPDX-License-Identifier: MIT\r\npragma solidity 0.8.2;\r\n\r\n/**\r\n* @title The house of reserves contract.\r\n* @author daigaro.eth\r\n* @notice Custodies all deposits, to allow minting of the backedAsset.\r\n* @notice Users can only deposit and withdraw from this contract.\r\n* @dev  Contracts are split into state and functionality.\r\n* @dev A HouseOfReserve is required to back a specific backedAsset. \r\n*/\r\n\r\nimport \"@openzeppelin/contracts/proxy/utils/Initializable.sol\";\r\nimport \"@openzeppelin/contracts/token/ERC1155/IERC1155.sol\";\r\nimport \"@openzeppelin/contracts/token/ERC20/IERC20.sol\";\r\nimport \"@openzeppelin/contracts/access/AccessControl.sol\";\r\nimport \"./interfaces/IAssetsAccountant.sol\";\r\nimport \"./interfaces/IOracle.sol\";\r\n\r\ncontract HouseOfReserveState {\r\n\r\n  // HouseOfReserve Events\r\n\r\n  /**  \r\n  * @dev Emit when user makes an asset deposit in this contract.\r\n  * @param user Address of depositor.\r\n  * @param asset ERC20 address of the reserve asset.\r\n  * @param amount deposited.\r\n  */\r\n  event UserDeposit(address indexed user, address indexed asset, uint amount);\r\n  /**  \r\n  * @dev Emit when user makes an asset withdrawal from this HouseOfReserve\r\n  * @param user Address of user withdrawing.\r\n  * @param asset ERC20 address of the reserve asset.\r\n  * @param amount withraw.\r\n  */\r\n  event UserWithdraw(address indexed user, address indexed asset, uint amount);\r\n    /**  \r\n  * @dev Emit when user DEFAULT_ADMIN changes the collateralization factor of this HouseOfReserve\r\n  * @param newFactor New struct indicating the factor values.\r\n  */\r\n  event CollateralRatioChanged(Factor newFactor);\r\n\r\n  struct Factor{\r\n      uint numerator;\r\n      uint denominator;\r\n  }\r\n\r\n  address public reserveAsset;\r\n\r\n  address public backedAsset;\r\n\r\n  uint public reserveTokenID;\r\n\r\n  uint public  backedTokenID;\r\n\r\n  Factor public collateralRatio;\r\n\r\n  IAssetsAccountant public assetsAccountant;\r\n\r\n  IOracle public oracle;\r\n\r\n  bytes32 public constant HOUSE_TYPE = keccak256(\"RESERVE_HOUSE\");\r\n\r\n}\r\n\r\ncontract HouseOfReserve is Initializable, AccessControl, HouseOfReserveState {\r\n\r\n    /**\r\n   * @dev Initializes this contract by setting:\r\n   * @param _reserveAsset ERC20 address of reserve asset handled in this contract.\r\n   * @param _backedAsset ERC20 address of the asset type of coin that can be backed with this reserves.\r\n   * @param _assetsAccountant Address of the {AssetsAccountant} contract.\r\n   * @param _oracle Address of the oracle that will return price in _backedAsset units per reserve asset units.\r\n   */\r\n  function initialize(\r\n    address _reserveAsset,\r\n    address _backedAsset,\r\n    address _assetsAccountant,\r\n    address _oracle\r\n  ) public initializer() {\r\n\r\n    reserveAsset = _reserveAsset;\r\n    backedAsset = _backedAsset;\r\n    reserveTokenID = uint(keccak256(abi.encodePacked(reserveAsset, backedAsset, \"collateral\")));\r\n    backedTokenID = uint(keccak256(abi.encodePacked(reserveAsset, backedAsset, \"backedAsset\")));\r\n    collateralRatio.numerator = 150;\r\n    collateralRatio.denominator = 100;\r\n    assetsAccountant = IAssetsAccountant(_assetsAccountant);\r\n    oracle = IOracle(_oracle);\r\n    _setupRole(DEFAULT_ADMIN_ROLE, msg.sender);\r\n\r\n  }\r\n\r\n  /**\r\n   * @notice Function to deposit reserves in this contract.\r\n   * @notice DO NOT!! send direct ERC20 transfers to this contract.\r\n   * @dev Requires user's ERC20 approval prior to calling.\r\n   * @param amount To deposit. \r\n   * Emits a {UserDeposit} event.\r\n   */\r\n  function deposit(uint amount) public {\r\n    // Validate input amount.\r\n    require(amount>0, \"Zero input amount!\");\r\n\r\n    // Check ERC20 approval of msg.sender.\r\n    require(IERC20(reserveAsset).allowance(msg.sender, address(this)) >= amount, \"Not enough ERC20 allowance!\");\r\n\r\n    // Transfer reserveAsset amount to this contract.\r\n    IERC20(reserveAsset).transferFrom(msg.sender, address(this), amount);\r\n\r\n    // Mint in AssetsAccountant received amount.\r\n    assetsAccountant.mint(msg.sender, reserveTokenID, amount, \"\");\r\n    \r\n    // Emit deposit event.\r\n    emit UserDeposit(msg.sender, reserveAsset, amount);\r\n  }\r\n\r\n  /**\r\n   * @notice Function to withdraw reserves in this contract.\r\n   * @dev Function checks if user can withdraw specified amount.\r\n   * @param amount To withdraw. \r\n   * Emits a {UserWitdhraw} event.\r\n   */\r\n  function withdraw(uint amount) public {\r\n    // Need balances for tokenIDs of both reserves and backed asset in {AssetsAccountant}\r\n    (uint reserveBal, uint mintedCoinBal) =  _checkBalances(msg.sender, reserveTokenID, backedTokenID);\r\n    \r\n    // Validate user has reserveBal, and input amount is greater than zero, and less than msg.sender reserves deposits.\r\n    require(\r\n      reserveBal > 0 &&\r\n      amount > 0 && \r\n      amount <= reserveBal,\r\n      \"Invalid input amount!\"\r\n    );\r\n\r\n    // Get max withdrawal amount\r\n    uint maxWithdrawal = _checkMaxWithdrawal(reserveBal, mintedCoinBal);\r\n\r\n    // Check maxWithdrawal is greater than or equal to the withdraw amount.\r\n    require(maxWithdrawal >= amount, \"Invalid input amount!\");\r\n\r\n    // Burn at AssetAccountant withdrawal amount.\r\n    assetsAccountant.burn(\r\n      msg.sender,\r\n      reserveTokenID,\r\n      amount\r\n    );\r\n\r\n    // Transfer Asset to msg.sender\r\n    IERC20(reserveAsset).transfer(msg.sender, amount);\r\n\r\n    // Emit withdraw event.\r\n    emit UserWithdraw(msg.sender, reserveAsset, amount);\r\n  }\r\n\r\n  /**\r\n  * @notice Function to set the collateralization ration of this contract.\r\n  * @dev Numerator and denominator should be > 0, and numerator > denominator\r\n  * @param numerator of new collateralization factor.\r\n  * @param denominator of new collateralization factor.\r\n  * Emits a {CollateralRatioChanged} event.\r\n  */\r\n  function setCollateralRatio(uint numerator, uint denominator) external onlyRole(DEFAULT_ADMIN_ROLE) {\r\n    // Check inputs\r\n    require(\r\n      numerator > 0 &&\r\n      denominator > 0 &&\r\n      numerator > denominator,\r\n      \"Invalid inputs!\"\r\n    );\r\n\r\n    // Set new collateralization ratio\r\n    collateralRatio.numerator = numerator;\r\n    collateralRatio.denominator = denominator;\r\n\r\n    // Emit event\r\n    emit CollateralRatioChanged(collateralRatio);\r\n  }\r\n\r\n  /**\r\n   * @notice Function to calculate the max reserves user can withdraw from contract.\r\n   * @param user Address to check. \r\n   */\r\n  function checkMaxWithdrawal(address user) external view returns (uint max) {\r\n    // Need balances for tokenIDs of both reserves and backed asset in {AssetsAccountant}\r\n    (uint reserveBal, uint mintedCoinBal) =  _checkBalances(user, reserveTokenID, backedTokenID);\r\n    max = reserveBal == 0 ? 0 : _checkMaxWithdrawal(reserveBal, mintedCoinBal);\r\n  }\r\n\r\n  /**\r\n   * @dev  Internal function to check max withdrawal amount.\r\n   */\r\n  function _checkMaxWithdrawal(uint _reserveBal, uint _mintedCoinBal) internal view returns(uint) {\r\n    // Get price\r\n    // Price should be: backedAsset per unit of reserveAsset {backedAsset / reserveAsset}\r\n    uint price = oracle.getLastPrice();\r\n\r\n    // Check if msg.sender has minted backedAsset, if yes compute:\r\n    // The minimum required balance to back 100% all minted coins of backedAsset.\r\n    // Else, return 0.\r\n    uint minReqReserveBal = _mintedCoinBal > 0 ? \r\n      (_mintedCoinBal * 10**(oracle.oraclePriceDecimals())) / price :\r\n      0\r\n    ;\r\n    \r\n    // Apply Collateralization Factors to MinReqReserveBal\r\n    minReqReserveBal =\r\n        ( minReqReserveBal * collateralRatio.numerator) / collateralRatio.denominator;\r\n\r\n    if(minReqReserveBal > _reserveBal) {\r\n      // Return zero if undercollateralized or insolvent\r\n      return 0;\r\n    } else if (minReqReserveBal > 0 && minReqReserveBal <= _reserveBal) {\r\n      // Return the max withrawal amount, if msg.sender has mintedCoin balance and in healthy collateralized\r\n      return (_reserveBal - minReqReserveBal);\r\n    } else {\r\n      // Return _reserveBal if msg.sender has no minted coin.\r\n      return _reserveBal;\r\n    }\r\n  }\r\n\r\n  /**\r\n   * @dev  Internal function to query balances in {AssetsAccountant}\r\n   */\r\n  function _checkBalances(\r\n    address user,\r\n    uint _reservesTokenID,\r\n    uint _bAssetRTokenID\r\n  ) internal view returns (uint reserveBal, uint mintedCoinBal) {\r\n      reserveBal = IERC1155(address(assetsAccountant)).balanceOf(user, _reservesTokenID);\r\n      mintedCoinBal = IERC1155(address(assetsAccountant)).balanceOf(user, _bAssetRTokenID);\r\n  }\r\n}\r\n",
  "sourcePath": "C:\\Users\\DCota\\Documents\\Crypto\\Consensys Blockchain Developer\\blockchain-developer-bootcamp-final-project\\contracts\\HouseOfReserve.sol",
  "compiler": {
    "name": "solc",
    "version": "0.8.2+commit.661d1103.Emscripten.clang"
  },
  "schemaVersion": "3.4.3",
  "updatedAt": "2021-11-24T20:06:54.722Z",
  "devdoc": {
    "events": {
      "CollateralRatioChanged((uint256,uint256))": {
        "details": "Emit when user DEFAULT_ADMIN changes the collateralization factor of this HouseOfReserve",
        "params": {
          "newFactor": "New struct indicating the factor values."
        }
      },
      "UserDeposit(address,address,uint256)": {
        "details": "Emit when user makes an asset deposit in this contract.",
        "params": {
          "amount": "deposited.",
          "asset": "ERC20 address of the reserve asset.",
          "user": "Address of depositor."
        }
      },
      "UserWithdraw(address,address,uint256)": {
        "details": "Emit when user makes an asset withdrawal from this HouseOfReserve",
        "params": {
          "amount": "withraw.",
          "asset": "ERC20 address of the reserve asset.",
          "user": "Address of user withdrawing."
        }
      }
    },
    "kind": "dev",
    "methods": {},
    "version": 1
  },
  "userdoc": {
    "kind": "user",
    "methods": {},
    "version": 1
  }
}