{
  "contractName": "MinterHouse",
  "abi": [
    {
      "inputs": [],
      "name": "backedAsset",
      "outputs": [
        {
          "internalType": "address",
          "name": "",
          "type": "address"
        }
      ],
      "stateMutability": "view",
      "type": "function"
    },
    {
      "inputs": [
        {
          "internalType": "address",
          "name": "reserveAsset",
          "type": "address"
        },
        {
          "internalType": "uint256",
          "name": "amount",
          "type": "uint256"
        }
      ],
      "name": "mintWithReserveAsset",
      "outputs": [
        {
          "internalType": "bool",
          "name": "",
          "type": "bool"
        }
      ],
      "stateMutability": "nonpayable",
      "type": "function"
    }
  ],
  "bytecode": "0x608060405234801561001057600080fd5b5061021b806100206000396000f3fe608060405234801561001057600080fd5b50600436106100365760003560e01c8063451d50bd1461003b578063a52e7d701461006b575b600080fd5b610055600480360381019061005091906100df565b610089565b6040516100629190610154565b60405180910390f35b610073610091565b6040516100809190610139565b60405180910390f35b600092915050565b60008054906101000a900473ffffffffffffffffffffffffffffffffffffffff1681565b6000813590506100c4816101b7565b92915050565b6000813590506100d9816101ce565b92915050565b600080604083850312156100f257600080fd5b6000610100858286016100b5565b9250506020610111858286016100ca565b9150509250929050565b6101248161016f565b82525050565b61013381610181565b82525050565b600060208201905061014e600083018461011b565b92915050565b6000602082019050610169600083018461012a565b92915050565b600061017a8261018d565b9050919050565b60008115159050919050565b600073ffffffffffffffffffffffffffffffffffffffff82169050919050565b6000819050919050565b6101c08161016f565b81146101cb57600080fd5b50565b6101d7816101ad565b81146101e257600080fd5b5056fea264697066735822122094d700553335341ecab9692b9d0c1bb2056afc31996a91dcb8d80613485f3be564736f6c63430008020033",
  "immutableReferences": {},
  "source": "// SPDX-License-Identifier: MIT\r\npragma solidity 0.8.2;\r\n\r\n// The MinterHouse contract allows users with acceptable reserves to mint backedAsset. \r\n\r\ncontract MinterHouse {\r\n\r\n    address public backedAsset;\r\n\r\n    function mintWithReserveAsset(address reserveAsset, uint amount) public returns (bool) {\r\n        // Validate reserveAsset and amount inputs.\r\n\r\n        // Check if msg.sender has enough reserveAsset to mint amount.\r\n\r\n        // Generate tokenId for AssetAccountant\r\n\r\n        // Mint in AssetsAccountant amount.\r\n\r\n    }\r\n\r\n    function _generateTokenID(address reserveAsset) internal view returns(uint) {\r\n        return uint(keccak256(abi.encodePacked(backedAsset, reserveAsset, \"backed underlying\")));\r\n\r\n    }\r\n\r\n}",
  "sourcePath": "C:\\Users\\DCota\\Documents\\Crypto\\Consensys Blockchain Developer\\blockchain-developer-bootcamp-final-project\\contracts\\MinterHouse.sol",
  "compiler": {
    "name": "solc",
    "version": "0.8.2+commit.661d1103.Emscripten.clang"
  },
  "schemaVersion": "3.4.3",
  "updatedAt": "2021-10-30T02:57:29.722Z",
  "devdoc": {
    "kind": "dev",
    "methods": {},
    "version": 1
  },
  "userdoc": {
    "kind": "user",
    "methods": {},
    "version": 1
  }
}