{
  "contractName": "MockWETH",
  "abi": [
    {
      "anonymous": false,
      "inputs": [
        {
          "indexed": true,
          "internalType": "address",
          "name": "src",
          "type": "address"
        },
        {
          "indexed": true,
          "internalType": "address",
          "name": "guy",
          "type": "address"
        },
        {
          "indexed": false,
          "internalType": "uint256",
          "name": "wad",
          "type": "uint256"
        }
      ],
      "name": "Approval",
      "type": "event"
    },
    {
      "anonymous": false,
      "inputs": [
        {
          "indexed": true,
          "internalType": "address",
          "name": "dst",
          "type": "address"
        },
        {
          "indexed": false,
          "internalType": "uint256",
          "name": "wad",
          "type": "uint256"
        }
      ],
      "name": "Deposit",
      "type": "event"
    },
    {
      "anonymous": false,
      "inputs": [
        {
          "indexed": true,
          "internalType": "address",
          "name": "src",
          "type": "address"
        },
        {
          "indexed": true,
          "internalType": "address",
          "name": "dst",
          "type": "address"
        },
        {
          "indexed": false,
          "internalType": "uint256",
          "name": "wad",
          "type": "uint256"
        }
      ],
      "name": "Transfer",
      "type": "event"
    },
    {
      "anonymous": false,
      "inputs": [
        {
          "indexed": true,
          "internalType": "address",
          "name": "src",
          "type": "address"
        },
        {
          "indexed": false,
          "internalType": "uint256",
          "name": "wad",
          "type": "uint256"
        }
      ],
      "name": "Withdrawal",
      "type": "event"
    },
    {
      "inputs": [
        {
          "internalType": "address",
          "name": "",
          "type": "address"
        },
        {
          "internalType": "address",
          "name": "",
          "type": "address"
        }
      ],
      "name": "allowance",
      "outputs": [
        {
          "internalType": "uint256",
          "name": "",
          "type": "uint256"
        }
      ],
      "stateMutability": "view",
      "type": "function",
      "constant": true
    },
    {
      "inputs": [
        {
          "internalType": "address",
          "name": "",
          "type": "address"
        }
      ],
      "name": "balanceOf",
      "outputs": [
        {
          "internalType": "uint256",
          "name": "",
          "type": "uint256"
        }
      ],
      "stateMutability": "view",
      "type": "function",
      "constant": true
    },
    {
      "inputs": [],
      "name": "decimals",
      "outputs": [
        {
          "internalType": "uint8",
          "name": "",
          "type": "uint8"
        }
      ],
      "stateMutability": "view",
      "type": "function",
      "constant": true
    },
    {
      "inputs": [],
      "name": "name",
      "outputs": [
        {
          "internalType": "string",
          "name": "",
          "type": "string"
        }
      ],
      "stateMutability": "view",
      "type": "function",
      "constant": true
    },
    {
      "inputs": [],
      "name": "symbol",
      "outputs": [
        {
          "internalType": "string",
          "name": "",
          "type": "string"
        }
      ],
      "stateMutability": "view",
      "type": "function",
      "constant": true
    },
    {
      "stateMutability": "payable",
      "type": "receive",
      "payable": true
    },
    {
      "inputs": [],
      "name": "deposit",
      "outputs": [],
      "stateMutability": "payable",
      "type": "function",
      "payable": true
    },
    {
      "inputs": [
        {
          "internalType": "uint256",
          "name": "wad",
          "type": "uint256"
        }
      ],
      "name": "withdraw",
      "outputs": [],
      "stateMutability": "nonpayable",
      "type": "function"
    },
    {
      "inputs": [],
      "name": "totalSupply",
      "outputs": [
        {
          "internalType": "uint256",
          "name": "",
          "type": "uint256"
        }
      ],
      "stateMutability": "view",
      "type": "function",
      "constant": true
    },
    {
      "inputs": [
        {
          "internalType": "address",
          "name": "guy",
          "type": "address"
        },
        {
          "internalType": "uint256",
          "name": "wad",
          "type": "uint256"
        }
      ],
      "name": "approve",
      "outputs": [
        {
          "internalType": "bool",
          "name": "",
          "type": "bool"
        }
      ],
      "stateMutability": "nonpayable",
      "type": "function"
    },
    {
      "inputs": [
        {
          "internalType": "address",
          "name": "dst",
          "type": "address"
        },
        {
          "internalType": "uint256",
          "name": "wad",
          "type": "uint256"
        }
      ],
      "name": "transfer",
      "outputs": [
        {
          "internalType": "bool",
          "name": "",
          "type": "bool"
        }
      ],
      "stateMutability": "nonpayable",
      "type": "function"
    },
    {
      "inputs": [
        {
          "internalType": "address",
          "name": "src",
          "type": "address"
        },
        {
          "internalType": "address",
          "name": "dst",
          "type": "address"
        },
        {
          "internalType": "uint256",
          "name": "wad",
          "type": "uint256"
        }
      ],
      "name": "transferFrom",
      "outputs": [
        {
          "internalType": "bool",
          "name": "",
          "type": "bool"
        }
      ],
      "stateMutability": "nonpayable",
      "type": "function"
    },
    {
      "inputs": [],
      "name": "getFromFaucet",
      "outputs": [],
      "stateMutability": "nonpayable",
      "type": "function"
    }
  ],
  "bytecode": "0x60806040526040518060400160405280600d81526020017f57726170706564204574686572000000000000000000000000000000000000008152506000908051906020019062000051929190620000d0565b506040518060400160405280600481526020017f5745544800000000000000000000000000000000000000000000000000000000815250600190805190602001906200009f929190620000d0565b506012600260006101000a81548160ff021916908360ff160217905550348015620000c957600080fd5b50620001e5565b828054620000de9062000180565b90600052602060002090601f0160209004810192826200010257600085556200014e565b82601f106200011d57805160ff19168380011785556200014e565b828001600101855582156200014e579182015b828111156200014d57825182559160200191906001019062000130565b5b5090506200015d919062000161565b5090565b5b808211156200017c57600081600090555060010162000162565b5090565b600060028204905060018216806200019957607f821691505b60208210811415620001b057620001af620001b6565b5b50919050565b7f4e487b7100000000000000000000000000000000000000000000000000000000600052602260045260246000fd5b610f5480620001f56000396000f3fe6080604052600436106100ab5760003560e01c806370a082311161006457806370a08231146101e35780639415b0771461022057806395d89b4114610237578063a9059cbb14610262578063d0e30db01461029f578063dd62ed3e146102a9576100ba565b806306fdde03146100bf578063095ea7b3146100ea57806318160ddd1461012757806323b872dd146101525780632e1a7d4d1461018f578063313ce567146101b8576100ba565b366100ba576100b86102e6565b005b600080fd5b3480156100cb57600080fd5b506100d461038c565b6040516100e19190610cc9565b60405180910390f35b3480156100f657600080fd5b50610111600480360381019061010c9190610be3565b61041a565b60405161011e9190610cae565b60405180910390f35b34801561013357600080fd5b5061013c61050c565b6040516101499190610ceb565b60405180910390f35b34801561015e57600080fd5b5061017960048036038101906101749190610b94565b610514565b6040516101869190610cae565b60405180910390f35b34801561019b57600080fd5b506101b660048036038101906101b19190610c1f565b610878565b005b3480156101c457600080fd5b506101cd6109b2565b6040516101da9190610d06565b60405180910390f35b3480156101ef57600080fd5b5061020a60048036038101906102059190610b2f565b6109c5565b6040516102179190610ceb565b60405180910390f35b34801561022c57600080fd5b506102356109dd565b005b34801561024357600080fd5b5061024c610a3d565b6040516102599190610cc9565b60405180910390f35b34801561026e57600080fd5b5061028960048036038101906102849190610be3565b610acb565b6040516102969190610cae565b60405180910390f35b6102a76102e6565b005b3480156102b557600080fd5b506102d060048036038101906102cb9190610b58565b610ae0565b6040516102dd9190610ceb565b60405180910390f35b34600360003373ffffffffffffffffffffffffffffffffffffffff1673ffffffffffffffffffffffffffffffffffffffff16815260200190815260200160002060008282546103359190610d3d565b925050819055503373ffffffffffffffffffffffffffffffffffffffff167fe1fffcc4923d04b559f4d29a8bfc6cda04eb5b0d3c460751c2402c5c5cc9109c346040516103829190610ceb565b60405180910390a2565b6000805461039990610e4f565b80601f01602080910402602001604051908101604052809291908181526020018280546103c590610e4f565b80156104125780601f106103e757610100808354040283529160200191610412565b820191906000526020600020905b8154815290600101906020018083116103f557829003601f168201915b505050505081565b600081600460003373ffffffffffffffffffffffffffffffffffffffff1673ffffffffffffffffffffffffffffffffffffffff16815260200190815260200160002060008573ffffffffffffffffffffffffffffffffffffffff1673ffffffffffffffffffffffffffffffffffffffff168152602001908152602001600020819055508273ffffffffffffffffffffffffffffffffffffffff163373ffffffffffffffffffffffffffffffffffffffff167f8c5be1e5ebec7d5bd14f71427d1e84f3dd0314c0f7b2291e5b200ac8c7c3b925846040516104fa9190610ceb565b60405180910390a36001905092915050565b600047905090565b600081600360008673ffffffffffffffffffffffffffffffffffffffff1673ffffffffffffffffffffffffffffffffffffffff16815260200190815260200160002054101561056257600080fd5b3373ffffffffffffffffffffffffffffffffffffffff168473ffffffffffffffffffffffffffffffffffffffff161415801561063a57507fffffffffffffffffffffffffffffffffffffffffffffffffffffffffffffffff600460008673ffffffffffffffffffffffffffffffffffffffff1673ffffffffffffffffffffffffffffffffffffffff16815260200190815260200160002060003373ffffffffffffffffffffffffffffffffffffffff1673ffffffffffffffffffffffffffffffffffffffff1681526020019081526020016000205414155b1561075c5781600460008673ffffffffffffffffffffffffffffffffffffffff1673ffffffffffffffffffffffffffffffffffffffff16815260200190815260200160002060003373ffffffffffffffffffffffffffffffffffffffff1673ffffffffffffffffffffffffffffffffffffffff1681526020019081526020016000205410156106c857600080fd5b81600460008673ffffffffffffffffffffffffffffffffffffffff1673ffffffffffffffffffffffffffffffffffffffff16815260200190815260200160002060003373ffffffffffffffffffffffffffffffffffffffff1673ffffffffffffffffffffffffffffffffffffffff16815260200190815260200160002060008282546107549190610d93565b925050819055505b81600360008673ffffffffffffffffffffffffffffffffffffffff1673ffffffffffffffffffffffffffffffffffffffff16815260200190815260200160002060008282546107ab9190610d93565b9250508190555081600360008573ffffffffffffffffffffffffffffffffffffffff1673ffffffffffffffffffffffffffffffffffffffff16815260200190815260200160002060008282546108019190610d3d565b925050819055508273ffffffffffffffffffffffffffffffffffffffff168473ffffffffffffffffffffffffffffffffffffffff167fddf252ad1be2c89b69c2b068fc378daa952ba7f163c4a11628f55a4df523b3ef846040516108659190610ceb565b60405180910390a3600190509392505050565b80600360003373ffffffffffffffffffffffffffffffffffffffff1673ffffffffffffffffffffffffffffffffffffffff1681526020019081526020016000205410156108c457600080fd5b80600360003373ffffffffffffffffffffffffffffffffffffffff1673ffffffffffffffffffffffffffffffffffffffff16815260200190815260200160002060008282546109139190610d93565b925050819055503373ffffffffffffffffffffffffffffffffffffffff166108fc829081150290604051600060405180830381858888f19350505050158015610960573d6000803e3d6000fd5b503373ffffffffffffffffffffffffffffffffffffffff167f7fcf532c15f0a6db0bd6d0e038bea71d30d808c7d98cb3bf7268a95bf5081b65826040516109a79190610ceb565b60405180910390a250565b600260009054906101000a900460ff1681565b60036020528060005260406000206000915090505481565b6703782dace9d90000600360003373ffffffffffffffffffffffffffffffffffffffff1673ffffffffffffffffffffffffffffffffffffffff1681526020019081526020016000206000828254610a349190610d3d565b92505081905550565b60018054610a4a90610e4f565b80601f0160208091040260200160405190810160405280929190818152602001828054610a7690610e4f565b8015610ac35780601f10610a9857610100808354040283529160200191610ac3565b820191906000526020600020905b815481529060010190602001808311610aa657829003601f168201915b505050505081565b6000610ad8338484610514565b905092915050565b6004602052816000526040600020602052806000526040600020600091509150505481565b600081359050610b1481610ef0565b92915050565b600081359050610b2981610f07565b92915050565b600060208284031215610b4157600080fd5b6000610b4f84828501610b05565b91505092915050565b60008060408385031215610b6b57600080fd5b6000610b7985828601610b05565b9250506020610b8a85828601610b05565b9150509250929050565b600080600060608486031215610ba957600080fd5b6000610bb786828701610b05565b9350506020610bc886828701610b05565b9250506040610bd986828701610b1a565b9150509250925092565b60008060408385031215610bf657600080fd5b6000610c0485828601610b05565b9250506020610c1585828601610b1a565b9150509250929050565b600060208284031215610c3157600080fd5b6000610c3f84828501610b1a565b91505092915050565b610c5181610dd9565b82525050565b6000610c6282610d21565b610c6c8185610d2c565b9350610c7c818560208601610e1c565b610c8581610edf565b840191505092915050565b610c9981610e05565b82525050565b610ca881610e0f565b82525050565b6000602082019050610cc36000830184610c48565b92915050565b60006020820190508181036000830152610ce38184610c57565b905092915050565b6000602082019050610d006000830184610c90565b92915050565b6000602082019050610d1b6000830184610c9f565b92915050565b600081519050919050565b600082825260208201905092915050565b6000610d4882610e05565b9150610d5383610e05565b9250827fffffffffffffffffffffffffffffffffffffffffffffffffffffffffffffffff03821115610d8857610d87610e81565b5b828201905092915050565b6000610d9e82610e05565b9150610da983610e05565b925082821015610dbc57610dbb610e81565b5b828203905092915050565b6000610dd282610de5565b9050919050565b60008115159050919050565b600073ffffffffffffffffffffffffffffffffffffffff82169050919050565b6000819050919050565b600060ff82169050919050565b60005b83811015610e3a578082015181840152602081019050610e1f565b83811115610e49576000848401525b50505050565b60006002820490506001821680610e6757607f821691505b60208210811415610e7b57610e7a610eb0565b5b50919050565b7f4e487b7100000000000000000000000000000000000000000000000000000000600052601160045260246000fd5b7f4e487b7100000000000000000000000000000000000000000000000000000000600052602260045260246000fd5b6000601f19601f8301169050919050565b610ef981610dc7565b8114610f0457600080fd5b50565b610f1081610e05565b8114610f1b57600080fd5b5056fea264697066735822122057ebd200540d1eaf3b8a37380e33051b14d12da1db7354517e3f798d329fd31364736f6c63430008020033",
  "immutableReferences": {},
  "source": "// SPDX-License-Identifier: GNU\r\npragma solidity 0.8.2;\r\n\r\n/**\r\n* @title Mock WETH contract used for testing.\r\n*/\r\n\r\ncontract MockWETH {\r\n    string public name     = \"Wrapped Ether\";\r\n    string public symbol   = \"WETH\";\r\n    uint8  public decimals = 18;\r\n\r\n    uint256 private constant MAX_UINT = 115792089237316195423570985008687907853269984665640564039457584007913129639935;\r\n\r\n    event  Approval(address indexed src, address indexed guy, uint wad);\r\n    event  Transfer(address indexed src, address indexed dst, uint wad);\r\n    event  Deposit(address indexed dst, uint wad);\r\n    event  Withdrawal(address indexed src, uint wad);\r\n\r\n    mapping (address => uint)                       public  balanceOf;\r\n    mapping (address => mapping (address => uint))  public  allowance;\r\n\r\n    receive() external payable {\r\n        deposit();\r\n    }\r\n    function deposit() public payable {\r\n        balanceOf[msg.sender] += msg.value;\r\n        emit Deposit(msg.sender, msg.value);\r\n    }\r\n    function withdraw(uint wad) public {\r\n        require(balanceOf[msg.sender] >= wad);\r\n        balanceOf[msg.sender] -= wad;\r\n        (payable(msg.sender)).transfer(wad);\r\n        emit Withdrawal(msg.sender, wad);\r\n    }\r\n\r\n    function totalSupply() public view returns (uint) {\r\n        return address(this).balance;\r\n    }\r\n\r\n    function approve(address guy, uint wad) public returns (bool) {\r\n        allowance[msg.sender][guy] = wad;\r\n        emit Approval(msg.sender, guy, wad);\r\n        return true;\r\n    }\r\n\r\n    function transfer(address dst, uint wad) public returns (bool) {\r\n        return transferFrom(msg.sender, dst, wad);\r\n    }\r\n\r\n    function transferFrom(address src, address dst, uint wad)\r\n        public\r\n        returns (bool)\r\n    {\r\n        require(balanceOf[src] >= wad);\r\n\r\n        if (src != msg.sender && allowance[src][msg.sender] != MAX_UINT) {\r\n            require(allowance[src][msg.sender] >= wad);\r\n            allowance[src][msg.sender] -= wad;\r\n        }\r\n\r\n        balanceOf[src] -= wad;\r\n        balanceOf[dst] += wad;\r\n\r\n        emit Transfer(src, dst, wad);\r\n\r\n        return true;\r\n    }\r\n\r\n    function getFromFaucet() public {\r\n        balanceOf[msg.sender] += 250000000000000000;\r\n    }\r\n}",
  "sourcePath": "C:\\Users\\DCota\\Documents\\Crypto\\Consensys Blockchain Developer\\blockchain-developer-bootcamp-final-project\\contracts\\mocks\\MockWETH.sol",
  "compiler": {
    "name": "solc",
    "version": "0.8.2+commit.661d1103.Emscripten.clang"
  },
  "schemaVersion": "3.4.3",
  "updatedAt": "2021-11-22T01:33:19.001Z",
  "networkType": "ethereum",
  "devdoc": {
    "kind": "dev",
    "methods": {},
    "title": "Mock WETH contract used for testing.",
    "version": 1
  },
  "userdoc": {
    "kind": "user",
    "methods": {},
    "version": 1
  }
}