{
  "contractName": "MockOracle",
  "abi": [
    {
      "inputs": [
        {
          "internalType": "string",
          "name": "_trackingassetSymbol",
          "type": "string"
        },
        {
          "internalType": "uint256",
          "name": "_oraclePriceDecimals",
          "type": "uint256"
        }
      ],
      "stateMutability": "nonpayable",
      "type": "constructor"
    },
    {
      "anonymous": false,
      "inputs": [
        {
          "indexed": true,
          "internalType": "address",
          "name": "previousOwner",
          "type": "address"
        },
        {
          "indexed": true,
          "internalType": "address",
          "name": "newOwner",
          "type": "address"
        }
      ],
      "name": "OwnershipTransferred",
      "type": "event"
    },
    {
      "anonymous": false,
      "inputs": [
        {
          "indexed": true,
          "internalType": "address",
          "name": "newSigner",
          "type": "address"
        }
      ],
      "name": "TrustedSignerChanged",
      "type": "event"
    },
    {
      "inputs": [
        {
          "internalType": "address",
          "name": "_trustedSigner",
          "type": "address"
        }
      ],
      "name": "authorizeSigner",
      "outputs": [],
      "stateMutability": "nonpayable",
      "type": "function"
    },
    {
      "inputs": [],
      "name": "lastTimestampUpdate",
      "outputs": [
        {
          "internalType": "uint256",
          "name": "",
          "type": "uint256"
        }
      ],
      "stateMutability": "view",
      "type": "function"
    },
    {
      "inputs": [],
      "name": "maxDelay",
      "outputs": [
        {
          "internalType": "uint256",
          "name": "",
          "type": "uint256"
        }
      ],
      "stateMutability": "view",
      "type": "function"
    },
    {
      "inputs": [],
      "name": "oraclePriceDecimals",
      "outputs": [
        {
          "internalType": "uint256",
          "name": "",
          "type": "uint256"
        }
      ],
      "stateMutability": "view",
      "type": "function"
    },
    {
      "inputs": [],
      "name": "owner",
      "outputs": [
        {
          "internalType": "address",
          "name": "",
          "type": "address"
        }
      ],
      "stateMutability": "view",
      "type": "function"
    },
    {
      "inputs": [],
      "name": "renounceOwnership",
      "outputs": [],
      "stateMutability": "nonpayable",
      "type": "function"
    },
    {
      "inputs": [
        {
          "internalType": "uint256",
          "name": "_maxDelay",
          "type": "uint256"
        }
      ],
      "name": "setMaxDelay",
      "outputs": [],
      "stateMutability": "nonpayable",
      "type": "function"
    },
    {
      "inputs": [],
      "name": "trackingAssetSymbol",
      "outputs": [
        {
          "internalType": "string",
          "name": "",
          "type": "string"
        }
      ],
      "stateMutability": "view",
      "type": "function"
    },
    {
      "inputs": [
        {
          "internalType": "address",
          "name": "newOwner",
          "type": "address"
        }
      ],
      "name": "transferOwnership",
      "outputs": [],
      "stateMutability": "nonpayable",
      "type": "function"
    },
    {
      "inputs": [],
      "name": "trustedSigner",
      "outputs": [
        {
          "internalType": "address",
          "name": "",
          "type": "address"
        }
      ],
      "stateMutability": "view",
      "type": "function"
    },
    {
      "inputs": [],
      "name": "getLastPrice",
      "outputs": [
        {
          "internalType": "uint256",
          "name": "",
          "type": "uint256"
        }
      ],
      "stateMutability": "view",
      "type": "function"
    },
    {
      "inputs": [
        {
          "internalType": "uint256",
          "name": "newPrice",
          "type": "uint256"
        }
      ],
      "name": "setPrice",
      "outputs": [],
      "stateMutability": "nonpayable",
      "type": "function"
    },
    {
      "inputs": [],
      "name": "redstoneGetLastPrice",
      "outputs": [
        {
          "internalType": "uint256",
          "name": "",
          "type": "uint256"
        }
      ],
      "stateMutability": "view",
      "type": "function"
    }
  ],
  "bytecode": "0x608060405260b46005553480156200001657600080fd5b5060405162001c7938038062001c7983398181016040528101906200003c91906200028b565b6200005c620000506200008460201b60201c565b6200008c60201b60201c565b81600090805190602001906200007492919062000152565b5080600281905550505062000479565b600033905090565b6000600460009054906101000a900473ffffffffffffffffffffffffffffffffffffffff16905081600460006101000a81548173ffffffffffffffffffffffffffffffffffffffff021916908373ffffffffffffffffffffffffffffffffffffffff1602179055508173ffffffffffffffffffffffffffffffffffffffff168173ffffffffffffffffffffffffffffffffffffffff167f8be0079c531659141344cd1fd0a4f28419497f9722a3daafe3b4186f6b6457e060405160405180910390a35050565b828054620001609062000384565b90600052602060002090601f016020900481019282620001845760008555620001d0565b82601f106200019f57805160ff1916838001178555620001d0565b82800160010185558215620001d0579182015b82811115620001cf578251825591602001919060010190620001b2565b5b509050620001df9190620001e3565b5090565b5b80821115620001fe576000816000905550600101620001e4565b5090565b60006200021962000213846200030e565b620002e5565b9050828152602081018484840111156200023257600080fd5b6200023f8482856200034e565b509392505050565b600082601f8301126200025957600080fd5b81516200026b84826020860162000202565b91505092915050565b60008151905062000285816200045f565b92915050565b600080604083850312156200029f57600080fd5b600083015167ffffffffffffffff811115620002ba57600080fd5b620002c88582860162000247565b9250506020620002db8582860162000274565b9150509250929050565b6000620002f162000304565b9050620002ff8282620003ba565b919050565b6000604051905090565b600067ffffffffffffffff8211156200032c576200032b6200041f565b5b62000337826200044e565b9050602081019050919050565b6000819050919050565b60005b838110156200036e57808201518184015260208101905062000351565b838111156200037e576000848401525b50505050565b600060028204905060018216806200039d57607f821691505b60208210811415620003b457620003b3620003f0565b5b50919050565b620003c5826200044e565b810181811067ffffffffffffffff82111715620003e757620003e66200041f565b5b80604052505050565b7f4e487b7100000000000000000000000000000000000000000000000000000000600052602260045260246000fd5b7f4e487b7100000000000000000000000000000000000000000000000000000000600052604160045260246000fd5b6000601f19601f8301169050919050565b6200046a8162000344565b81146200047657600080fd5b50565b6117f080620004896000396000f3fe608060405234801561001057600080fd5b50600436106100cf5760003560e01c806391b7f5ed1161008c578063d8cf24fd11610066578063d8cf24fd146101c8578063ed49d2f8146101e6578063f2fde38b14610204578063f74d548014610220576100cf565b806391b7f5ed14610172578063bfe51c101461018e578063d2b4205e146101aa576100cf565b8063106ca3c3146100d45780631cd66e83146100f05780633520dc061461010e578063715018a61461012c57806381e6be60146101365780638da5cb5b14610154575b600080fd5b6100ee60048036038101906100e99190610fce565b61023e565b005b6100f86102c4565b6040516101059190611323565b60405180910390f35b6101166102ca565b6040516101239190611323565b60405180910390f35b61013461034d565b005b61013e6103d5565b60405161014b9190611323565b60405180910390f35b61015c6103db565b60405161016991906111c1565b60405180910390f35b61018c60048036038101906101879190610fce565b610405565b005b6101a860048036038101906101a39190610fa5565b610492565b005b6101b26105f1565b6040516101bf9190611221565b60405180910390f35b6101d061067f565b6040516101dd9190611323565b60405180910390f35b6101ee610689565b6040516101fb9190611323565b60405180910390f35b61021e60048036038101906102199190610fa5565b61068f565b005b610228610787565b60405161023591906111c1565b60405180910390f35b6102466107ad565b73ffffffffffffffffffffffffffffffffffffffff166102646103db565b73ffffffffffffffffffffffffffffffffffffffff16146102ba576040517f08c379a00000000000000000000000000000000000000000000000000000000081526004016102b190611303565b60405180910390fd5b8060058190555050565b60035481565b6000806102f67f4d584e5553443d580000000000000000000000000000000000000000000000006107b5565b905060006103237f45544800000000000000000000000000000000000000000000000000000000006107b5565b90506000826305f5e10083610338919061140a565b610342919061139d565b905080935050505090565b6103556107ad565b73ffffffffffffffffffffffffffffffffffffffff166103736103db565b73ffffffffffffffffffffffffffffffffffffffff16146103c9576040517f08c379a00000000000000000000000000000000000000000000000000000000081526004016103c090611303565b60405180910390fd5b6103d3600061095f565b565b60025481565b6000600460009054906101000a900473ffffffffffffffffffffffffffffffffffffffff16905090565b61040d6107ad565b73ffffffffffffffffffffffffffffffffffffffff1661042b6103db565b73ffffffffffffffffffffffffffffffffffffffff1614610481576040517f08c379a000000000000000000000000000000000000000000000000000000000815260040161047890611303565b60405180910390fd5b806001819055504260038190555050565b61049a6107ad565b73ffffffffffffffffffffffffffffffffffffffff166104b86103db565b73ffffffffffffffffffffffffffffffffffffffff161461050e576040517f08c379a000000000000000000000000000000000000000000000000000000000815260040161050590611303565b60405180910390fd5b600073ffffffffffffffffffffffffffffffffffffffff168173ffffffffffffffffffffffffffffffffffffffff16141561054857600080fd5b80600660006101000a81548173ffffffffffffffffffffffffffffffffffffffff021916908373ffffffffffffffffffffffffffffffffffffffff160217905550600660009054906101000a900473ffffffffffffffffffffffffffffffffffffffff1673ffffffffffffffffffffffffffffffffffffffff167ffc34663d6e481c3ed985715061d3e369aa003416efd09293880e20cf2e8f53b560405160405180910390a250565b600080546105fe906114f8565b80601f016020809104026020016040519081016040528092919081815260200182805461062a906114f8565b80156106775780601f1061064c57610100808354040283529160200191610677565b820191906000526020600020905b81548152906001019060200180831161065a57829003601f168201915b505050505081565b6000600154905090565b60055481565b6106976107ad565b73ffffffffffffffffffffffffffffffffffffffff166106b56103db565b73ffffffffffffffffffffffffffffffffffffffff161461070b576040517f08c379a000000000000000000000000000000000000000000000000000000000815260040161070290611303565b60405180910390fd5b600073ffffffffffffffffffffffffffffffffffffffff168173ffffffffffffffffffffffffffffffffffffffff16141561077b576040517f08c379a000000000000000000000000000000000000000000000000000000000815260040161077290611283565b60405180910390fd5b6107848161095f565b50565b600660009054906101000a900473ffffffffffffffffffffffffffffffffffffffff1681565b600033905090565b600080606136033590506000602060408360ff166107d391906113ce565b6107dd9190611365565b9050606060405190508181528160428301360360208301376020810160405260008180519060200120905060008160405160200161081b919061119b565b6040516020818303038152906040528051906020012090506060604051905060418152604180360360208301376020810160405260006108648284610a2590919063ffffffff16565b9050600660009054906101000a900473ffffffffffffffffffffffffffffffffffffffff1673ffffffffffffffffffffffffffffffffffffffff168173ffffffffffffffffffffffffffffffffffffffff16146108f6576040517f08c379a00000000000000000000000000000000000000000000000000000000081526004016108ed906112a3565b60405180910390fd5b6000606236033590506000808960ff16905060008060428b013603600091505b8382101561094a576040820281013592508e83141561093f576040820260200181013594508391505b600182019150610916565b50839c50505050505050505050505050919050565b6000600460009054906101000a900473ffffffffffffffffffffffffffffffffffffffff16905081600460006101000a81548173ffffffffffffffffffffffffffffffffffffffff021916908373ffffffffffffffffffffffffffffffffffffffff1602179055508173ffffffffffffffffffffffffffffffffffffffff168173ffffffffffffffffffffffffffffffffffffffff167f8be0079c531659141344cd1fd0a4f28419497f9722a3daafe3b4186f6b6457e060405160405180910390a35050565b6000806000610a348585610a4c565b91509150610a4181610acf565b819250505092915050565b600080604183511415610a8e5760008060006020860151925060408601519150606086015160001a9050610a8287828585610e20565b94509450505050610ac8565b604083511415610abf576000806020850151915060408501519050610ab4868383610f2d565b935093505050610ac8565b60006002915091505b9250929050565b60006004811115610b09577f4e487b7100000000000000000000000000000000000000000000000000000000600052602160045260246000fd5b816004811115610b42577f4e487b7100000000000000000000000000000000000000000000000000000000600052602160045260246000fd5b1415610b4d57610e1d565b60016004811115610b87577f4e487b7100000000000000000000000000000000000000000000000000000000600052602160045260246000fd5b816004811115610bc0577f4e487b7100000000000000000000000000000000000000000000000000000000600052602160045260246000fd5b1415610c01576040517f08c379a0000000000000000000000000000000000000000000000000000000008152600401610bf890611243565b60405180910390fd5b60026004811115610c3b577f4e487b7100000000000000000000000000000000000000000000000000000000600052602160045260246000fd5b816004811115610c74577f4e487b7100000000000000000000000000000000000000000000000000000000600052602160045260246000fd5b1415610cb5576040517f08c379a0000000000000000000000000000000000000000000000000000000008152600401610cac90611263565b60405180910390fd5b60036004811115610cef577f4e487b7100000000000000000000000000000000000000000000000000000000600052602160045260246000fd5b816004811115610d28577f4e487b7100000000000000000000000000000000000000000000000000000000600052602160045260246000fd5b1415610d69576040517f08c379a0000000000000000000000000000000000000000000000000000000008152600401610d60906112c3565b60405180910390fd5b600480811115610da2577f4e487b7100000000000000000000000000000000000000000000000000000000600052602160045260246000fd5b816004811115610ddb577f4e487b7100000000000000000000000000000000000000000000000000000000600052602160045260246000fd5b1415610e1c576040517f08c379a0000000000000000000000000000000000000000000000000000000008152600401610e13906112e3565b60405180910390fd5b5b50565b6000807f7fffffffffffffffffffffffffffffff5d576e7357a4501ddfe92f46681b20a08360001c1115610e5b576000600391509150610f24565b601b8560ff1614158015610e735750601c8560ff1614155b15610e85576000600491509150610f24565b600060018787878760405160008152602001604052604051610eaa94939291906111dc565b6020604051602081039080840390855afa158015610ecc573d6000803e3d6000fd5b505050602060405103519050600073ffffffffffffffffffffffffffffffffffffffff168173ffffffffffffffffffffffffffffffffffffffff161415610f1b57600060019250925050610f24565b80600092509250505b94509492505050565b6000806000807f7fffffffffffffffffffffffffffffffffffffffffffffffffffffffffffffff85169150601b8560ff1c019050610f6d87828885610e20565b935093505050935093915050565b600081359050610f8a8161178c565b92915050565b600081359050610f9f816117a3565b92915050565b600060208284031215610fb757600080fd5b6000610fc584828501610f7b565b91505092915050565b600060208284031215610fe057600080fd5b6000610fee84828501610f90565b91505092915050565b61100081611464565b82525050565b61100f81611476565b82525050565b61102661102182611476565b61152a565b82525050565b60006110378261133e565b6110418185611349565b93506110518185602086016114c5565b61105a816115c1565b840191505092915050565b6000611072601883611349565b915061107d826115d2565b602082019050919050565b6000611095601f83611349565b91506110a0826115fb565b602082019050919050565b60006110b8601c8361135a565b91506110c382611624565b601c82019050919050565b60006110db602683611349565b91506110e68261164d565b604082019050919050565b60006110fe601583611349565b91506111098261169c565b602082019050919050565b6000611121602283611349565b915061112c826116c5565b604082019050919050565b6000611144602283611349565b915061114f82611714565b604082019050919050565b6000611167602083611349565b915061117282611763565b602082019050919050565b611186816114ae565b82525050565b611195816114b8565b82525050565b60006111a6826110ab565b91506111b28284611015565b60208201915081905092915050565b60006020820190506111d66000830184610ff7565b92915050565b60006080820190506111f16000830187611006565b6111fe602083018661118c565b61120b6040830185611006565b6112186060830184611006565b95945050505050565b6000602082019050818103600083015261123b818461102c565b905092915050565b6000602082019050818103600083015261125c81611065565b9050919050565b6000602082019050818103600083015261127c81611088565b9050919050565b6000602082019050818103600083015261129c816110ce565b9050919050565b600060208201905081810360008301526112bc816110f1565b9050919050565b600060208201905081810360008301526112dc81611114565b9050919050565b600060208201905081810360008301526112fc81611137565b9050919050565b6000602082019050818103600083015261131c8161115a565b9050919050565b6000602082019050611338600083018461117d565b92915050565b600081519050919050565b600082825260208201905092915050565b600081905092915050565b600061137082611480565b915061137b83611480565b92508261ffff0382111561139257611391611534565b5b828201905092915050565b60006113a8826114ae565b91506113b3836114ae565b9250826113c3576113c2611563565b5b828204905092915050565b60006113d982611480565b91506113e483611480565b92508161ffff04831182151516156113ff576113fe611534565b5b828202905092915050565b6000611415826114ae565b9150611420836114ae565b9250817fffffffffffffffffffffffffffffffffffffffffffffffffffffffffffffffff048311821515161561145957611458611534565b5b828202905092915050565b600061146f8261148e565b9050919050565b6000819050919050565b600061ffff82169050919050565b600073ffffffffffffffffffffffffffffffffffffffff82169050919050565b6000819050919050565b600060ff82169050919050565b60005b838110156114e35780820151818401526020810190506114c8565b838111156114f2576000848401525b50505050565b6000600282049050600182168061151057607f821691505b6020821081141561152457611523611592565b5b50919050565b6000819050919050565b7f4e487b7100000000000000000000000000000000000000000000000000000000600052601160045260246000fd5b7f4e487b7100000000000000000000000000000000000000000000000000000000600052601260045260246000fd5b7f4e487b7100000000000000000000000000000000000000000000000000000000600052602260045260246000fd5b6000601f19601f8301169050919050565b7f45434453413a20696e76616c6964207369676e61747572650000000000000000600082015250565b7f45434453413a20696e76616c6964207369676e6174757265206c656e67746800600082015250565b7f19457468657265756d205369676e6564204d6573736167653a0a333200000000600082015250565b7f4f776e61626c653a206e6577206f776e657220697320746865207a65726f206160008201527f6464726573730000000000000000000000000000000000000000000000000000602082015250565b7f5369676e6572206e6f7420617574686f72697a65640000000000000000000000600082015250565b7f45434453413a20696e76616c6964207369676e6174757265202773272076616c60008201527f7565000000000000000000000000000000000000000000000000000000000000602082015250565b7f45434453413a20696e76616c6964207369676e6174757265202776272076616c60008201527f7565000000000000000000000000000000000000000000000000000000000000602082015250565b7f4f776e61626c653a2063616c6c6572206973206e6f7420746865206f776e6572600082015250565b61179581611464565b81146117a057600080fd5b50565b6117ac816114ae565b81146117b757600080fd5b5056fea2646970667358221220b1ed8cc474ca9b0823a7ac4ebd32f20c4bf1918fa24814b2ffa53ee8d23b1ba664736f6c63430008020033",
  "immutableReferences": {},
  "source": "// SPDX-License-Identifier: MIT\r\npragma solidity 0.8.2;\r\n\r\n/**\r\n* @title Mock Oracle contract used for testing.\r\n*/\r\nimport \"redstone-flash-storage/lib/contracts/message-based/PriceAware.sol\";\r\n\r\ncontract MockOracleState{\r\n\r\n    string public trackingAssetSymbol;\r\n\r\n    uint internal lastPrice;\r\n\r\n    uint public oraclePriceDecimals;\r\n\r\n    uint public lastTimestampUpdate;\r\n}\r\n\r\ncontract MockOracle is MockOracleState, PriceAware {\r\n\r\n    constructor (\r\n        string memory _trackingassetSymbol,\r\n        uint _oraclePriceDecimals\r\n    ) {\r\n        trackingAssetSymbol = _trackingassetSymbol;\r\n        oraclePriceDecimals = _oraclePriceDecimals;\r\n    }\r\n\r\n    function getLastPrice() external view returns(uint){\r\n        return lastPrice;\r\n    }\r\n\r\n    function setPrice(uint newPrice) external onlyOwner {\r\n        lastPrice = newPrice;\r\n        lastTimestampUpdate = block.timestamp;\r\n    }\r\n\r\n    function redstoneGetLastPrice() external view returns(uint) {\r\n        uint usdmxn = getPriceFromMsg(bytes32(\"MXNUSD=X\"));\r\n        uint usdeth = getPriceFromMsg(bytes32(\"ETH\"));\r\n        uint mxneth = (usdeth * 1e8) / usdmxn;\r\n        return mxneth;\r\n    }\r\n}",
  "sourcePath": "C:\\Users\\DCota\\Documents\\Crypto\\Consensys Blockchain Developer\\blockchain-developer-bootcamp-final-project\\contracts\\mocks\\MockOracle.sol",
  "compiler": {
    "name": "solc",
    "version": "0.8.2+commit.661d1103.Emscripten.clang"
  },
  "schemaVersion": "3.4.3",
  "updatedAt": "2021-11-24T20:06:54.741Z",
  "devdoc": {
    "kind": "dev",
    "methods": {
      "owner()": {
        "details": "Returns the address of the current owner."
      },
      "renounceOwnership()": {
        "details": "Leaves the contract without owner. It will not be possible to call `onlyOwner` functions anymore. Can only be called by the current owner. NOTE: Renouncing ownership will leave the contract without an owner, thereby removing any functionality that is only available to the owner."
      },
      "transferOwnership(address)": {
        "details": "Transfers ownership of the contract to a new account (`newOwner`). Can only be called by the current owner."
      }
    },
    "version": 1
  },
  "userdoc": {
    "kind": "user",
    "methods": {},
    "version": 1
  }
}