{
  "contractName": "MockOracleState",
  "abi": [
    {
      "inputs": [],
      "name": "lastTimestampUpdate",
      "outputs": [
        {
          "internalType": "uint256",
          "name": "",
          "type": "uint256"
        }
      ],
      "stateMutability": "view",
      "type": "function"
    },
    {
      "inputs": [],
      "name": "maxDelay",
      "outputs": [
        {
          "internalType": "uint256",
          "name": "",
          "type": "uint256"
        }
      ],
      "stateMutability": "view",
      "type": "function"
    },
    {
      "inputs": [],
      "name": "oraclePriceDecimals",
      "outputs": [
        {
          "internalType": "uint256",
          "name": "",
          "type": "uint256"
        }
      ],
      "stateMutability": "view",
      "type": "function"
    },
    {
      "inputs": [],
      "name": "trackingAssetSymbol",
      "outputs": [
        {
          "internalType": "string",
          "name": "",
          "type": "string"
        }
      ],
      "stateMutability": "view",
      "type": "function"
    },
    {
      "inputs": [],
      "name": "trustedSigner",
      "outputs": [
        {
          "internalType": "address",
          "name": "",
          "type": "address"
        }
      ],
      "stateMutability": "view",
      "type": "function"
    }
  ],
  "bytecode": "0x608060405260b460045534801561001557600080fd5b5061039a806100256000396000f3fe608060405234801561001057600080fd5b50600436106100575760003560e01c80631cd66e831461005c57806381e6be601461007a578063d2b4205e14610098578063ed49d2f8146100b6578063f74d5480146100d4575b600080fd5b6100646100f2565b604051610071919061024c565b60405180910390f35b6100826100f8565b60405161008f919061024c565b60405180910390f35b6100a06100fe565b6040516100ad919061022a565b60405180910390f35b6100be61018c565b6040516100cb919061024c565b60405180910390f35b6100dc610192565b6040516100e9919061020f565b60405180910390f35b60035481565b60025481565b6000805461010b906102f2565b80601f0160208091040260200160405190810160405280929190818152602001828054610137906102f2565b80156101845780601f1061015957610100808354040283529160200191610184565b820191906000526020600020905b81548152906001019060200180831161016757829003601f168201915b505050505081565b60045481565b600560009054906101000a900473ffffffffffffffffffffffffffffffffffffffff1681565b6101c181610283565b82525050565b60006101d282610267565b6101dc8185610272565b93506101ec8185602086016102bf565b6101f581610353565b840191505092915050565b610209816102b5565b82525050565b600060208201905061022460008301846101b8565b92915050565b6000602082019050818103600083015261024481846101c7565b905092915050565b60006020820190506102616000830184610200565b92915050565b600081519050919050565b600082825260208201905092915050565b600061028e82610295565b9050919050565b600073ffffffffffffffffffffffffffffffffffffffff82169050919050565b6000819050919050565b60005b838110156102dd5780820151818401526020810190506102c2565b838111156102ec576000848401525b50505050565b6000600282049050600182168061030a57607f821691505b6020821081141561031e5761031d610324565b5b50919050565b7f4e487b7100000000000000000000000000000000000000000000000000000000600052602260045260246000fd5b6000601f19601f830116905091905056fea26469706673582212204cd9a0194d5b85d14b3ae5f10d1834ddd2c4033dcddf270e535bcb034a3bda5064736f6c63430008020033",
  "immutableReferences": {},
  "source": "// SPDX-License-Identifier: MIT\r\npragma solidity 0.8.2;\r\n\r\n/**\r\n* @title Mock Oracle contract used for testing.\r\n*/\r\nimport \"@openzeppelin/contracts/access/Ownable.sol\";\r\nimport \"@openzeppelin/contracts/utils/cryptography/ECDSA.sol\";\r\n\r\ncontract MockOracleState{\r\n\r\n    string public trackingAssetSymbol;\r\n\r\n    uint internal lastPrice;\r\n\r\n    uint public oraclePriceDecimals;\r\n\r\n    uint public lastTimestampUpdate;\r\n\r\n    uint public maxDelay = 3 * 60;\r\n\r\n    address public trustedSigner;\r\n}\r\n\r\ncontract MockOracle is Ownable, MockOracleState {\r\n    using ECDSA for bytes32;\r\n\r\n    constructor (\r\n        string memory _trackingassetSymbol,\r\n        uint _oraclePriceDecimals\r\n    ) {\r\n        trackingAssetSymbol = _trackingassetSymbol;\r\n        oraclePriceDecimals = _oraclePriceDecimals;\r\n    }\r\n\r\n    function getLastPrice() external view returns(uint){\r\n        return lastPrice;\r\n    }\r\n\r\n    function setMaxDelay(uint256 _maxDelay) onlyOwner external {\r\n        maxDelay = _maxDelay;\r\n    }\r\n\r\n    function setPrice(uint newPrice) external onlyOwner {\r\n        lastPrice = newPrice;\r\n        lastTimestampUpdate = block.timestamp;\r\n    }\r\n\r\n    function redstoneGetLastPrice() external view returns(uint) {\r\n        return getPriceFromMsg(bytes32(\"MXNUSD=X\"));\r\n    }\r\n\r\n    // The following events and functions are taken from Redstone-Flash-Storage\r\n    // This mock oracle does not implement functionally the Redstone Oracle\r\n\r\n    /**\r\n    * @dev emitted after the owner updates trusted signer\r\n    * @param newSigner the address of the new signer\r\n    **/\r\n    event TrustedSignerChanged(address indexed newSigner);\r\n\r\n    function authorizeSigner(address _trustedSigner) onlyOwner external {\r\n    require(_trustedSigner != address(0));\r\n    trustedSigner = _trustedSigner;\r\n    emit TrustedSignerChanged(trustedSigner);\r\n    }\r\n\r\n    function getPriceFromMsg(bytes32 symbol) internal view returns(uint256) {\r\n        //The structure of calldata witn n - data items:\r\n        //The data that is signed (symbols, values, timestamp) are inside the {} brackets\r\n        //[origina_call_data| ?]{[[symbol | 32][value | 32] | n times][timestamp | 32]}[size | 1][signature | 65]\r\n        \r\n    \r\n        //1. First we extract dataSize - the number of data items (symbol,value pairs) in the message\r\n        uint8 dataSize; //Number of data entries    \r\n        assembly { \r\n        //Calldataload loads slots of 32 bytes\r\n        //The last 65 bytes are for signature\r\n        //We load the previous 32 bytes and automatically take the 2 least significant ones (casting to uint16)\r\n        dataSize := calldataload(sub(calldatasize(), 97))\r\n        }  \r\n    \r\n    \r\n        // 2. We calculate the size of signable message expressed in bytes\r\n        // ((symbolLen(32) + valueLen(32)) * dataSize + timeStamp length\r\n        uint16 messageLength = uint16(dataSize) * 64 + 32; //Length of data message in bytes    \r\n        \r\n        // 3. We extract the signableMessage\r\n\r\n        //(That's the high level equivalent 2k gas more expensive)\r\n        //bytes memory rawData = msg.data.slice(msg.data.length - messageLength - 65, messageLength);\r\n    \r\n        bytes memory signableMessage;\r\n        assembly {\r\n        signableMessage := mload(0x40)\r\n        mstore(signableMessage, messageLength)\r\n        //The starting point is callDataSize minus length of data(messageLength), signature(65) and size(1) = 66\r\n        calldatacopy(add(signableMessage, 0x20), sub(calldatasize(), add(messageLength, 66)), messageLength)\r\n        mstore(0x40, add(signableMessage, 0x20))\r\n        }    \r\n    \r\n    \r\n        // 4. We first hash the raw message and then hash it again with the prefix\r\n        // Following the https://github.com/ethereum/eips/issues/191 standard\r\n        bytes32 hash = keccak256(signableMessage);\r\n        bytes32 hashWithPrefix = keccak256(abi.encodePacked(\"\\x19Ethereum Signed Message:\\n32\", hash));\r\n\r\n        // 5. We extract the off-chain signature from calldata\r\n        \r\n        //(That's the high level equivalent 2k gas more expensive)\r\n        //bytes memory signature = msg.data.slice(msg.data.length - 65, 65);\r\n        bytes memory signature;\r\n        assembly {\r\n        signature := mload(0x40)\r\n        mstore(signature, 65)\r\n        calldatacopy(add(signature, 0x20), sub(calldatasize(), 65), 65)\r\n        mstore(0x40, add(signature, 0x20))\r\n        }\r\n    \r\n        // 6. We verify the off-chain signature against on-chain hashed data\r\n        \r\n        address signer = hashWithPrefix.recover(signature);\r\n        require(signer == trustedSigner, \"Signer not authorized\");\r\n\r\n        //7. We extract timestamp from callData\r\n        \r\n        uint256 dataTimestamp;\r\n        assembly {\r\n        //Calldataload loads slots of 32 bytes\r\n        //The last 65 bytes are for signature + 1 for data size\r\n        //We load the previous 32 bytes\r\n        dataTimestamp := calldataload(sub(calldatasize(), 98))\r\n        }\r\n\r\n        require(block.timestamp - dataTimestamp < maxDelay, \"Data is too old\");\r\n        \r\n        //Debugging logs (to be removed)\r\n        //    console.log(\"Len: \", messageLength);\r\n        //    console.logBytes(rawData);\r\n        //    console.logBytes32(hash);\r\n        //    console.logBytes(signature);\r\n        //    console.log(\"Signer: \", signer);\r\n\r\n        \r\n        //8. We iterate directly through call data to extract the value for a given symbol\r\n\r\n        uint256 val;\r\n        uint256 max = dataSize;\r\n        bytes32 currentSymbol;\r\n        uint256 i;\r\n        assembly {\r\n        let start := sub(calldatasize(), add(messageLength, 66))\r\n            for { i := 0 } lt(i, max) { i := add(i, 1) } {\r\n                currentSymbol := calldataload(add(start, mul(i, 64)))        \r\n                if eq(currentSymbol, symbol) {\r\n                    val := calldataload(add(start, add(32, mul(i, 64))))\r\n                    i := max\r\n                }\r\n            }\r\n        }\r\n    \r\n    return val;\r\n  }\r\n}",
  "sourcePath": "C:\\Users\\DCota\\Documents\\Crypto\\Consensys Blockchain Developer\\blockchain-developer-bootcamp-final-project\\contracts\\mocks\\MockOracle.sol",
  "compiler": {
    "name": "solc",
    "version": "0.8.2+commit.661d1103.Emscripten.clang"
  },
  "schemaVersion": "3.4.3",
  "updatedAt": "2021-11-22T01:32:54.047Z",
  "devdoc": {
    "kind": "dev",
    "methods": {},
    "version": 1
  },
  "userdoc": {
    "kind": "user",
    "methods": {},
    "version": 1
  }
}