{
  "contractName": "MockOracle",
  "abi": [
    {
      "inputs": [
        {
          "internalType": "string",
          "name": "_trackingassetSymbol",
          "type": "string"
        },
        {
          "internalType": "uint256",
          "name": "_oraclePriceDecimals",
          "type": "uint256"
        }
      ],
      "stateMutability": "nonpayable",
      "type": "constructor"
    },
    {
      "anonymous": false,
      "inputs": [
        {
          "indexed": true,
          "internalType": "address",
          "name": "previousOwner",
          "type": "address"
        },
        {
          "indexed": true,
          "internalType": "address",
          "name": "newOwner",
          "type": "address"
        }
      ],
      "name": "OwnershipTransferred",
      "type": "event"
    },
    {
      "anonymous": false,
      "inputs": [
        {
          "indexed": true,
          "internalType": "address",
          "name": "newSigner",
          "type": "address"
        }
      ],
      "name": "TrustedSignerChanged",
      "type": "event"
    },
    {
      "inputs": [],
      "name": "lastTimestampUpdate",
      "outputs": [
        {
          "internalType": "uint256",
          "name": "",
          "type": "uint256"
        }
      ],
      "stateMutability": "view",
      "type": "function",
      "constant": true
    },
    {
      "inputs": [],
      "name": "maxDelay",
      "outputs": [
        {
          "internalType": "uint256",
          "name": "",
          "type": "uint256"
        }
      ],
      "stateMutability": "view",
      "type": "function",
      "constant": true
    },
    {
      "inputs": [],
      "name": "oraclePriceDecimals",
      "outputs": [
        {
          "internalType": "uint256",
          "name": "",
          "type": "uint256"
        }
      ],
      "stateMutability": "view",
      "type": "function",
      "constant": true
    },
    {
      "inputs": [],
      "name": "owner",
      "outputs": [
        {
          "internalType": "address",
          "name": "",
          "type": "address"
        }
      ],
      "stateMutability": "view",
      "type": "function",
      "constant": true
    },
    {
      "inputs": [],
      "name": "renounceOwnership",
      "outputs": [],
      "stateMutability": "nonpayable",
      "type": "function"
    },
    {
      "inputs": [],
      "name": "trackingAssetSymbol",
      "outputs": [
        {
          "internalType": "string",
          "name": "",
          "type": "string"
        }
      ],
      "stateMutability": "view",
      "type": "function",
      "constant": true
    },
    {
      "inputs": [
        {
          "internalType": "address",
          "name": "newOwner",
          "type": "address"
        }
      ],
      "name": "transferOwnership",
      "outputs": [],
      "stateMutability": "nonpayable",
      "type": "function"
    },
    {
      "inputs": [],
      "name": "trustedSigner",
      "outputs": [
        {
          "internalType": "address",
          "name": "",
          "type": "address"
        }
      ],
      "stateMutability": "view",
      "type": "function",
      "constant": true
    },
    {
      "inputs": [],
      "name": "getLastPrice",
      "outputs": [
        {
          "internalType": "uint256",
          "name": "",
          "type": "uint256"
        }
      ],
      "stateMutability": "view",
      "type": "function",
      "constant": true
    },
    {
      "inputs": [
        {
          "internalType": "uint256",
          "name": "_maxDelay",
          "type": "uint256"
        }
      ],
      "name": "setMaxDelay",
      "outputs": [],
      "stateMutability": "nonpayable",
      "type": "function"
    },
    {
      "inputs": [
        {
          "internalType": "uint256",
          "name": "newPrice",
          "type": "uint256"
        }
      ],
      "name": "setPrice",
      "outputs": [],
      "stateMutability": "nonpayable",
      "type": "function"
    },
    {
      "inputs": [],
      "name": "redstoneGetLastPrice",
      "outputs": [
        {
          "internalType": "uint256",
          "name": "",
          "type": "uint256"
        }
      ],
      "stateMutability": "view",
      "type": "function",
      "constant": true
    },
    {
      "inputs": [
        {
          "internalType": "address",
          "name": "_trustedSigner",
          "type": "address"
        }
      ],
      "name": "authorizeSigner",
      "outputs": [],
      "stateMutability": "nonpayable",
      "type": "function"
    }
  ],
  "bytecode": "0x608060405260b46005553480156200001657600080fd5b5060405162001c5638038062001c5683398181016040528101906200003c919062000289565b6200005c620000506200008460201b60201c565b6200008c60201b60201c565b81600190805190602001906200007492919062000150565b5080600381905550505062000477565b600033905090565b60008060009054906101000a900473ffffffffffffffffffffffffffffffffffffffff169050816000806101000a81548173ffffffffffffffffffffffffffffffffffffffff021916908373ffffffffffffffffffffffffffffffffffffffff1602179055508173ffffffffffffffffffffffffffffffffffffffff168173ffffffffffffffffffffffffffffffffffffffff167f8be0079c531659141344cd1fd0a4f28419497f9722a3daafe3b4186f6b6457e060405160405180910390a35050565b8280546200015e9062000382565b90600052602060002090601f016020900481019282620001825760008555620001ce565b82601f106200019d57805160ff1916838001178555620001ce565b82800160010185558215620001ce579182015b82811115620001cd578251825591602001919060010190620001b0565b5b509050620001dd9190620001e1565b5090565b5b80821115620001fc576000816000905550600101620001e2565b5090565b60006200021762000211846200030c565b620002e3565b9050828152602081018484840111156200023057600080fd5b6200023d8482856200034c565b509392505050565b600082601f8301126200025757600080fd5b81516200026984826020860162000200565b91505092915050565b60008151905062000283816200045d565b92915050565b600080604083850312156200029d57600080fd5b600083015167ffffffffffffffff811115620002b857600080fd5b620002c68582860162000245565b9250506020620002d98582860162000272565b9150509250929050565b6000620002ef62000302565b9050620002fd8282620003b8565b919050565b6000604051905090565b600067ffffffffffffffff8211156200032a57620003296200041d565b5b62000335826200044c565b9050602081019050919050565b6000819050919050565b60005b838110156200036c5780820151818401526020810190506200034f565b838111156200037c576000848401525b50505050565b600060028204905060018216806200039b57607f821691505b60208210811415620003b257620003b1620003ee565b5b50919050565b620003c3826200044c565b810181811067ffffffffffffffff82111715620003e557620003e46200041d565b5b80604052505050565b7f4e487b7100000000000000000000000000000000000000000000000000000000600052602260045260246000fd5b7f4e487b7100000000000000000000000000000000000000000000000000000000600052604160045260246000fd5b6000601f19601f8301169050919050565b620004688162000342565b81146200047457600080fd5b50565b6117cf80620004876000396000f3fe608060405234801561001057600080fd5b50600436106100cf5760003560e01c806391b7f5ed1161008c578063d8cf24fd11610066578063d8cf24fd146101c8578063ed49d2f8146101e6578063f2fde38b14610204578063f74d548014610220576100cf565b806391b7f5ed14610172578063bfe51c101461018e578063d2b4205e146101aa576100cf565b8063106ca3c3146100d45780631cd66e83146100f05780633520dc061461010e578063715018a61461012c57806381e6be60146101365780638da5cb5b14610154575b600080fd5b6100ee60048036038101906100e99190610fc7565b61023e565b005b6100f86102c4565b604051610105919061135f565b60405180910390f35b6101166102ca565b604051610123919061135f565b60405180910390f35b6101346102fa565b005b61013e610382565b60405161014b919061135f565b60405180910390f35b61015c610388565b60405161016991906111dd565b60405180910390f35b61018c60048036038101906101879190610fc7565b6103b1565b005b6101a860048036038101906101a39190610f9e565b61043e565b005b6101b261059d565b6040516101bf919061123d565b60405180910390f35b6101d061062b565b6040516101dd919061135f565b60405180910390f35b6101ee610635565b6040516101fb919061135f565b60405180910390f35b61021e60048036038101906102199190610f9e565b61063b565b005b610228610733565b60405161023591906111dd565b60405180910390f35b610246610759565b73ffffffffffffffffffffffffffffffffffffffff16610264610388565b73ffffffffffffffffffffffffffffffffffffffff16146102ba576040517f08c379a00000000000000000000000000000000000000000000000000000000081526004016102b19061131f565b60405180910390fd5b8060058190555050565b60045481565b60006102f57f4d584e5553443d58000000000000000000000000000000000000000000000000610761565b905090565b610302610759565b73ffffffffffffffffffffffffffffffffffffffff16610320610388565b73ffffffffffffffffffffffffffffffffffffffff1614610376576040517f08c379a000000000000000000000000000000000000000000000000000000000815260040161036d9061131f565b60405180910390fd5b610380600061095a565b565b60035481565b60008060009054906101000a900473ffffffffffffffffffffffffffffffffffffffff16905090565b6103b9610759565b73ffffffffffffffffffffffffffffffffffffffff166103d7610388565b73ffffffffffffffffffffffffffffffffffffffff161461042d576040517f08c379a00000000000000000000000000000000000000000000000000000000081526004016104249061131f565b60405180910390fd5b806002819055504260048190555050565b610446610759565b73ffffffffffffffffffffffffffffffffffffffff16610464610388565b73ffffffffffffffffffffffffffffffffffffffff16146104ba576040517f08c379a00000000000000000000000000000000000000000000000000000000081526004016104b19061131f565b60405180910390fd5b600073ffffffffffffffffffffffffffffffffffffffff168173ffffffffffffffffffffffffffffffffffffffff1614156104f457600080fd5b80600660006101000a81548173ffffffffffffffffffffffffffffffffffffffff021916908373ffffffffffffffffffffffffffffffffffffffff160217905550600660009054906101000a900473ffffffffffffffffffffffffffffffffffffffff1673ffffffffffffffffffffffffffffffffffffffff167ffc34663d6e481c3ed985715061d3e369aa003416efd09293880e20cf2e8f53b560405160405180910390a250565b600180546105aa906114dd565b80601f01602080910402602001604051908101604052809291908181526020018280546105d6906114dd565b80156106235780601f106105f857610100808354040283529160200191610623565b820191906000526020600020905b81548152906001019060200180831161060657829003601f168201915b505050505081565b6000600254905090565b60055481565b610643610759565b73ffffffffffffffffffffffffffffffffffffffff16610661610388565b73ffffffffffffffffffffffffffffffffffffffff16146106b7576040517f08c379a00000000000000000000000000000000000000000000000000000000081526004016106ae9061131f565b60405180910390fd5b600073ffffffffffffffffffffffffffffffffffffffff168173ffffffffffffffffffffffffffffffffffffffff161415610727576040517f08c379a000000000000000000000000000000000000000000000000000000000815260040161071e9061129f565b60405180910390fd5b6107308161095a565b50565b600660009054906101000a900473ffffffffffffffffffffffffffffffffffffffff1681565b600033905090565b600080606136033590506000602060408360ff1661077f91906113d9565b61078991906113a1565b905060606040519050818152816042830136036020830137602081016040526000818051906020012090506000816040516020016107c791906111b7565b6040516020818303038152906040528051906020012090506060604051905060418152604180360360208301376020810160405260006108108284610a1e90919063ffffffff16565b9050600660009054906101000a900473ffffffffffffffffffffffffffffffffffffffff1673ffffffffffffffffffffffffffffffffffffffff168173ffffffffffffffffffffffffffffffffffffffff16146108a2576040517f08c379a0000000000000000000000000000000000000000000000000000000008152600401610899906112bf565b60405180910390fd5b60006062360335905060055481426108ba9190611415565b106108fa576040517f08c379a00000000000000000000000000000000000000000000000000000000081526004016108f19061133f565b60405180910390fd5b6000808960ff16905060008060428b013603600091505b83821015610945576040820281013592508e83141561093a576040820260200181013594508391505b600182019150610911565b50839c50505050505050505050505050919050565b60008060009054906101000a900473ffffffffffffffffffffffffffffffffffffffff169050816000806101000a81548173ffffffffffffffffffffffffffffffffffffffff021916908373ffffffffffffffffffffffffffffffffffffffff1602179055508173ffffffffffffffffffffffffffffffffffffffff168173ffffffffffffffffffffffffffffffffffffffff167f8be0079c531659141344cd1fd0a4f28419497f9722a3daafe3b4186f6b6457e060405160405180910390a35050565b6000806000610a2d8585610a45565b91509150610a3a81610ac8565b819250505092915050565b600080604183511415610a875760008060006020860151925060408601519150606086015160001a9050610a7b87828585610e19565b94509450505050610ac1565b604083511415610ab8576000806020850151915060408501519050610aad868383610f26565b935093505050610ac1565b60006002915091505b9250929050565b60006004811115610b02577f4e487b7100000000000000000000000000000000000000000000000000000000600052602160045260246000fd5b816004811115610b3b577f4e487b7100000000000000000000000000000000000000000000000000000000600052602160045260246000fd5b1415610b4657610e16565b60016004811115610b80577f4e487b7100000000000000000000000000000000000000000000000000000000600052602160045260246000fd5b816004811115610bb9577f4e487b7100000000000000000000000000000000000000000000000000000000600052602160045260246000fd5b1415610bfa576040517f08c379a0000000000000000000000000000000000000000000000000000000008152600401610bf19061125f565b60405180910390fd5b60026004811115610c34577f4e487b7100000000000000000000000000000000000000000000000000000000600052602160045260246000fd5b816004811115610c6d577f4e487b7100000000000000000000000000000000000000000000000000000000600052602160045260246000fd5b1415610cae576040517f08c379a0000000000000000000000000000000000000000000000000000000008152600401610ca59061127f565b60405180910390fd5b60036004811115610ce8577f4e487b7100000000000000000000000000000000000000000000000000000000600052602160045260246000fd5b816004811115610d21577f4e487b7100000000000000000000000000000000000000000000000000000000600052602160045260246000fd5b1415610d62576040517f08c379a0000000000000000000000000000000000000000000000000000000008152600401610d59906112df565b60405180910390fd5b600480811115610d9b577f4e487b7100000000000000000000000000000000000000000000000000000000600052602160045260246000fd5b816004811115610dd4577f4e487b7100000000000000000000000000000000000000000000000000000000600052602160045260246000fd5b1415610e15576040517f08c379a0000000000000000000000000000000000000000000000000000000008152600401610e0c906112ff565b60405180910390fd5b5b50565b6000807f7fffffffffffffffffffffffffffffff5d576e7357a4501ddfe92f46681b20a08360001c1115610e54576000600391509150610f1d565b601b8560ff1614158015610e6c5750601c8560ff1614155b15610e7e576000600491509150610f1d565b600060018787878760405160008152602001604052604051610ea394939291906111f8565b6020604051602081039080840390855afa158015610ec5573d6000803e3d6000fd5b505050602060405103519050600073ffffffffffffffffffffffffffffffffffffffff168173ffffffffffffffffffffffffffffffffffffffff161415610f1457600060019250925050610f1d565b80600092509250505b94509492505050565b6000806000807f7fffffffffffffffffffffffffffffffffffffffffffffffffffffffffffffff85169150601b8560ff1c019050610f6687828885610e19565b935093505050935093915050565b600081359050610f838161176b565b92915050565b600081359050610f9881611782565b92915050565b600060208284031215610fb057600080fd5b6000610fbe84828501610f74565b91505092915050565b600060208284031215610fd957600080fd5b6000610fe784828501610f89565b91505092915050565b610ff981611449565b82525050565b6110088161145b565b82525050565b61101f61101a8261145b565b61150f565b82525050565b60006110308261137a565b61103a8185611385565b935061104a8185602086016114aa565b61105381611577565b840191505092915050565b600061106b601883611385565b915061107682611588565b602082019050919050565b600061108e601f83611385565b9150611099826115b1565b602082019050919050565b60006110b1601c83611396565b91506110bc826115da565b601c82019050919050565b60006110d4602683611385565b91506110df82611603565b604082019050919050565b60006110f7601583611385565b915061110282611652565b602082019050919050565b600061111a602283611385565b91506111258261167b565b604082019050919050565b600061113d602283611385565b9150611148826116ca565b604082019050919050565b6000611160602083611385565b915061116b82611719565b602082019050919050565b6000611183600f83611385565b915061118e82611742565b602082019050919050565b6111a281611493565b82525050565b6111b18161149d565b82525050565b60006111c2826110a4565b91506111ce828461100e565b60208201915081905092915050565b60006020820190506111f26000830184610ff0565b92915050565b600060808201905061120d6000830187610fff565b61121a60208301866111a8565b6112276040830185610fff565b6112346060830184610fff565b95945050505050565b600060208201905081810360008301526112578184611025565b905092915050565b600060208201905081810360008301526112788161105e565b9050919050565b6000602082019050818103600083015261129881611081565b9050919050565b600060208201905081810360008301526112b8816110c7565b9050919050565b600060208201905081810360008301526112d8816110ea565b9050919050565b600060208201905081810360008301526112f88161110d565b9050919050565b6000602082019050818103600083015261131881611130565b9050919050565b6000602082019050818103600083015261133881611153565b9050919050565b6000602082019050818103600083015261135881611176565b9050919050565b60006020820190506113746000830184611199565b92915050565b600081519050919050565b600082825260208201905092915050565b600081905092915050565b60006113ac82611465565b91506113b783611465565b92508261ffff038211156113ce576113cd611519565b5b828201905092915050565b60006113e482611465565b91506113ef83611465565b92508161ffff048311821515161561140a57611409611519565b5b828202905092915050565b600061142082611493565b915061142b83611493565b92508282101561143e5761143d611519565b5b828203905092915050565b600061145482611473565b9050919050565b6000819050919050565b600061ffff82169050919050565b600073ffffffffffffffffffffffffffffffffffffffff82169050919050565b6000819050919050565b600060ff82169050919050565b60005b838110156114c85780820151818401526020810190506114ad565b838111156114d7576000848401525b50505050565b600060028204905060018216806114f557607f821691505b6020821081141561150957611508611548565b5b50919050565b6000819050919050565b7f4e487b7100000000000000000000000000000000000000000000000000000000600052601160045260246000fd5b7f4e487b7100000000000000000000000000000000000000000000000000000000600052602260045260246000fd5b6000601f19601f8301169050919050565b7f45434453413a20696e76616c6964207369676e61747572650000000000000000600082015250565b7f45434453413a20696e76616c6964207369676e6174757265206c656e67746800600082015250565b7f19457468657265756d205369676e6564204d6573736167653a0a333200000000600082015250565b7f4f776e61626c653a206e6577206f776e657220697320746865207a65726f206160008201527f6464726573730000000000000000000000000000000000000000000000000000602082015250565b7f5369676e6572206e6f7420617574686f72697a65640000000000000000000000600082015250565b7f45434453413a20696e76616c6964207369676e6174757265202773272076616c60008201527f7565000000000000000000000000000000000000000000000000000000000000602082015250565b7f45434453413a20696e76616c6964207369676e6174757265202776272076616c60008201527f7565000000000000000000000000000000000000000000000000000000000000602082015250565b7f4f776e61626c653a2063616c6c6572206973206e6f7420746865206f776e6572600082015250565b7f4461746120697320746f6f206f6c640000000000000000000000000000000000600082015250565b61177481611449565b811461177f57600080fd5b50565b61178b81611493565b811461179657600080fd5b5056fea264697066735822122065b40665ba62adad3149cc8e5cc4059cbabf32e7ced2dd3334a4d7e759520cdf64736f6c63430008020033",
  "immutableReferences": {},
  "source": "// SPDX-License-Identifier: MIT\r\npragma solidity 0.8.2;\r\n\r\n/**\r\n* @title Mock Oracle contract used for testing.\r\n*/\r\nimport \"@openzeppelin/contracts/access/Ownable.sol\";\r\nimport \"@openzeppelin/contracts/utils/cryptography/ECDSA.sol\";\r\n\r\ncontract MockOracleState{\r\n\r\n    string public trackingAssetSymbol;\r\n\r\n    uint internal lastPrice;\r\n\r\n    uint public oraclePriceDecimals;\r\n\r\n    uint public lastTimestampUpdate;\r\n\r\n    uint public maxDelay = 3 * 60;\r\n\r\n    address public trustedSigner;\r\n}\r\n\r\ncontract MockOracle is Ownable, MockOracleState {\r\n    using ECDSA for bytes32;\r\n\r\n    constructor (\r\n        string memory _trackingassetSymbol,\r\n        uint _oraclePriceDecimals\r\n    ) {\r\n        trackingAssetSymbol = _trackingassetSymbol;\r\n        oraclePriceDecimals = _oraclePriceDecimals;\r\n    }\r\n\r\n    function getLastPrice() external view returns(uint){\r\n        return lastPrice;\r\n    }\r\n\r\n    function setMaxDelay(uint256 _maxDelay) onlyOwner external {\r\n        maxDelay = _maxDelay;\r\n    }\r\n\r\n    function setPrice(uint newPrice) external onlyOwner {\r\n        lastPrice = newPrice;\r\n        lastTimestampUpdate = block.timestamp;\r\n    }\r\n\r\n    function redstoneGetLastPrice() external view returns(uint) {\r\n        return getPriceFromMsg(bytes32(\"MXNUSD=X\"));\r\n    }\r\n\r\n    // The following events and functions are taken from Redstone-Flash-Storage\r\n    // This mock oracle does not implement functionally the Redstone Oracle\r\n\r\n    /**\r\n    * @dev emitted after the owner updates trusted signer\r\n    * @param newSigner the address of the new signer\r\n    **/\r\n    event TrustedSignerChanged(address indexed newSigner);\r\n\r\n    function authorizeSigner(address _trustedSigner) onlyOwner external {\r\n    require(_trustedSigner != address(0));\r\n    trustedSigner = _trustedSigner;\r\n    emit TrustedSignerChanged(trustedSigner);\r\n    }\r\n\r\n    function getPriceFromMsg(bytes32 symbol) internal view returns(uint256) {\r\n        //The structure of calldata witn n - data items:\r\n        //The data that is signed (symbols, values, timestamp) are inside the {} brackets\r\n        //[origina_call_data| ?]{[[symbol | 32][value | 32] | n times][timestamp | 32]}[size | 1][signature | 65]\r\n        \r\n    \r\n        //1. First we extract dataSize - the number of data items (symbol,value pairs) in the message\r\n        uint8 dataSize; //Number of data entries    \r\n        assembly { \r\n        //Calldataload loads slots of 32 bytes\r\n        //The last 65 bytes are for signature\r\n        //We load the previous 32 bytes and automatically take the 2 least significant ones (casting to uint16)\r\n        dataSize := calldataload(sub(calldatasize(), 97))\r\n        }  \r\n    \r\n    \r\n        // 2. We calculate the size of signable message expressed in bytes\r\n        // ((symbolLen(32) + valueLen(32)) * dataSize + timeStamp length\r\n        uint16 messageLength = uint16(dataSize) * 64 + 32; //Length of data message in bytes    \r\n        \r\n        // 3. We extract the signableMessage\r\n\r\n        //(That's the high level equivalent 2k gas more expensive)\r\n        //bytes memory rawData = msg.data.slice(msg.data.length - messageLength - 65, messageLength);\r\n    \r\n        bytes memory signableMessage;\r\n        assembly {\r\n        signableMessage := mload(0x40)\r\n        mstore(signableMessage, messageLength)\r\n        //The starting point is callDataSize minus length of data(messageLength), signature(65) and size(1) = 66\r\n        calldatacopy(add(signableMessage, 0x20), sub(calldatasize(), add(messageLength, 66)), messageLength)\r\n        mstore(0x40, add(signableMessage, 0x20))\r\n        }    \r\n    \r\n    \r\n        // 4. We first hash the raw message and then hash it again with the prefix\r\n        // Following the https://github.com/ethereum/eips/issues/191 standard\r\n        bytes32 hash = keccak256(signableMessage);\r\n        bytes32 hashWithPrefix = keccak256(abi.encodePacked(\"\\x19Ethereum Signed Message:\\n32\", hash));\r\n\r\n        // 5. We extract the off-chain signature from calldata\r\n        \r\n        //(That's the high level equivalent 2k gas more expensive)\r\n        //bytes memory signature = msg.data.slice(msg.data.length - 65, 65);\r\n        bytes memory signature;\r\n        assembly {\r\n        signature := mload(0x40)\r\n        mstore(signature, 65)\r\n        calldatacopy(add(signature, 0x20), sub(calldatasize(), 65), 65)\r\n        mstore(0x40, add(signature, 0x20))\r\n        }\r\n    \r\n        // 6. We verify the off-chain signature against on-chain hashed data\r\n        \r\n        address signer = hashWithPrefix.recover(signature);\r\n        require(signer == trustedSigner, \"Signer not authorized\");\r\n\r\n        //7. We extract timestamp from callData\r\n        \r\n        uint256 dataTimestamp;\r\n        assembly {\r\n        //Calldataload loads slots of 32 bytes\r\n        //The last 65 bytes are for signature + 1 for data size\r\n        //We load the previous 32 bytes\r\n        dataTimestamp := calldataload(sub(calldatasize(), 98))\r\n        }\r\n\r\n        require(block.timestamp - dataTimestamp < maxDelay, \"Data is too old\");\r\n        \r\n        //Debugging logs (to be removed)\r\n        //    console.log(\"Len: \", messageLength);\r\n        //    console.logBytes(rawData);\r\n        //    console.logBytes32(hash);\r\n        //    console.logBytes(signature);\r\n        //    console.log(\"Signer: \", signer);\r\n\r\n        \r\n        //8. We iterate directly through call data to extract the value for a given symbol\r\n\r\n        uint256 val;\r\n        uint256 max = dataSize;\r\n        bytes32 currentSymbol;\r\n        uint256 i;\r\n        assembly {\r\n        let start := sub(calldatasize(), add(messageLength, 66))\r\n            for { i := 0 } lt(i, max) { i := add(i, 1) } {\r\n                currentSymbol := calldataload(add(start, mul(i, 64)))        \r\n                if eq(currentSymbol, symbol) {\r\n                    val := calldataload(add(start, add(32, mul(i, 64))))\r\n                    i := max\r\n                }\r\n            }\r\n        }\r\n    \r\n    return val;\r\n  }\r\n}",
  "sourcePath": "C:\\Users\\DCota\\Documents\\Crypto\\Consensys Blockchain Developer\\blockchain-developer-bootcamp-final-project\\contracts\\mocks\\MockOracle.sol",
  "compiler": {
    "name": "solc",
    "version": "0.8.2+commit.661d1103.Emscripten.clang"
  },
  "schemaVersion": "3.4.3",
  "updatedAt": "2021-11-22T01:33:18.977Z",
  "networkType": "ethereum",
  "devdoc": {
    "events": {
      "TrustedSignerChanged(address)": {
        "details": "emitted after the owner updates trusted signer",
        "params": {
          "newSigner": "the address of the new signer*"
        }
      }
    },
    "kind": "dev",
    "methods": {
      "owner()": {
        "details": "Returns the address of the current owner."
      },
      "renounceOwnership()": {
        "details": "Leaves the contract without owner. It will not be possible to call `onlyOwner` functions anymore. Can only be called by the current owner. NOTE: Renouncing ownership will leave the contract without an owner, thereby removing any functionality that is only available to the owner."
      },
      "transferOwnership(address)": {
        "details": "Transfers ownership of the contract to a new account (`newOwner`). Can only be called by the current owner."
      }
    },
    "version": 1
  },
  "userdoc": {
    "kind": "user",
    "methods": {},
    "version": 1
  }
}