{
  "contractName": "MockOracleState",
  "abi": [
    {
      "inputs": [],
      "name": "lastTimestampUpdate",
      "outputs": [
        {
          "internalType": "uint256",
          "name": "",
          "type": "uint256"
        }
      ],
      "stateMutability": "view",
      "type": "function"
    },
    {
      "inputs": [],
      "name": "oraclePriceDecimals",
      "outputs": [
        {
          "internalType": "uint256",
          "name": "",
          "type": "uint256"
        }
      ],
      "stateMutability": "view",
      "type": "function"
    },
    {
      "inputs": [],
      "name": "trackingAssetSymbol",
      "outputs": [
        {
          "internalType": "string",
          "name": "",
          "type": "string"
        }
      ],
      "stateMutability": "view",
      "type": "function"
    }
  ],
  "bytecode": "0x608060405234801561001057600080fd5b506102c0806100206000396000f3fe608060405234801561001057600080fd5b50600436106100415760003560e01c80631cd66e831461004657806381e6be6014610064578063d2b4205e14610082575b600080fd5b61004e6100a0565b60405161005b91906101a4565b60405180910390f35b61006c6100a6565b60405161007991906101a4565b60405180910390f35b61008a6100ac565b6040516100979190610182565b60405180910390f35b60035481565b60025481565b600080546100b990610218565b80601f01602080910402602001604051908101604052809291908181526020018280546100e590610218565b80156101325780601f1061010757610100808354040283529160200191610132565b820191906000526020600020905b81548152906001019060200180831161011557829003601f168201915b505050505081565b6000610145826101bf565b61014f81856101ca565b935061015f8185602086016101e5565b61016881610279565b840191505092915050565b61017c816101db565b82525050565b6000602082019050818103600083015261019c818461013a565b905092915050565b60006020820190506101b96000830184610173565b92915050565b600081519050919050565b600082825260208201905092915050565b6000819050919050565b60005b838110156102035780820151818401526020810190506101e8565b83811115610212576000848401525b50505050565b6000600282049050600182168061023057607f821691505b602082108114156102445761024361024a565b5b50919050565b7f4e487b7100000000000000000000000000000000000000000000000000000000600052602260045260246000fd5b6000601f19601f830116905091905056fea26469706673582212206b32e816b21002ffd4403cea965156925204bc4063561a979750f5291400fff864736f6c63430008020033",
  "immutableReferences": {},
  "source": "// SPDX-License-Identifier: MIT\r\npragma solidity 0.8.2;\r\n\r\n/**\r\n* @title Mock Oracle contract used for testing.\r\n*/\r\nimport \"redstone-flash-storage/lib/contracts/message-based/PriceAware.sol\";\r\n\r\ncontract MockOracleState{\r\n\r\n    string public trackingAssetSymbol;\r\n\r\n    uint internal lastPrice;\r\n\r\n    uint public oraclePriceDecimals;\r\n\r\n    uint public lastTimestampUpdate;\r\n}\r\n\r\ncontract MockOracle is MockOracleState, PriceAware {\r\n\r\n    constructor (\r\n        string memory _trackingassetSymbol,\r\n        uint _oraclePriceDecimals\r\n    ) {\r\n        trackingAssetSymbol = _trackingassetSymbol;\r\n        oraclePriceDecimals = _oraclePriceDecimals;\r\n    }\r\n\r\n    function getLastPrice() external view returns(uint){\r\n        return lastPrice;\r\n    }\r\n\r\n    function setPrice(uint newPrice) external onlyOwner {\r\n        lastPrice = newPrice;\r\n        lastTimestampUpdate = block.timestamp;\r\n    }\r\n\r\n    function redstoneGetLastPrice() external view returns(uint) {\r\n        uint usdmxn = getPriceFromMsg(bytes32(\"MXNUSD=X\"));\r\n        uint usdeth = getPriceFromMsg(bytes32(\"ETH\"));\r\n        uint mxneth = (usdeth * 1e8) / usdmxn;\r\n        return mxneth;\r\n    }\r\n}",
  "sourcePath": "C:\\Users\\DCota\\Documents\\Crypto\\Consensys Blockchain Developer\\blockchain-developer-bootcamp-final-project\\contracts\\mocks\\MockOracle.sol",
  "compiler": {
    "name": "solc",
    "version": "0.8.2+commit.661d1103.Emscripten.clang"
  },
  "schemaVersion": "3.4.3",
  "updatedAt": "2021-11-24T20:06:54.749Z",
  "devdoc": {
    "kind": "dev",
    "methods": {},
    "version": 1
  },
  "userdoc": {
    "kind": "user",
    "methods": {},
    "version": 1
  }
}