{
  "contractName": "PriceAware",
  "abi": [
    {
      "anonymous": false,
      "inputs": [
        {
          "indexed": true,
          "internalType": "address",
          "name": "previousOwner",
          "type": "address"
        },
        {
          "indexed": true,
          "internalType": "address",
          "name": "newOwner",
          "type": "address"
        }
      ],
      "name": "OwnershipTransferred",
      "type": "event"
    },
    {
      "anonymous": false,
      "inputs": [
        {
          "indexed": true,
          "internalType": "address",
          "name": "newSigner",
          "type": "address"
        }
      ],
      "name": "TrustedSignerChanged",
      "type": "event"
    },
    {
      "inputs": [],
      "name": "maxDelay",
      "outputs": [
        {
          "internalType": "uint256",
          "name": "",
          "type": "uint256"
        }
      ],
      "stateMutability": "view",
      "type": "function"
    },
    {
      "inputs": [],
      "name": "owner",
      "outputs": [
        {
          "internalType": "address",
          "name": "",
          "type": "address"
        }
      ],
      "stateMutability": "view",
      "type": "function"
    },
    {
      "inputs": [],
      "name": "renounceOwnership",
      "outputs": [],
      "stateMutability": "nonpayable",
      "type": "function"
    },
    {
      "inputs": [
        {
          "internalType": "address",
          "name": "newOwner",
          "type": "address"
        }
      ],
      "name": "transferOwnership",
      "outputs": [],
      "stateMutability": "nonpayable",
      "type": "function"
    },
    {
      "inputs": [],
      "name": "trustedSigner",
      "outputs": [
        {
          "internalType": "address",
          "name": "",
          "type": "address"
        }
      ],
      "stateMutability": "view",
      "type": "function"
    },
    {
      "inputs": [
        {
          "internalType": "uint256",
          "name": "_maxDelay",
          "type": "uint256"
        }
      ],
      "name": "setMaxDelay",
      "outputs": [],
      "stateMutability": "nonpayable",
      "type": "function"
    },
    {
      "inputs": [
        {
          "internalType": "address",
          "name": "_trustedSigner",
          "type": "address"
        }
      ],
      "name": "authorizeSigner",
      "outputs": [],
      "stateMutability": "nonpayable",
      "type": "function"
    }
  ],
  "bytecode": "0x608060405260b460015534801561001557600080fd5b5061003261002761003760201b60201c565b61003f60201b60201c565b610103565b600033905090565b60008060009054906101000a900473ffffffffffffffffffffffffffffffffffffffff169050816000806101000a81548173ffffffffffffffffffffffffffffffffffffffff021916908373ffffffffffffffffffffffffffffffffffffffff1602179055508173ffffffffffffffffffffffffffffffffffffffff168173ffffffffffffffffffffffffffffffffffffffff167f8be0079c531659141344cd1fd0a4f28419497f9722a3daafe3b4186f6b6457e060405160405180910390a35050565b61083f806101126000396000f3fe608060405234801561001057600080fd5b506004361061007d5760003560e01c8063bfe51c101161005b578063bfe51c10146100c6578063ed49d2f8146100e2578063f2fde38b14610100578063f74d54801461011c5761007d565b8063106ca3c314610082578063715018a61461009e5780638da5cb5b146100a8575b600080fd5b61009c60048036038101906100979190610613565b61013a565b005b6100a66101c0565b005b6100b0610248565b6040516100bd91906106a0565b60405180910390f35b6100e060048036038101906100db91906105ea565b610271565b005b6100ea6103d0565b6040516100f791906106fb565b60405180910390f35b61011a600480360381019061011591906105ea565b6103d6565b005b6101246104ce565b60405161013191906106a0565b60405180910390f35b6101426104f4565b73ffffffffffffffffffffffffffffffffffffffff16610160610248565b73ffffffffffffffffffffffffffffffffffffffff16146101b6576040517f08c379a00000000000000000000000000000000000000000000000000000000081526004016101ad906106db565b60405180910390fd5b8060018190555050565b6101c86104f4565b73ffffffffffffffffffffffffffffffffffffffff166101e6610248565b73ffffffffffffffffffffffffffffffffffffffff161461023c576040517f08c379a0000000000000000000000000000000000000000000000000000000008152600401610233906106db565b60405180910390fd5b61024660006104fc565b565b60008060009054906101000a900473ffffffffffffffffffffffffffffffffffffffff16905090565b6102796104f4565b73ffffffffffffffffffffffffffffffffffffffff16610297610248565b73ffffffffffffffffffffffffffffffffffffffff16146102ed576040517f08c379a00000000000000000000000000000000000000000000000000000000081526004016102e4906106db565b60405180910390fd5b600073ffffffffffffffffffffffffffffffffffffffff168173ffffffffffffffffffffffffffffffffffffffff16141561032757600080fd5b80600260006101000a81548173ffffffffffffffffffffffffffffffffffffffff021916908373ffffffffffffffffffffffffffffffffffffffff160217905550600260009054906101000a900473ffffffffffffffffffffffffffffffffffffffff1673ffffffffffffffffffffffffffffffffffffffff167ffc34663d6e481c3ed985715061d3e369aa003416efd09293880e20cf2e8f53b560405160405180910390a250565b60015481565b6103de6104f4565b73ffffffffffffffffffffffffffffffffffffffff166103fc610248565b73ffffffffffffffffffffffffffffffffffffffff1614610452576040517f08c379a0000000000000000000000000000000000000000000000000000000008152600401610449906106db565b60405180910390fd5b600073ffffffffffffffffffffffffffffffffffffffff168173ffffffffffffffffffffffffffffffffffffffff1614156104c2576040517f08c379a00000000000000000000000000000000000000000000000000000000081526004016104b9906106bb565b60405180910390fd5b6104cb816104fc565b50565b600260009054906101000a900473ffffffffffffffffffffffffffffffffffffffff1681565b600033905090565b60008060009054906101000a900473ffffffffffffffffffffffffffffffffffffffff169050816000806101000a81548173ffffffffffffffffffffffffffffffffffffffff021916908373ffffffffffffffffffffffffffffffffffffffff1602179055508173ffffffffffffffffffffffffffffffffffffffff168173ffffffffffffffffffffffffffffffffffffffff167f8be0079c531659141344cd1fd0a4f28419497f9722a3daafe3b4186f6b6457e060405160405180910390a35050565b6000813590506105cf816107db565b92915050565b6000813590506105e4816107f2565b92915050565b6000602082840312156105fc57600080fd5b600061060a848285016105c0565b91505092915050565b60006020828403121561062557600080fd5b6000610633848285016105d5565b91505092915050565b61064581610727565b82525050565b6000610658602683610716565b915061066382610763565b604082019050919050565b600061067b602083610716565b9150610686826107b2565b602082019050919050565b61069a81610759565b82525050565b60006020820190506106b5600083018461063c565b92915050565b600060208201905081810360008301526106d48161064b565b9050919050565b600060208201905081810360008301526106f48161066e565b9050919050565b60006020820190506107106000830184610691565b92915050565b600082825260208201905092915050565b600061073282610739565b9050919050565b600073ffffffffffffffffffffffffffffffffffffffff82169050919050565b6000819050919050565b7f4f776e61626c653a206e6577206f776e657220697320746865207a65726f206160008201527f6464726573730000000000000000000000000000000000000000000000000000602082015250565b7f4f776e61626c653a2063616c6c6572206973206e6f7420746865206f776e6572600082015250565b6107e481610727565b81146107ef57600080fd5b50565b6107fb81610759565b811461080657600080fd5b5056fea264697066735822122052196fe4a59176a06a197e3e9624b89e4ccf7e9cdbd49847d1b610f6584fa83764736f6c63430008020033",
  "immutableReferences": {},
  "source": "// SPDX-License-Identifier: MIT\n\npragma solidity ^0.8.2;\n\nimport \"@openzeppelin/contracts/utils/cryptography/ECDSA.sol\";\nimport \"@openzeppelin/contracts/access/Ownable.sol\";\n\ncontract PriceAware is Ownable  {\n  using ECDSA for bytes32;\n  \n  uint public maxDelay = 3 * 60;\n  address public trustedSigner;\n  \n  \n  function setMaxDelay(uint256 _maxDelay) onlyOwner external {\n    maxDelay = _maxDelay;\n  }\n\n\n  function authorizeSigner(address _trustedSigner) onlyOwner external {\n    require(_trustedSigner != address(0));\n    trustedSigner = _trustedSigner;\n\n    emit TrustedSignerChanged(trustedSigner);\n  }\n  \n\n  function getPriceFromMsg(bytes32 symbol) internal view returns(uint256) {\n    //The structure of calldata witn n - data items:\n    //The data that is signed (symbols, values, timestamp) are inside the {} brackets\n    //[origina_call_data| ?]{[[symbol | 32][value | 32] | n times][timestamp | 32]}[size | 1][signature | 65]\n    \n  \n    //1. First we extract dataSize - the number of data items (symbol,value pairs) in the message\n    uint8 dataSize; //Number of data entries    \n    assembly { \n      //Calldataload loads slots of 32 bytes\n      //The last 65 bytes are for signature\n      //We load the previous 32 bytes and automatically take the 2 least significant ones (casting to uint16)\n      dataSize := calldataload(sub(calldatasize(), 97))\n    }  \n  \n    \n    // 2. We calculate the size of signable message expressed in bytes\n    // ((symbolLen(32) + valueLen(32)) * dataSize + timeStamp length\n    uint16 messageLength = uint16(dataSize) * 64 + 32; //Length of data message in bytes    \n    \n    // 3. We extract the signableMessage\n\n    //(That's the high level equivalent 2k gas more expensive)\n    //bytes memory rawData = msg.data.slice(msg.data.length - messageLength - 65, messageLength);\n    \n    bytes memory signableMessage;\n    assembly {\n      signableMessage := mload(0x40)\n      mstore(signableMessage, messageLength)\n      //The starting point is callDataSize minus length of data(messageLength), signature(65) and size(1) = 66\n      calldatacopy(add(signableMessage, 0x20), sub(calldatasize(), add(messageLength, 66)), messageLength)\n      mstore(0x40, add(signableMessage, 0x20))\n    }    \n    \n    \n    // 4. We first hash the raw message and then hash it again with the prefix\n    // Following the https://github.com/ethereum/eips/issues/191 standard\n    bytes32 hash = keccak256(signableMessage);\n    bytes32 hashWithPrefix = keccak256(abi.encodePacked(\"\\x19Ethereum Signed Message:\\n32\", hash));\n\n    // 5. We extract the off-chain signature from calldata\n    \n    //(That's the high level equivalent 2k gas more expensive)\n    //bytes memory signature = msg.data.slice(msg.data.length - 65, 65);\n    bytes memory signature;\n    assembly {\n      signature := mload(0x40)\n      mstore(signature, 65)\n      calldatacopy(add(signature, 0x20), sub(calldatasize(), 65), 65)\n      mstore(0x40, add(signature, 0x20))\n    }\n    \n    // 6. We verify the off-chain signature against on-chain hashed data\n    \n    address signer = hashWithPrefix.recover(signature);\n    require(signer == trustedSigner, \"Signer not authorized\");\n\n    //7. We extract timestamp from callData\n    \n    uint256 dataTimestamp;\n    assembly {\n      //Calldataload loads slots of 32 bytes\n      //The last 65 bytes are for signature + 1 for data size\n      //We load the previous 32 bytes\n      dataTimestamp := calldataload(sub(calldatasize(), 98))\n    }    \n    //require(block.timestamp - dataTimestamp < maxDelay, \"Data is too old\");\n    \n    //Debugging logs (to be removed)\n    \n//    console.log(\"Len: \", messageLength);\n//    console.logBytes(rawData);\n//    console.logBytes32(hash);\n//    console.logBytes(signature);\n//    console.log(\"Signer: \", signer);\n\n    \n    //8. We iterate directly through call data to extract the value for a given symbol\n\n    uint256 val;\n    uint256 max = dataSize;\n    bytes32 currentSymbol;\n    uint256 i;\n    assembly {\n      let start := sub(calldatasize(), add(messageLength, 66))\n      for { i := 0 } lt(i, max) { i := add(i, 1) } {\n        currentSymbol := calldataload(add(start, mul(i, 64)))        \n        if eq(currentSymbol, symbol) {\n           val := calldataload(add(start, add(32, mul(i, 64))))\n           i := max\n        }\n      }\n    }\n    \n    return val;\n  }\n\n\n  /* ========== EVENTS ========== */\n\n\n  /**\n    * @dev emitted after the owner updates trusted signer\n    * @param newSigner the address of the new signer\n  **/\n  event TrustedSignerChanged(address indexed newSigner);\n\n}\n",
  "sourcePath": "redstone-flash-storage\\lib\\contracts\\message-based\\PriceAware.sol",
  "compiler": {
    "name": "solc",
    "version": "0.8.2+commit.661d1103.Emscripten.clang"
  },
  "schemaVersion": "3.4.3",
  "updatedAt": "2021-11-24T05:59:31.540Z",
  "devdoc": {
    "events": {
      "TrustedSignerChanged(address)": {
        "details": "emitted after the owner updates trusted signer",
        "params": {
          "newSigner": "the address of the new signer*"
        }
      }
    },
    "kind": "dev",
    "methods": {
      "owner()": {
        "details": "Returns the address of the current owner."
      },
      "renounceOwnership()": {
        "details": "Leaves the contract without owner. It will not be possible to call `onlyOwner` functions anymore. Can only be called by the current owner. NOTE: Renouncing ownership will leave the contract without an owner, thereby removing any functionality that is only available to the owner."
      },
      "transferOwnership(address)": {
        "details": "Transfers ownership of the contract to a new account (`newOwner`). Can only be called by the current owner."
      }
    },
    "version": 1
  },
  "userdoc": {
    "kind": "user",
    "methods": {},
    "version": 1
  }
}